{"abi":[{"type":"receive","stateMutability":"payable"},{"type":"function","name":"allowance","inputs":[{"name":"","type":"address","internalType":"address"},{"name":"","type":"address","internalType":"address"}],"outputs":[{"name":"","type":"uint256","internalType":"uint256"}],"stateMutability":"view"},{"type":"function","name":"approve","inputs":[{"name":"guy","type":"address","internalType":"address"},{"name":"wad","type":"uint256","internalType":"uint256"}],"outputs":[{"name":"","type":"bool","internalType":"bool"}],"stateMutability":"nonpayable"},{"type":"function","name":"balanceOf","inputs":[{"name":"","type":"address","internalType":"address"}],"outputs":[{"name":"","type":"uint256","internalType":"uint256"}],"stateMutability":"view"},{"type":"function","name":"decimals","inputs":[],"outputs":[{"name":"","type":"uint8","internalType":"uint8"}],"stateMutability":"view"},{"type":"function","name":"deposit","inputs":[],"outputs":[],"stateMutability":"payable"},{"type":"function","name":"mint","inputs":[{"name":"account","type":"address","internalType":"address"},{"name":"amount","type":"uint256","internalType":"uint256"}],"outputs":[],"stateMutability":"nonpayable"},{"type":"function","name":"name","inputs":[],"outputs":[{"name":"","type":"string","internalType":"string"}],"stateMutability":"view"},{"type":"function","name":"symbol","inputs":[],"outputs":[{"name":"","type":"string","internalType":"string"}],"stateMutability":"view"},{"type":"function","name":"totalSupply","inputs":[],"outputs":[{"name":"","type":"uint256","internalType":"uint256"}],"stateMutability":"view"},{"type":"function","name":"transfer","inputs":[{"name":"dst","type":"address","internalType":"address"},{"name":"wad","type":"uint256","internalType":"uint256"}],"outputs":[{"name":"","type":"bool","internalType":"bool"}],"stateMutability":"nonpayable"},{"type":"function","name":"transferFrom","inputs":[{"name":"src","type":"address","internalType":"address"},{"name":"dst","type":"address","internalType":"address"},{"name":"wad","type":"uint256","internalType":"uint256"}],"outputs":[{"name":"","type":"bool","internalType":"bool"}],"stateMutability":"nonpayable"},{"type":"function","name":"withdraw","inputs":[{"name":"wad","type":"uint256","internalType":"uint256"}],"outputs":[],"stateMutability":"nonpayable"},{"type":"event","name":"Approval","inputs":[{"name":"src","type":"address","indexed":true,"internalType":"address"},{"name":"guy","type":"address","indexed":true,"internalType":"address"},{"name":"wad","type":"uint256","indexed":false,"internalType":"uint256"}],"anonymous":false},{"type":"event","name":"Deposit","inputs":[{"name":"dst","type":"address","indexed":true,"internalType":"address"},{"name":"wad","type":"uint256","indexed":false,"internalType":"uint256"}],"anonymous":false},{"type":"event","name":"Transfer","inputs":[{"name":"src","type":"address","indexed":true,"internalType":"address"},{"name":"dst","type":"address","indexed":true,"internalType":"address"},{"name":"wad","type":"uint256","indexed":false,"internalType":"uint256"}],"anonymous":false},{"type":"event","name":"Withdrawal","inputs":[{"name":"src","type":"address","indexed":true,"internalType":"address"},{"name":"wad","type":"uint256","indexed":false,"internalType":"uint256"}],"anonymous":false}],"bytecode":{"object":"0x60c0604052600d60809081526c2bb930b83832b21022ba3432b960991b60a05260009061002c9082610116565b506040805180820190915260048152630ae8aa8960e31b60208201526001906100559082610116565b506002805460ff1916601217905534801561006f57600080fd5b506101d5565b634e487b7160e01b600052604160045260246000fd5b600181811c9082168061009f57607f821691505b6020821081036100bf57634e487b7160e01b600052602260045260246000fd5b50919050565b601f821115610111576000816000526020600020601f850160051c810160208610156100ee5750805b601f850160051c820191505b8181101561010d578281556001016100fa565b5050505b505050565b81516001600160401b0381111561012f5761012f610075565b6101438161013d845461008b565b846100c5565b602080601f83116001811461017857600084156101605750858301515b600019600386901b1c1916600185901b17855561010d565b600085815260208120601f198616915b828110156101a757888601518255948401946001909101908401610188565b50858210156101c55787850151600019600388901b60f8161c191681555b5050505050600190811b01905550565b61081b806101e46000396000f3fe6080604052600436106100ab5760003560e01c806340c10f191161006457806340c10f19146101a357806370a08231146101c357806395d89b41146101f0578063a9059cbb14610205578063d0e30db014610225578063dd62ed3e1461022d57600080fd5b806306fdde03146100bf578063095ea7b3146100ea57806318160ddd1461011a57806323b872dd146101375780632e1a7d4d14610157578063313ce5671461017757600080fd5b366100ba576100b8610265565b005b600080fd5b3480156100cb57600080fd5b506100d46102c0565b6040516100e19190610637565b60405180910390f35b3480156100f657600080fd5b5061010a6101053660046106a2565b61034e565b60405190151581526020016100e1565b34801561012657600080fd5b50475b6040519081526020016100e1565b34801561014357600080fd5b5061010a6101523660046106cc565b6103bb565b34801561016357600080fd5b506100b8610172366004610708565b61053f565b34801561018357600080fd5b506002546101919060ff1681565b60405160ff90911681526020016100e1565b3480156101af57600080fd5b506100b86101be3660046106a2565b6105e5565b3480156101cf57600080fd5b506101296101de366004610721565b60036020526000908152604090205481565b3480156101fc57600080fd5b506100d4610616565b34801561021157600080fd5b5061010a6102203660046106a2565b610623565b6100b8610265565b34801561023957600080fd5b5061012961024836600461073c565b600460209081526000928352604080842090915290825290205481565b3360009081526003602052604081208054349290610284908490610785565b909155505060405134815233907fe1fffcc4923d04b559f4d29a8bfc6cda04eb5b0d3c460751c2402c5c5cc9109c9060200160405180910390a2565b600080546102cd90610798565b80601f01602080910402602001604051908101604052809291908181526020018280546102f990610798565b80156103465780601f1061031b57610100808354040283529160200191610346565b820191906000526020600020905b81548152906001019060200180831161032957829003601f168201915b505050505081565b3360008181526004602090815260408083206001600160a01b038716808552925280832085905551919290917f8c5be1e5ebec7d5bd14f71427d1e84f3dd0314c0f7b2291e5b200ac8c7c3b925906103a99086815260200190565b60405180910390a35060015b92915050565b6001600160a01b0383166000908152600360205260408120548211156103e057600080fd5b6001600160a01b038416331480159061041e57506001600160a01b038416600090815260046020908152604080832033845290915290205460001914155b1561048c576001600160a01b038416600090815260046020908152604080832033845290915290205482111561045357600080fd5b6001600160a01b0384166000908152600460209081526040808320338452909152812080548492906104869084906107d2565b90915550505b6001600160a01b038416600090815260036020526040812080548492906104b49084906107d2565b90915550506001600160a01b038316600090815260036020526040812080548492906104e1908490610785565b92505081905550826001600160a01b0316846001600160a01b03167fddf252ad1be2c89b69c2b068fc378daa952ba7f163c4a11628f55a4df523b3ef8460405161052d91815260200190565b60405180910390a35060019392505050565b3360009081526003602052604090205481111561055b57600080fd5b336000908152600360205260408120805483929061057a9084906107d2565b9091555050604051339082156108fc029083906000818181858888f193505050501580156105ac573d6000803e3d6000fd5b5060405181815233907f7fcf532c15f0a6db0bd6d0e038bea71d30d808c7d98cb3bf7268a95bf5081b659060200160405180910390a250565b6001600160a01b0382166000908152600360205260408120805483929061060d908490610785565b90915550505050565b600180546102cd90610798565b60006106303384846103bb565b9392505050565b60006020808352835180602085015260005b8181101561066557858101830151858201604001528201610649565b506000604082860101526040601f19601f8301168501019250505092915050565b80356001600160a01b038116811461069d57600080fd5b919050565b600080604083850312156106b557600080fd5b6106be83610686565b946020939093013593505050565b6000806000606084860312156106e157600080fd5b6106ea84610686565b92506106f860208501610686565b9150604084013590509250925092565b60006020828403121561071a57600080fd5b5035919050565b60006020828403121561073357600080fd5b61063082610686565b6000806040838503121561074f57600080fd5b61075883610686565b915061076660208401610686565b90509250929050565b634e487b7160e01b600052601160045260246000fd5b808201808211156103b5576103b561076f565b600181811c908216806107ac57607f821691505b6020821081036107cc57634e487b7160e01b600052602260045260246000fd5b50919050565b818103818111156103b5576103b561076f56fea26469706673582212206e575d390e493e316721d9edca19fd8814e722b876845a1c66cb8379194d078764736f6c63430008190033","linkReferences":{}},"methodIdentifiers":{"allowance(address,address)":"dd62ed3e","approve(address,uint256)":"095ea7b3","balanceOf(address)":"70a08231","decimals()":"313ce567","deposit()":"d0e30db0","mint(address,uint256)":"40c10f19","name()":"06fdde03","symbol()":"95d89b41","totalSupply()":"18160ddd","transfer(address,uint256)":"a9059cbb","transferFrom(address,address,uint256)":"23b872dd","withdraw(uint256)":"2e1a7d4d"},"id":86}