{"abi":[{"type":"constructor","inputs":[],"stateMutability":"nonpayable"},{"type":"function","name":"basePlatformFeeRate","inputs":[],"outputs":[{"name":"","type":"uint256","internalType":"uint256"}],"stateMutability":"view"},{"type":"function","name":"baseReferralRate","inputs":[],"outputs":[{"name":"","type":"uint256","internalType":"uint256"}],"stateMutability":"view"},{"type":"function","name":"createMarketPlace","inputs":[{"name":"_marketPlaceName","type":"string","internalType":"string"},{"name":"_fixedratio","type":"bool","internalType":"bool"}],"outputs":[],"stateMutability":"nonpayable"},{"type":"function","name":"getBaseReferralRate","inputs":[],"outputs":[{"name":"","type":"uint256","internalType":"uint256"}],"stateMutability":"view"},{"type":"function","name":"getMarketPlaceInfo","inputs":[{"name":"_marketPlace","type":"address","internalType":"address"}],"outputs":[{"name":"","type":"tuple","internalType":"struct MarketPlaceInfo","components":[{"name":"fixedratio","type":"bool","internalType":"bool"},{"name":"status","type":"uint8","internalType":"enum MarketPlaceStatus"},{"name":"tokenAddress","type":"address","internalType":"address"},{"name":"tokenPerPoint","type":"uint256","internalType":"uint256"},{"name":"tge","type":"uint256","internalType":"uint256"},{"name":"settlementPeriod","type":"uint256","internalType":"uint256"}]}],"stateMutability":"view"},{"type":"function","name":"getPlatformFeeRate","inputs":[{"name":"_user","type":"address","internalType":"address"}],"outputs":[{"name":"","type":"uint256","internalType":"uint256"}],"stateMutability":"view"},{"type":"function","name":"getReferralInfo","inputs":[{"name":"_referrer","type":"address","internalType":"address"}],"outputs":[{"name":"","type":"tuple","internalType":"struct ReferralInfo","components":[{"name":"referrer","type":"address","internalType":"address"},{"name":"referrerRate","type":"uint256","internalType":"uint256"},{"name":"authorityRate","type":"uint256","internalType":"uint256"}]}],"stateMutability":"view"},{"type":"function","name":"initialize","inputs":[{"name":"_basePlatformFeeRate","type":"uint256","internalType":"uint256"},{"name":"_baseReferralRate","type":"uint256","internalType":"uint256"}],"outputs":[],"stateMutability":"nonpayable"},{"type":"function","name":"initializeOwnership","inputs":[{"name":"_newOwner","type":"address","internalType":"address"}],"outputs":[],"stateMutability":"nonpayable"},{"type":"function","name":"marketPlaceInfoMap","inputs":[{"name":"","type":"address","internalType":"address"}],"outputs":[{"name":"fixedratio","type":"bool","internalType":"bool"},{"name":"status","type":"uint8","internalType":"enum MarketPlaceStatus"},{"name":"tokenAddress","type":"address","internalType":"address"},{"name":"tokenPerPoint","type":"uint256","internalType":"uint256"},{"name":"tge","type":"uint256","internalType":"uint256"},{"name":"settlementPeriod","type":"uint256","internalType":"uint256"}],"stateMutability":"view"},{"type":"function","name":"owner","inputs":[],"outputs":[{"name":"","type":"address","internalType":"address"}],"stateMutability":"view"},{"type":"function","name":"paused","inputs":[],"outputs":[{"name":"","type":"bool","internalType":"bool"}],"stateMutability":"view"},{"type":"function","name":"referralExtraRateMap","inputs":[{"name":"","type":"address","internalType":"address"}],"outputs":[{"name":"","type":"uint256","internalType":"uint256"}],"stateMutability":"view"},{"type":"function","name":"referralInfoMap","inputs":[{"name":"","type":"address","internalType":"address"}],"outputs":[{"name":"referrer","type":"address","internalType":"address"},{"name":"referrerRate","type":"uint256","internalType":"uint256"},{"name":"authorityRate","type":"uint256","internalType":"uint256"}],"stateMutability":"view"},{"type":"function","name":"renounceOwnership","inputs":[],"outputs":[],"stateMutability":"nonpayable"},{"type":"function","name":"rescue","inputs":[{"name":"to","type":"address","internalType":"address"},{"name":"token","type":"address","internalType":"address"},{"name":"amount","type":"uint256","internalType":"uint256"}],"outputs":[],"stateMutability":"nonpayable"},{"type":"function","name":"setPauseStatus","inputs":[{"name":"pauseSatus","type":"bool","internalType":"bool"}],"outputs":[],"stateMutability":"nonpayable"},{"type":"function","name":"tadleFactory","inputs":[],"outputs":[{"name":"","type":"address","internalType":"contract ITadleFactory"}],"stateMutability":"view"},{"type":"function","name":"transferOwnership","inputs":[{"name":"newOwner","type":"address","internalType":"address"}],"outputs":[],"stateMutability":"nonpayable"},{"type":"function","name":"updateMarket","inputs":[{"name":"_marketPlaceName","type":"string","internalType":"string"},{"name":"_tokenAddress","type":"address","internalType":"address"},{"name":"_tokenPerPoint","type":"uint256","internalType":"uint256"},{"name":"_tge","type":"uint256","internalType":"uint256"},{"name":"_settlementPeriod","type":"uint256","internalType":"uint256"}],"outputs":[],"stateMutability":"nonpayable"},{"type":"function","name":"updateMarketPlaceStatus","inputs":[{"name":"_marketPlaceName","type":"string","internalType":"string"},{"name":"_status","type":"uint8","internalType":"enum MarketPlaceStatus"}],"outputs":[],"stateMutability":"nonpayable"},{"type":"function","name":"updateReferralExtraRateMap","inputs":[{"name":"_referrer","type":"address","internalType":"address"},{"name":"_extraRate","type":"uint256","internalType":"uint256"}],"outputs":[],"stateMutability":"nonpayable"},{"type":"function","name":"updateReferrerInfo","inputs":[{"name":"_referrer","type":"address","internalType":"address"},{"name":"_referrerRate","type":"uint256","internalType":"uint256"},{"name":"_authorityRate","type":"uint256","internalType":"uint256"}],"outputs":[],"stateMutability":"nonpayable"},{"type":"function","name":"updateUserPlatformFeeRate","inputs":[{"name":"_accountAddress","type":"address","internalType":"address"},{"name":"_platformFeeRate","type":"uint256","internalType":"uint256"}],"outputs":[],"stateMutability":"nonpayable"},{"type":"function","name":"userPlatformFeeRate","inputs":[{"name":"","type":"address","internalType":"address"}],"outputs":[{"name":"","type":"uint256","internalType":"uint256"}],"stateMutability":"view"},{"type":"event","name":"CreateMarketPlaceInfo","inputs":[{"name":"marketPlaceName","type":"string","indexed":true,"internalType":"string"},{"name":"marketPlaceAddress","type":"address","indexed":true,"internalType":"address"},{"name":"fixedratio","type":"bool","indexed":true,"internalType":"bool"}],"anonymous":false},{"type":"event","name":"OwnershipTransferred","inputs":[{"name":"previousOwner","type":"address","indexed":true,"internalType":"address"},{"name":"newOwner","type":"address","indexed":true,"internalType":"address"}],"anonymous":false},{"type":"event","name":"Paused","inputs":[{"name":"account","type":"address","indexed":false,"internalType":"address"}],"anonymous":false},{"type":"event","name":"Rescue","inputs":[{"name":"to","type":"address","indexed":false,"internalType":"address"},{"name":"token","type":"address","indexed":false,"internalType":"address"},{"name":"amount","type":"uint256","indexed":false,"internalType":"uint256"}],"anonymous":false},{"type":"event","name":"SetPauseStatus","inputs":[{"name":"status","type":"bool","indexed":false,"internalType":"bool"}],"anonymous":false},{"type":"event","name":"Unpaused","inputs":[{"name":"account","type":"address","indexed":false,"internalType":"address"}],"anonymous":false},{"type":"event","name":"UpdateBasePlatformFeeRate","inputs":[{"name":"basePlatformFeeRate","type":"uint256","indexed":false,"internalType":"uint256"}],"anonymous":false},{"type":"event","name":"UpdateBaseReferralRate","inputs":[{"name":"baseReferralRate","type":"uint256","indexed":false,"internalType":"uint256"}],"anonymous":false},{"type":"event","name":"UpdateMarket","inputs":[{"name":"marketPlaceName","type":"string","indexed":true,"internalType":"string"},{"name":"marketPlaceAddress","type":"address","indexed":true,"internalType":"address"},{"name":"tokenAddress","type":"address","indexed":true,"internalType":"address"},{"name":"tokenPerPoint","type":"uint256","indexed":false,"internalType":"uint256"},{"name":"tge","type":"uint256","indexed":false,"internalType":"uint256"},{"name":"settlementPeriod","type":"uint256","indexed":false,"internalType":"uint256"}],"anonymous":false},{"type":"event","name":"UpdateReferralExtraRate","inputs":[{"name":"referrerAddress","type":"address","indexed":true,"internalType":"address"},{"name":"referrerRate","type":"uint256","indexed":false,"internalType":"uint256"}],"anonymous":false},{"type":"event","name":"UpdateReferralExtraRateMap","inputs":[{"name":"referrerAddress","type":"address","indexed":true,"internalType":"address"},{"name":"referrerRate","type":"uint256","indexed":false,"internalType":"uint256"}],"anonymous":false},{"type":"event","name":"UpdateReferrerExtraRate","inputs":[{"name":"authorityAddress","type":"address","indexed":true,"internalType":"address"},{"name":"authorityRate","type":"uint256","indexed":false,"internalType":"uint256"}],"anonymous":false},{"type":"event","name":"UpdateReferrerInfo","inputs":[{"name":"authorityAddress","type":"address","indexed":true,"internalType":"address"},{"name":"referrerAddress","type":"address","indexed":true,"internalType":"address"},{"name":"referrerRate","type":"uint256","indexed":false,"internalType":"uint256"},{"name":"authorityRate","type":"uint256","indexed":false,"internalType":"uint256"}],"anonymous":false},{"type":"event","name":"UpdateUserPlatformFeeRate","inputs":[{"name":"userAddress","type":"address","indexed":true,"internalType":"address"},{"name":"userPlatformFeeRate","type":"uint256","indexed":false,"internalType":"uint256"}],"anonymous":false},{"type":"error","name":"AlreadyInitialized","inputs":[]},{"type":"error","name":"EnforcedPause","inputs":[]},{"type":"error","name":"ExpectedPause","inputs":[]},{"type":"error","name":"InvalidPlatformFeeRate","inputs":[{"name":"platformFeeRate","type":"uint256","internalType":"uint256"}]},{"type":"error","name":"InvalidRate","inputs":[{"name":"referrerRate","type":"uint256","internalType":"uint256"},{"name":"authorityRate","type":"uint256","internalType":"uint256"},{"name":"totalRate","type":"uint256","internalType":"uint256"}]},{"type":"error","name":"InvalidReferrer","inputs":[{"name":"referrer","type":"address","internalType":"address"}]},{"type":"error","name":"InvalidReferrerRate","inputs":[{"name":"referrerRate","type":"uint256","internalType":"uint256"}]},{"type":"error","name":"InvalidTotalRate","inputs":[{"name":"totalRate","type":"uint256","internalType":"uint256"}]},{"type":"error","name":"MarketPlaceAlreadyInitialized","inputs":[]},{"type":"error","name":"MarketPlaceNotOnline","inputs":[{"name":"status","type":"uint8","internalType":"enum MarketPlaceStatus"}]},{"type":"error","name":"OwnableInvalidOwner","inputs":[{"name":"owner","type":"address","internalType":"address"}]},{"type":"error","name":"OwnableUnauthorizedAccount","inputs":[{"name":"account","type":"address","internalType":"address"}]},{"type":"error","name":"TransferFailed","inputs":[]},{"type":"error","name":"ZeroAddress","inputs":[]}],"bytecode":{"object":"0x6080604052348015600f57600080fd5b503380603557604051631e4fbdf760e01b81526000600482015260240160405180910390fd5b603c81604e565b506096805460ff60a01b1916905560a0565b609680546001600160a01b038381166001600160a01b0319831681179093556040519116919082907f8be0079c531659141344cd1fd0a4f28419497f9722a3daafe3b4186f6b6457e090600090a35050565b61141c806100af6000396000f3fe608060405234801561001057600080fd5b50600436106101735760003560e01c80638ef1d7b4116100de578063d5a4cdf611610097578063ee80bafd11610071578063ee80bafd14610405578063f2fde38b14610418578063f530c2a31461042b578063fdbc25731461043e57600080fd5b8063d5a4cdf6146103d6578063e4a30116146103e9578063e7a52049146103fc57600080fd5b80638ef1d7b4146102af5780639b1ef87b146102c2578063a3626d5014610325578063acad480414610345578063ae210dfa14610365578063c38bb537146103c357600080fd5b8063514a0a8711610130578063514a0a871461021f5780635c975abb1461023f5780635cd9205f1461025c578063715018a61461026f57806388a4418f146102775780638da5cb5b1461028a57600080fd5b806301e9a6701461017857806320ff430b1461018d57806321874ae2146101a05780633ca814e7146101e35780633de102a2146102045780634e4b64651461020c575b600080fd5b61018b61018636600461101d565b610447565b005b61018b61019b366004611094565b6104d8565b6101b36101ae3660046110d0565b610585565b6040805182516001600160a01b031681526020808401519082015291810151908201526060015b60405180910390f35b6101f66101f13660046110d0565b6105f6565b6040519081526020016101da565b6033546101f6565b61018b61021a3660046110f2565b610639565b6101f661022d3660046110d0565b60356020526000908152604090205481565b609654600160a01b900460ff1660405190151581526020016101da565b61018b61026a3660046110d0565b6106f2565b61018b610738565b61018b61028536600461112c565b61074c565b6096546001600160a01b03165b6040516001600160a01b0390911681526020016101da565b600054610297906001600160a01b031681565b6103136102d03660046110d0565b603760205260009081526040902080546001820154600283015460039093015460ff808416946101008504909116936201000090046001600160a01b0316929186565b6040516101da969594939291906111b8565b6101f66103333660046110d0565b60346020526000908152604090205481565b6103586103533660046110d0565b61084f565b6040516101da91906111fb565b61039e6103733660046110d0565b6036602052600090815260409020805460018201546002909201546001600160a01b03909116919083565b604080516001600160a01b0390941684526020840192909252908201526060016101da565b61018b6103d136600461124e565b61092e565b61018b6103e43660046110f2565b610989565b61018b6103f7366004611269565b610a24565b6101f660335481565b61018b61041336600461128b565b610a37565b61018b6104263660046110d0565b610bc1565b61018b6104393660046112be565b610bf3565b6101f660325481565b61044f610d3f565b600061049084848080601f016020809104026020016040519081016040528093929190818152602001838380828437600092019190915250610d6c92505050565b6001600160a01b03811660009081526037602052604090208054919250908390829061ff0019166101008360048111156104cc576104cc611180565b02179055505050505050565b6104e0610d3f565b6001600160a01b03821661052a576040516001600160a01b0384169082156108fc029083906000818181858888f19350505050158015610524573d6000803e3d6000fd5b50610535565b610535828483610d9d565b604080516001600160a01b038086168252841660208201529081018290527fe01920728668d89f092ef9cb92036bad90964bb622eec508d2c3ffe1d582efb29060600160405180910390a1505050565b6105b2604051806060016040528060006001600160a01b0316815260200160008152602001600081525090565b506001600160a01b03908116600090815260366020908152604091829020825160608101845281549094168452600181015491840191909152600201549082015290565b6001600160a01b038116600090815260346020526040812054810361061d57505060325490565b506001600160a01b031660009081526034602052604090205490565b610641610d3f565b620f42408111156106995760405162461bcd60e51b815260206004820152601960248201527f496e76616c696420706c6174666f726d2066656520726174650000000000000060448201526064015b60405180910390fd5b6001600160a01b03821660008181526034602052604090819020839055517fc4273bda155b11a9ef9f4dcb1985c376b1427fb31bc01f5af10f066cdccec09a906106e69084815260200190565b60405180910390a25050565b60006107066096546001600160a01b031690565b6001600160a01b03161461072c5760405162dc149f60e41b815260040160405180910390fd5b61073581610e91565b50565b610740610d3f565b61074a6000610e91565b565b610754610d3f565b600061079584848080601f016020809104026020016040519081016040528093929190818152602001838380828437600092019190915250610d6c92505050565b6001600160a01b03811660009081526037602052604081209192508154610100900460ff1660048111156107cb576107cb611180565b146107e95760405163bd3f3ad760e01b815260040160405180910390fd5b805483151561ffff1990911681176101001782556040516001600160a01b03841690610818908890889061132e565b604051908190038120907fffe2ec09af17510d3ae1109924fc3e736b5b3a562de523cf3e2c31331bd7249990600090a45050505050565b6108926040805160c0810190915260008082526020820190815260200160006001600160a01b031681526020016000815260200160008152602001600081525090565b6001600160a01b038216600090815260376020908152604091829020825160c08101909352805460ff8082161515855291928401916101009091041660048111156108df576108df611180565b60048111156108f0576108f0611180565b815281546201000090046001600160a01b03166020820152600182015460408201526002820154606082015260039091015460809091015292915050565b610936610d3f565b801561094957610944610ee3565b610951565b610951610f43565b60405181151581527f6c82eb8f861cdde5f2fdbdc7c547ba478de85dd25a1697ec176cec341e5158979060200160405180910390a150565b610991610d3f565b6000603354826109a1919061133e565b9050620f42408111156109ca5760405163e955d8f560e01b815260048101829052602401610690565b6001600160a01b03831660008181526035602052604090819020849055517fe73d64f215b800378312edc580a80cdd76dfb4b40676070da8e87c1be9f385b290610a179085815260200190565b60405180910390a2505050565b610a2c610d3f565b603291909155603355565b6001600160a01b0383163303610a6b576040516316fb166f60e01b81526001600160a01b0384166004820152602401610690565b6001600160a01b038316610a925760405163d92e233d60e01b815260040160405180910390fd5b603354821015610ab8576040516304158d2560e51b815260048101839052602401610690565b6001600160a01b038316600090815260356020526040812054603354909190610ae290839061133e565b9050620f4240811115610b0b5760405163e955d8f560e01b815260048101829052602401610690565b80610b16848661133e565b14610b4557604051638f3e456360e01b8152600481018590526024810184905260448101829052606401610690565b6001600160a01b03851660008181526036602090815260409182902080546001600160a01b0319168417815560018101889055600281018790558251888152918201879052929133917fc8455c74a8d239204d990c5ed25449481a8465543e057887d7b190b787378515910160405180910390a3505050505050565b610bc9610d3f565b6001600160a01b03811661072c57604051631e4fbdf760e01b815260006004820152602401610690565b610bfb610d3f565b6000610c3c87878080601f016020809104026020016040519081016040528093929190818152602001838380828437600092019190915250610d6c92505050565b6001600160a01b038116600090815260376020526040902090915060018154610100900460ff166004811115610c7457610c74611180565b14610c9d57805460405163b6c3495360e01b815261069091610100900460ff1690600401611365565b80546001600160a01b0380881662010000810262010000600160b01b031990931692909217835560018301879055600283018690556003830185905560405190841690610ced908b908b9061132e565b6040805191829003822089835260208301899052908201879052907f40644ce0eb93bf63de39026cafc6ea009c99b068618d9022dec3cbd8cdf7927c9060600160405180910390a45050505050505050565b6096546001600160a01b0316331461074a5760405163118cdaa760e01b8152336004820152602401610690565b600081604051602001610d7f9190611397565b60408051601f19818403018152919052805160209091012092915050565b604080518082018252601981527f7472616e7366657228616464726573732c75696e74323536290000000000000060209182015281516001600160a01b0385811660248301526044808301869052845180840390910181526064909201845291810180516001600160e01b031663a9059cbb60e01b179052915160009291861691610e27916113ca565b6000604051808303816000865af19150503d8060008114610e64576040519150601f19603f3d011682016040523d82523d6000602084013e610e69565b606091505b5050905080610e8b576040516312171d8360e31b815260040160405180910390fd5b50505050565b609680546001600160a01b038381166001600160a01b0319831681179093556040519116919082907f8be0079c531659141344cd1fd0a4f28419497f9722a3daafe3b4186f6b6457e090600090a35050565b610eeb610f7f565b6096805460ff60a01b1916600160a01b1790557f62e78cea01bee320cd4e420270b5ea74000d11b0c9f74754ebdbfc544b05a258610f263390565b6040516001600160a01b03909116815260200160405180910390a1565b610f4b610faa565b6096805460ff60a01b191690557f5db9ee0a495bf2e6ff9c91a7834c1ba4fdd244a5e8aa4e537bd38aeae4b073aa33610f26565b609654600160a01b900460ff161561074a5760405163d93c066560e01b815260040160405180910390fd5b609654600160a01b900460ff1661074a57604051638dfc202b60e01b815260040160405180910390fd5b60008083601f840112610fe657600080fd5b50813567ffffffffffffffff811115610ffe57600080fd5b60208301915083602082850101111561101657600080fd5b9250929050565b60008060006040848603121561103257600080fd5b833567ffffffffffffffff81111561104957600080fd5b61105586828701610fd4565b90945092505060208401356005811061106d57600080fd5b809150509250925092565b80356001600160a01b038116811461108f57600080fd5b919050565b6000806000606084860312156110a957600080fd5b6110b284611078565b92506110c060208501611078565b9150604084013590509250925092565b6000602082840312156110e257600080fd5b6110eb82611078565b9392505050565b6000806040838503121561110557600080fd5b61110e83611078565b946020939093013593505050565b8035801515811461108f57600080fd5b60008060006040848603121561114157600080fd5b833567ffffffffffffffff81111561115857600080fd5b61116486828701610fd4565b909450925061117790506020850161111c565b90509250925092565b634e487b7160e01b600052602160045260246000fd5b600581106111b457634e487b7160e01b600052602160045260246000fd5b9052565b861515815260c081016111ce6020830188611196565b6001600160a01b039590951660408201526060810193909352608083019190915260a09091015292915050565b81511515815260208083015160c083019161121890840182611196565b506040838101516001600160a01b031690830152606080840151908301526080808401519083015260a092830151919092015290565b60006020828403121561126057600080fd5b6110eb8261111c565b6000806040838503121561127c57600080fd5b50508035926020909101359150565b6000806000606084860312156112a057600080fd5b6112a984611078565b95602085013595506040909401359392505050565b60008060008060008060a087890312156112d757600080fd5b863567ffffffffffffffff8111156112ee57600080fd5b6112fa89828a01610fd4565b909750955061130d905060208801611078565b93506040870135925060608701359150608087013590509295509295509295565b8183823760009101908152919050565b8082018082111561135f57634e487b7160e01b600052601160045260246000fd5b92915050565b6020810161135f8284611196565b60005b8381101561138e578181015183820152602001611376565b50506000910152565b60208152600082518060208401526113b6816040850160208701611373565b601f01601f19169190910160400192915050565b600082516113dc818460208701611373565b919091019291505056fea26469706673582212207744e60dc1a9effbcd657f9a97ebeb904bd29d08b8f4dafcbadb8ea0089e276864736f6c63430008190033","linkReferences":{}},"methodIdentifiers":{"basePlatformFeeRate()":"fdbc2573","baseReferralRate()":"e7a52049","createMarketPlace(string,bool)":"88a4418f","getBaseReferralRate()":"3de102a2","getMarketPlaceInfo(address)":"acad4804","getPlatformFeeRate(address)":"3ca814e7","getReferralInfo(address)":"21874ae2","initialize(uint256,uint256)":"e4a30116","initializeOwnership(address)":"5cd9205f","marketPlaceInfoMap(address)":"9b1ef87b","owner()":"8da5cb5b","paused()":"5c975abb","referralExtraRateMap(address)":"514a0a87","referralInfoMap(address)":"ae210dfa","renounceOwnership()":"715018a6","rescue(address,address,uint256)":"20ff430b","setPauseStatus(bool)":"c38bb537","tadleFactory()":"8ef1d7b4","transferOwnership(address)":"f2fde38b","updateMarket(string,address,uint256,uint256,uint256)":"f530c2a3","updateMarketPlaceStatus(string,uint8)":"01e9a670","updateReferralExtraRateMap(address,uint256)":"d5a4cdf6","updateReferrerInfo(address,uint256,uint256)":"ee80bafd","updateUserPlatformFeeRate(address,uint256)":"4e4b6465","userPlatformFeeRate(address)":"a3626d50"},"id":50}