{"abi":[{"type":"constructor","inputs":[],"stateMutability":"nonpayable"},{"type":"function","name":"closeBidOffer","inputs":[{"name":"_offer","type":"address","internalType":"address"}],"outputs":[],"stateMutability":"nonpayable"},{"type":"function","name":"closeBidTaker","inputs":[{"name":"_stock","type":"address","internalType":"address"}],"outputs":[],"stateMutability":"nonpayable"},{"type":"function","name":"initializeOwnership","inputs":[{"name":"_newOwner","type":"address","internalType":"address"}],"outputs":[],"stateMutability":"nonpayable"},{"type":"function","name":"owner","inputs":[],"outputs":[{"name":"","type":"address","internalType":"address"}],"stateMutability":"view"},{"type":"function","name":"paused","inputs":[],"outputs":[{"name":"","type":"bool","internalType":"bool"}],"stateMutability":"view"},{"type":"function","name":"renounceOwnership","inputs":[],"outputs":[],"stateMutability":"nonpayable"},{"type":"function","name":"rescue","inputs":[{"name":"to","type":"address","internalType":"address"},{"name":"token","type":"address","internalType":"address"},{"name":"amount","type":"uint256","internalType":"uint256"}],"outputs":[],"stateMutability":"nonpayable"},{"type":"function","name":"setPauseStatus","inputs":[{"name":"pauseSatus","type":"bool","internalType":"bool"}],"outputs":[],"stateMutability":"nonpayable"},{"type":"function","name":"settleAskMaker","inputs":[{"name":"_offer","type":"address","internalType":"address"},{"name":"_settledPoints","type":"uint256","internalType":"uint256"}],"outputs":[],"stateMutability":"nonpayable"},{"type":"function","name":"settleAskTaker","inputs":[{"name":"_stock","type":"address","internalType":"address"},{"name":"_settledPoints","type":"uint256","internalType":"uint256"}],"outputs":[],"stateMutability":"nonpayable"},{"type":"function","name":"tadleFactory","inputs":[],"outputs":[{"name":"","type":"address","internalType":"contract ITadleFactory"}],"stateMutability":"view"},{"type":"function","name":"transferOwnership","inputs":[{"name":"newOwner","type":"address","internalType":"address"}],"outputs":[],"stateMutability":"nonpayable"},{"type":"event","name":"CloseBidOffer","inputs":[{"name":"_marketPlace","type":"address","indexed":true,"internalType":"address"},{"name":"_maker","type":"address","indexed":true,"internalType":"address"},{"name":"_offer","type":"address","indexed":true,"internalType":"address"},{"name":"_authority","type":"address","indexed":false,"internalType":"address"}],"anonymous":false},{"type":"event","name":"CloseBidTaker","inputs":[{"name":"_marketPlace","type":"address","indexed":true,"internalType":"address"},{"name":"_maker","type":"address","indexed":true,"internalType":"address"},{"name":"_stock","type":"address","indexed":true,"internalType":"address"},{"name":"_authority","type":"address","indexed":false,"internalType":"address"},{"name":"_userCollateralFee","type":"uint256","indexed":false,"internalType":"uint256"},{"name":"_pointTokenAmount","type":"uint256","indexed":false,"internalType":"uint256"}],"anonymous":false},{"type":"event","name":"OwnershipTransferred","inputs":[{"name":"previousOwner","type":"address","indexed":true,"internalType":"address"},{"name":"newOwner","type":"address","indexed":true,"internalType":"address"}],"anonymous":false},{"type":"event","name":"Paused","inputs":[{"name":"account","type":"address","indexed":false,"internalType":"address"}],"anonymous":false},{"type":"event","name":"Rescue","inputs":[{"name":"to","type":"address","indexed":false,"internalType":"address"},{"name":"token","type":"address","indexed":false,"internalType":"address"},{"name":"amount","type":"uint256","indexed":false,"internalType":"uint256"}],"anonymous":false},{"type":"event","name":"SetPauseStatus","inputs":[{"name":"status","type":"bool","indexed":false,"internalType":"bool"}],"anonymous":false},{"type":"event","name":"SettleAskMaker","inputs":[{"name":"_marketPlace","type":"address","indexed":true,"internalType":"address"},{"name":"_maker","type":"address","indexed":true,"internalType":"address"},{"name":"_offer","type":"address","indexed":true,"internalType":"address"},{"name":"_authority","type":"address","indexed":false,"internalType":"address"},{"name":"_settledPoints","type":"uint256","indexed":false,"internalType":"uint256"},{"name":"_settledPointTokenAmount","type":"uint256","indexed":false,"internalType":"uint256"},{"name":"_makerRefundAmount","type":"uint256","indexed":false,"internalType":"uint256"}],"anonymous":false},{"type":"event","name":"SettleAskTaker","inputs":[{"name":"_marketPlace","type":"address","indexed":true,"internalType":"address"},{"name":"_maker","type":"address","indexed":true,"internalType":"address"},{"name":"_stock","type":"address","indexed":true,"internalType":"address"},{"name":"_preOffer","type":"address","indexed":false,"internalType":"address"},{"name":"_authority","type":"address","indexed":false,"internalType":"address"},{"name":"_settledPoints","type":"uint256","indexed":false,"internalType":"uint256"},{"name":"_settledPointTokenAmount","type":"uint256","indexed":false,"internalType":"uint256"},{"name":"_collateralFee","type":"uint256","indexed":false,"internalType":"uint256"}],"anonymous":false},{"type":"event","name":"Unpaused","inputs":[{"name":"account","type":"address","indexed":false,"internalType":"address"}],"anonymous":false},{"type":"error","name":"AlreadyInitialized","inputs":[]},{"type":"error","name":"EnforcedPause","inputs":[]},{"type":"error","name":"ExpectedPause","inputs":[]},{"type":"error","name":"FixedRatioUnsupported","inputs":[]},{"type":"error","name":"InsufficientRemainingPoints","inputs":[]},{"type":"error","name":"InvaildMarketPlaceStatus","inputs":[]},{"type":"error","name":"InvalidOfferStatus","inputs":[]},{"type":"error","name":"InvalidOfferType","inputs":[{"name":"_targetType","type":"uint8","internalType":"enum OfferType"},{"name":"_currentType","type":"uint8","internalType":"enum OfferType"}]},{"type":"error","name":"InvalidPoints","inputs":[]},{"type":"error","name":"InvalidStock","inputs":[]},{"type":"error","name":"InvalidStockStatus","inputs":[]},{"type":"error","name":"InvalidStockType","inputs":[]},{"type":"error","name":"MathOverflowedMulDiv","inputs":[]},{"type":"error","name":"OwnableInvalidOwner","inputs":[{"name":"owner","type":"address","internalType":"address"}]},{"type":"error","name":"OwnableUnauthorizedAccount","inputs":[{"name":"account","type":"address","internalType":"address"}]},{"type":"error","name":"TransferFailed","inputs":[]},{"type":"error","name":"Unauthorized","inputs":[]}],"bytecode":{"object":"0x6080604052348015600f57600080fd5b503380603557604051631e4fbdf760e01b81526000600482015260240160405180910390fd5b603c81604e565b506096805460ff60a01b1916905560a0565b609680546001600160a01b038381166001600160a01b0319831681179093556040519116919082907f8be0079c531659141344cd1fd0a4f28419497f9722a3daafe3b4186f6b6457e090600090a35050565b612370806100af6000396000f3fe608060405234801561001057600080fd5b50600436106100b45760003560e01c80638da5cb5b116100715780638da5cb5b146101315780638ef1d7b414610156578063a0485a2f14610169578063b96a4df81461017c578063c38bb5371461018f578063f2fde38b146101a257600080fd5b80630a82da4a146100b957806320ff430b146100ce5780635c975abb146100e15780635cd9205f14610103578063715018a614610116578063845522a41461011e575b600080fd5b6100cc6100c7366004611d51565b6101b5565b005b6100cc6100dc366004611d6e565b610760565b609654600160a01b900460ff1660405190151581526020015b60405180910390f35b6100cc610111366004611d51565b61080d565b6100cc610853565b6100cc61012c366004611d51565b610867565b6096546001600160a01b03165b6040516001600160a01b0390911681526020016100fa565b60005461013e906001600160a01b031681565b6100cc610177366004611daf565b610b1b565b6100cc61018a366004611daf565b611035565b6100cc61019d366004611de9565b61147b565b6100cc6101b0366004611d51565b6114d6565b600080546101cb906001600160a01b0316611508565b60008054919250906101e5906001600160a01b031661157b565b604051630a87422f60e31b81526001600160a01b03858116600483015291925060009184169063543a11789060240161012060405180830381865afa158015610232573d6000803e3d6000fd5b505050506040513d601f19601f820116820180604052508101906102569190611ea7565b60a08101519091506001600160a01b03166102845760405163777c5e3760e11b815260040160405180910390fd5b60008160400151600181111561029c5761029c611f48565b036102ba57604051633ea336a360e21b815260040160405180910390fd5b60608101516001600160a01b0316336001600160a01b0316146102ef576040516282b42960e81b815260040160405180910390fd5b6000806102ff8360a001516115ab565b50509150915061030d611ccd565b6000808351600181111561032357610323611f48565b0361033657505060c08301518290610457565b60808301516040516306cdc84160e01b81526001600160a01b039182166004820152908816906306cdc841906024016101c060405180830381865afa158015610383573d6000803e3d6000fd5b505050506040513d601f19601f820116820180604052508101906103a79190611f6d565b6101008601519092506001600160a01b03166103c8575060c0840151610457565b6101008501516040516306cdc84160e01b81526001600160a01b0391821660048201526000918916906306cdc841906024016101c060405180830381865afa158015610418573d6000803e3d6000fd5b505050506040513d601f19601f8201168201806040525081019061043c9190611f6d565b90508061012001518160c001516104539190612056565b9150505b8060000361047857604051630b7a817f60e21b815260040160405180910390fd5b60068260600151600681111561049057610490611f48565b146104ae576040516329de90c560e11b815260040160405180910390fd5b6001856020015160028111156104c6576104c6611f48565b146104e457604051631b99e42560e21b815260040160405180910390fd5b600082610160015183610120015111156105735760018360600151600681111561051057610510611f48565b036105385761053183608001518461010001518560e00151600160006117b2565b9050610573565b61012083015160c084015160e08501516000926105559284611823565b905061056f846080015185610100015183600160006117b2565b9150505b61012083015160009061058a908390859084611823565b60608601516040516394e73d4160e01b81529192506001600160a01b038a16916394e73d41916105c39160039133918790600401612069565b600060405180830381600087803b1580156105dd57600080fd5b505af11580156105f1573d6000803e3d6000fd5b5050506101208501516101808601516000925061061091869084611823565b60608701516040516394e73d4160e01b81529192506001600160a01b038b16916394e73d41916106499160059133918790600401612069565b600060405180830381600087803b15801561066357600080fd5b505af1158015610677573d6000803e3d6000fd5b50506040516362f4310160e01b81526001600160a01b038d1692506362f4310191506106aa908e906002906004016120a0565b600060405180830381600087803b1580156106c457600080fd5b505af11580156106d8573d6000803e3d6000fd5b505050508a6001600160a01b031685604001516001600160a01b031687604001516001600160a01b03167f293a8d80e491726338ee2f7d0346a33cbe6fd749c9db8d416a232daf4ed9d4db61072a3390565b604080516001600160a01b0390921682526020820188905281018690526060015b60405180910390a45050505050505050505050565b610768611868565b6001600160a01b0382166107b2576040516001600160a01b0384169082156108fc029083906000818181858888f193505050501580156107ac573d6000803e3d6000fd5b506107bd565b6107bd828483611895565b604080516001600160a01b038086168252841660208201529081018290527fe01920728668d89f092ef9cb92036bad90964bb622eec508d2c3ffe1d582efb29060600160405180910390a1505050565b60006108216096546001600160a01b031690565b6001600160a01b0316146108475760405162dc149f60e41b815260040160405180910390fd5b61085081611989565b50565b61085b611868565b6108656000611989565b565b6000806000610875846115ab565b9350509250925082602001516001600160a01b03166108913390565b6001600160a01b0316146108b7576040516282b42960e81b815260040160405180910390fd5b6000836080015160018111156108cf576108cf611f48565b036108fc576001600060405163ebc1b59960e01b81526004016108f39291906120e1565b60405180910390fd5b600281600481111561091057610910611f48565b141580156109305750600381600481111561092d5761092d611f48565b14155b1561094e5760405163d8d840a560e01b815260040160405180910390fd5b60018360600151600681111561096657610966611f48565b14610984576040516329de90c560e11b815260040160405180910390fd5b60006109a984608001518560e001518660c001518761012001518861010001516119db565b60008054919250906109c3906001600160a01b031661157b565b60608501516040516394e73d4160e01b81529192506001600160a01b038316916394e73d41916109fb91600491339188908401612069565b600060405180830381600087803b158015610a1557600080fd5b505af1158015610a29573d6000803e3d6000fd5b505060008054909250610a4591506001600160a01b0316611508565b6040516334736a0b60e21b81529091506001600160a01b0382169063d1cda82c90610a77908a906006906004016120fc565b600060405180830381600087803b158015610a9157600080fd5b505af1158015610aa5573d6000803e3d6000fd5b50505050866001600160a01b031686604001516001600160a01b031686604001516001600160a01b03167f7d59507d04e406765d2534c74db0ad870954db921bd052ca5ef0f35fb8046b47610af73390565b6040516001600160a01b03909116815260200160405180910390a450505050505050565b60008054610b31906001600160a01b0316611508565b604051630a87422f60e31b81526001600160a01b03858116600483015291925060009183169063543a11789060240161012060405180830381865afa158015610b7e573d6000803e3d6000fd5b505050506040513d601f19601f82011682018060405250810190610ba29190611ea7565b9050600080600080610bb78560a001516115ab565b92965090945092509050600185602001516002811115610bd957610bd9611f48565b14610bf757604051631b99e42560e21b815260040160405180910390fd5b815115610c175760405163c3863bc160e01b815260040160405180910390fd5b600185604001516001811115610c2f57610c2f611f48565b03610c4d57604051633ea336a360e21b815260040160405180910390fd5b8460c00151871115610c72576040516310ddfd8960e31b815260040160405180910390fd5b6002816004811115610c8657610c86611f48565b03610cc55760208401516001600160a01b0316336001600160a01b031614610cc0576040516282b42960e81b815260040160405180910390fd5b610d0e565b6096546001600160a01b03163314610cef576040516282b42960e81b815260040160405180910390fd5b8615610d0e576040516310ddfd8960e31b815260040160405180910390fd5b6000878360600151610d20919061211c565b6000805491925090610d3a906001600160a01b031661157b565b90508115610e31576001600160a01b038116638e5063493360408088015190516001600160e01b031960e085901b1681526001600160a01b039283166004820152911660248201526044810185905260016064820152608401600060405180830381600087803b158015610dad57600080fd5b505af1158015610dc1573d6000803e3d6000fd5b505050602087015160608701516040516394e73d4160e01b81526001600160a01b03851693506394e73d4192610dfe926005928890600401612069565b600060405180830381600087803b158015610e1857600080fd5b505af1158015610e2c573d6000803e3d6000fd5b505050505b6000610e4e87608001518861010001518a60e001516000806117b2565b90508760c001518a03610ec95760608601516040516394e73d4160e01b81526001600160a01b038416916394e73d4191610e92916003913391908790600401612069565b600060405180830381600087803b158015610eac57600080fd5b505af1158015610ec0573d6000803e3d6000fd5b50505050610f36565b602087015160608701516040516394e73d4160e01b81526001600160a01b038516926394e73d4192610f0392600492919087908401612069565b600060405180830381600087803b158015610f1d57600080fd5b505af1158015610f31573d6000803e3d6000fd5b505050505b60a0880151604051632e93eaff60e11b81526001600160a01b0391821660048201528c82166024820152604481018c905260648101859052908a1690635d27d5fe90608401600060405180830381600087803b158015610f9557600080fd5b505af1158015610fa9573d6000803e3d6000fd5b505050508a6001600160a01b031687604001516001600160a01b031687604001516001600160a01b03167fe7994422d7d5906ae7e90436e2335ae6fea110be931a527c806817fbd47901f88b60a001516110003390565b604080516001600160a01b03938416815292909116602083015281018f9052606081018890526080810186905260a00161074b565b600080600080611044866115ab565b9350935093509350836101200151851115611072576040516310ddfd8960e31b815260040160405180910390fd5b8151156110925760405163c3863bc160e01b815260040160405180910390fd5b6001846080015160018111156110aa576110aa611f48565b036110ce576000600160405163ebc1b59960e01b81526004016108f39291906120e1565b6001846060015160068111156110e6576110e6611f48565b1415801561110a575060038460600151600681111561110757611107611f48565b14155b15611128576040516329de90c560e11b815260040160405180910390fd5b600281600481111561113c5761113c611f48565b0361117b5760208401516001600160a01b0316336001600160a01b031614611176576040516282b42960e81b815260040160405180910390fd5b6111c4565b6096546001600160a01b031633146111a5576040516282b42960e81b815260040160405180910390fd5b84156111c4576040516310ddfd8960e31b815260040160405180910390fd5b60008583606001516111d6919061211c565b60008054919250906111f0906001600160a01b031661157b565b9050811561127c576001600160a01b038116638e5063493360408088015190516001600160e01b031960e085901b1681526001600160a01b039283166004820152911660248201526044810185905260016064820152608401600060405180830381600087803b15801561126357600080fd5b505af1158015611277573d6000803e3d6000fd5b505050505b6000866101200151880361136f576001876060015160068111156112a2576112a2611f48565b036112ca576112c387608001518861010001518960e00151600160006117b2565b9050611305565b61012087015160c088015160e08901516000926112e79284611823565b9050611301886080015189610100015183600160006117b2565b9150505b60608601516040516394e73d4160e01b81526001600160a01b038416916394e73d419161133c916002913391908790600401612069565b600060405180830381600087803b15801561135657600080fd5b505af115801561136a573d6000803e3d6000fd5b505050505b60008054611385906001600160a01b0316611508565b604051630c42c7f960e21b81526001600160a01b038c81166004830152602482018c9052604482018790529192509082169063310b1fe490606401600060405180830381600087803b1580156113da57600080fd5b505af11580156113ee573d6000803e3d6000fd5b50505050896001600160a01b031688604001516001600160a01b031688604001516001600160a01b03167f027008ead91caef5dc620efa4c9ab4fba6dd6aa9a92f5a07a3ca38bd0ae08c7c6114403390565b604080516001600160a01b039092168252602082018f905281018990526060810187905260800160405180910390a450505050505050505050565b611483611868565b801561149657611491611a3b565b61149e565b61149e611a9b565b60405181151581527f6c82eb8f861cdde5f2fdbdc7c547ba478de85dd25a1697ec176cec341e5158979060200160405180910390a150565b6114de611868565b6001600160a01b03811661084757604051631e4fbdf760e01b8152600060048201526024016108f3565b60405163224c50cb60e21b8152600260048201526000906001600160a01b03831690638931432c906024015b602060405180830381865afa158015611551573d6000803e3d6000fd5b505050506040513d601f19601f820116820180604052508101906115759190612133565b92915050565b60405163224c50cb60e21b8152600560048201526000906001600160a01b03831690638931432c90602401611534565b6115b3611ccd565b6040805160e081018252600080825260208083018290528284018290526060808401839052608080850184905260a080860185905260c0808701869052875190810188528581529384018590529583018490529082018390528101829052928301529060008054819061162e906001600160a01b0316611508565b6000805491925090611648906001600160a01b0316611ad7565b6040516306cdc84160e01b81526001600160a01b038981166004830152919250908316906306cdc841906024016101c060405180830381865afa158015611693573d6000803e3d6000fd5b505050506040513d601f19601f820116820180604052508101906116b79190611f6d565b604081810151905163cfbd9a4160e01b81526001600160a01b03918216600482015291975083169063cfbd9a419060240160e060405180830381865afa158015611705573d6000803e3d6000fd5b505050506040513d601f19601f820116820180604052508101906117299190612150565b6040818101519051632b2b520160e21b81526001600160a01b03918216600482015291965082169063acad48049060240160c060405180830381865afa158015611777573d6000803e3d6000fd5b505050506040513d601f19601f8201168201806040525081019061179b919061220b565b93506117a74285611b07565b925050509193509193565b600060018660018111156117c8576117c8611f48565b1480156117d25750825b156117de57508261181a565b60008660018111156117f2576117f2611f48565b1480156117fd575082155b1561180957508261181a565b611817848661271085611823565b90505b95945050505050565b600080611831868686611b86565b905061183c83611c4b565b8015611858575060008480611853576118536122b2565b868809115b1561181a576118176001826122c8565b6096546001600160a01b031633146108655760405163118cdaa760e01b81523360048201526024016108f3565b604080518082018252601981527f7472616e7366657228616464726573732c75696e74323536290000000000000060209182015281516001600160a01b0385811660248301526044808301869052845180840390910181526064909201845291810180516001600160e01b031663a9059cbb60e01b17905291516000929186169161191f916122db565b6000604051808303816000865af19150503d806000811461195c576040519150601f19603f3d011682016040523d82523d6000602084013e611961565b606091505b5050905080611983576040516312171d8360e31b815260040160405180910390fd5b50505050565b609680546001600160a01b038381166001600160a01b0319831681179093556040519116919082907f8be0079c531659141344cd1fd0a4f28419497f9722a3daafe3b4186f6b6457e090600090a35050565b6000806119eb8685876001611823565b90506001876001811115611a0157611a01611f48565b03611a1857611a108187612056565b91505061181a565b611a30611a258288612056565b846127106000611823565b979650505050505050565b611a43611c78565b6096805460ff60a01b1916600160a01b1790557f62e78cea01bee320cd4e420270b5ea74000d11b0c9f74754ebdbfc544b05a258611a7e3390565b6040516001600160a01b03909116815260200160405180910390a1565b611aa3611ca3565b6096805460ff60a01b191690557f5db9ee0a495bf2e6ff9c91a7834c1ba4fdd244a5e8aa4e537bd38aeae4b073aa33611a7e565b60405163224c50cb60e21b8152600160048201526000906001600160a01b03831690638931432c90602401611534565b6000600482602001516004811115611b2157611b21611f48565b03611b2e57506004611575565b8160800151600003611b4557506020810151611575565b8160a001518260800151611b5991906122c8565b831115611b6857506003611575565b8160800151831115611b7c57506002611575565b5060200151919050565b6000838302816000198587098281108382030391505080600003611bbd57838281611bb357611bb36122b2565b0492505050611c44565b808411611bdd5760405163227bc15360e01b815260040160405180910390fd5b6000848688096000868103871696879004966002600389028118808a02820302808a02820302808a02820302808a02820302808a02820302808a02909103029181900381900460010186841190950394909402919094039290920491909117919091029150505b9392505050565b60006002826003811115611c6157611c61611f48565b611c6b919061230a565b60ff166001149050919050565b609654600160a01b900460ff16156108655760405163d93c066560e01b815260040160405180910390fd5b609654600160a01b900460ff1661086557604051638dfc202b60e01b815260040160405180910390fd5b604080516101c0810182526000808252602082018190529181018290529060608201908152602001600081526020016000815260200160008152602001600081526020016000815260200160008152602001600081526020016000815260200160008152602001600081525090565b6001600160a01b038116811461085057600080fd5b600060208284031215611d6357600080fd5b8135611c4481611d3c565b600080600060608486031215611d8357600080fd5b8335611d8e81611d3c565b92506020840135611d9e81611d3c565b929592945050506040919091013590565b60008060408385031215611dc257600080fd5b8235611dcd81611d3c565b946020939093013593505050565b801515811461085057600080fd5b600060208284031215611dfb57600080fd5b8135611c4481611ddb565b604051610120810167ffffffffffffffff81118282101715611e3857634e487b7160e01b600052604160045260246000fd5b60405290565b6040516101c0810167ffffffffffffffff81118282101715611e3857634e487b7160e01b600052604160045260246000fd5b805160038110611e7f57600080fd5b919050565b6002811061085057600080fd5b8051611e7f81611e84565b8051611e7f81611d3c565b60006101208284031215611eba57600080fd5b611ec2611e06565b82518152611ed260208401611e70565b6020820152611ee360408401611e91565b6040820152611ef460608401611e9c565b6060820152611f0560808401611e9c565b6080820152611f1660a08401611e9c565b60a082015260c083015160c082015260e083015160e0820152610100611f3d818501611e9c565b908201529392505050565b634e487b7160e01b600052602160045260246000fd5b805160078110611e7f57600080fd5b60006101c08284031215611f8057600080fd5b611f88611e3e565b82518152611f9860208401611e9c565b6020820152611fa960408401611e9c565b6040820152611fba60608401611f5e565b6060820152611fcb60808401611e91565b6080820152611fdc60a08401611e70565b60a082015260c0838101519082015260e08084015190820152610100808401519082015261012080840151908201526101408084015190820152610160808401519082015261018080840151908201526101a0928301519281019290925250919050565b634e487b7160e01b600052601160045260246000fd5b8181038181111561157557611575612040565b608081016006861061207d5761207d611f48565b9481526001600160a01b0393841660208201529190921660408201526060015290565b6001600160a01b038316815260408101600383106120c0576120c0611f48565b8260208301529392505050565b600281106120dd576120dd611f48565b9052565b604081016120ef82856120cd565b611c4460208301846120cd565b6001600160a01b038316815260408101600783106120c0576120c0611f48565b808202811582820484141761157557611575612040565b60006020828403121561214557600080fd5b8151611c4481611d3c565b600060e0828403121561216257600080fd5b60405160e0810181811067ffffffffffffffff8211171561219357634e487b7160e01b600052604160045260246000fd5b60405282516121a181611e84565b815260208301516121b181611d3c565b602082015260408301516121c481611d3c565b604082015260608301516121d781611d3c565b60608201526121e860808401611e9c565b608082015260a083015160a082015260c083015160c08201528091505092915050565b600060c0828403121561221d57600080fd5b60405160c0810181811067ffffffffffffffff8211171561224e57634e487b7160e01b600052604160045260246000fd5b604052825161225c81611ddb565b815260208301516005811061227057600080fd5b6020820152604083015161228381611d3c565b80604083015250606083015160608201526080830151608082015260a083015160a08201528091505092915050565b634e487b7160e01b600052601260045260246000fd5b8082018082111561157557611575612040565b6000825160005b818110156122fc57602081860181015185830152016122e2565b506000920191825250919050565b600060ff83168061232b57634e487b7160e01b600052601260045260246000fd5b8060ff8416069150509291505056fea264697066735822122001cbbb8cc834ba90f80555a3a9b499c0aab2949aa015bd22702f0e6d8430a90064736f6c63430008190033","linkReferences":{}},"methodIdentifiers":{"closeBidOffer(address)":"845522a4","closeBidTaker(address)":"0a82da4a","initializeOwnership(address)":"5cd9205f","owner()":"8da5cb5b","paused()":"5c975abb","renounceOwnership()":"715018a6","rescue(address,address,uint256)":"20ff430b","setPauseStatus(bool)":"c38bb537","settleAskMaker(address,uint256)":"b96a4df8","settleAskTaker(address,uint256)":"a0485a2f","tadleFactory()":"8ef1d7b4","transferOwnership(address)":"f2fde38b"},"id":48}