{"abi":[{"type":"function","name":"makerAddresses","inputs":[{"name":"","type":"uint256","internalType":"uint256"}],"outputs":[{"name":"","type":"address","internalType":"address"}],"stateMutability":"view"},{"type":"function","name":"makerInfoMap","inputs":[{"name":"","type":"address","internalType":"address"}],"outputs":[{"name":"offerSettleType","type":"uint8","internalType":"enum OfferSettleType"},{"name":"authority","type":"address","internalType":"address"},{"name":"marketPlace","type":"address","internalType":"address"},{"name":"tokenAddress","type":"address","internalType":"address"},{"name":"originOffer","type":"address","internalType":"address"},{"name":"platformFee","type":"uint256","internalType":"uint256"},{"name":"eachTradeTax","type":"uint256","internalType":"uint256"}],"stateMutability":"view"},{"type":"function","name":"offerAddresses","inputs":[{"name":"","type":"uint256","internalType":"uint256"}],"outputs":[{"name":"","type":"address","internalType":"address"}],"stateMutability":"view"},{"type":"function","name":"offerId","inputs":[],"outputs":[{"name":"","type":"uint256","internalType":"uint256"}],"stateMutability":"view"},{"type":"function","name":"offerInfoMap","inputs":[{"name":"","type":"address","internalType":"address"}],"outputs":[{"name":"id","type":"uint256","internalType":"uint256"},{"name":"authority","type":"address","internalType":"address"},{"name":"maker","type":"address","internalType":"address"},{"name":"offerStatus","type":"uint8","internalType":"enum OfferStatus"},{"name":"offerType","type":"uint8","internalType":"enum OfferType"},{"name":"abortOfferStatus","type":"uint8","internalType":"enum AbortOfferStatus"},{"name":"points","type":"uint256","internalType":"uint256"},{"name":"amount","type":"uint256","internalType":"uint256"},{"name":"collateralRate","type":"uint256","internalType":"uint256"},{"name":"usedPoints","type":"uint256","internalType":"uint256"},{"name":"tradeTax","type":"uint256","internalType":"uint256"},{"name":"settledPoints","type":"uint256","internalType":"uint256"},{"name":"settledPointTokenAmount","type":"uint256","internalType":"uint256"},{"name":"settledCollateralAmount","type":"uint256","internalType":"uint256"}],"stateMutability":"view"},{"type":"function","name":"stockAddresses","inputs":[{"name":"","type":"uint256","internalType":"uint256"}],"outputs":[{"name":"","type":"address","internalType":"address"}],"stateMutability":"view"},{"type":"function","name":"stockInfoMap","inputs":[{"name":"","type":"address","internalType":"address"}],"outputs":[{"name":"id","type":"uint256","internalType":"uint256"},{"name":"stockStatus","type":"uint8","internalType":"enum StockStatus"},{"name":"stockType","type":"uint8","internalType":"enum StockType"},{"name":"authority","type":"address","internalType":"address"},{"name":"maker","type":"address","internalType":"address"},{"name":"preOffer","type":"address","internalType":"address"},{"name":"points","type":"uint256","internalType":"uint256"},{"name":"amount","type":"uint256","internalType":"uint256"},{"name":"offer","type":"address","internalType":"address"}],"stateMutability":"view"},{"type":"function","name":"tadleFactory","inputs":[],"outputs":[{"name":"","type":"address","internalType":"contract ITadleFactory"}],"stateMutability":"view"}],"bytecode":{"object":"0x6080604052348015600f57600080fd5b506105078061001f6000396000f3fe608060405234801561001057600080fd5b50600436106100885760003560e01c80638ef3b47f1161005b5780638ef3b47f14610158578063d9e61b0e146101d9578063da52b037146101ec578063fc125c3f146101ff57600080fd5b806321ce9f911461008d578063739a8ce4146100a9578063772543c21461011a5780638ef1d7b414610145575b600080fd5b61009660325481565b6040519081526020015b60405180910390f35b6101076100b73660046102f7565b60356020526000908152604090208054600182015460028301546003840154600485015460059095015460ff8516956101009095046001600160a01b039081169594811694938116939216919087565b6040516100a09796959493929190610350565b61012d610128366004610396565b6102ad565b6040516001600160a01b0390911681526020016100a0565b60005461012d906001600160a01b031681565b6101c46101663660046102f7565b6034602052600090815260409020805460018201546002830154600384015460048501546005860154600690960154949560ff808616966101008704909116956001600160a01b036201000090910481169581169481169392911689565b6040516100a0999897969594939291906103bf565b61012d6101e7366004610396565b6102d7565b61012d6101fa366004610396565b6102e7565b61029361020d3660046102f7565b603360205260009081526040902080546001820154600283015460038401546004850154600586015460068701546007880154600889015460098a0154600a909a015498996001600160a01b03988916999888169860ff600160a01b8a04811699600160a81b8104821699600160b01b909104909116979096909590949093909290918e565b6040516100a09e9d9c9b9a9998979695949392919061043a565b609781815481106102bd57600080fd5b6000918252602090912001546001600160a01b0316905081565b609681815481106102bd57600080fd5b609881815481106102bd57600080fd5b60006020828403121561030957600080fd5b81356001600160a01b038116811461032057600080fd5b9392505050565b634e487b7160e01b600052602160045260246000fd5b6002811061034d5761034d610327565b50565b60e0810161035d8961033d565b9781526001600160a01b039687166020820152948616604086015292851660608501529316608083015260a082019290925260c0015290565b6000602082840312156103a857600080fd5b5035919050565b6003811061034d5761034d610327565b89815261012081016103d08a6103af565b8960208301526103df8961033d565b60408201989098526001600160a01b039687166060820152948616608086015292851660a085015260c084019190915260e08301529091166101009091015292915050565b61042d8161033d565b9052565b61042d816103af565b8e81526001600160a01b038e811660208301528d1660408201526101c0810160078d1061046957610469610327565b8c606083015261047c608083018d610424565b61048960a083018c610431565b60c082019990995260e08101979097526101008701959095526101208601939093526101408501919091526101608401526101808301526101a090910152969550505050505056fea264697066735822122009545a4395c85819abc8b87ad548da43c91828a4bfc03f3b95ed71cf15b19ac564736f6c63430008190033","linkReferences":{}},"methodIdentifiers":{"makerAddresses(uint256)":"da52b037","makerInfoMap(address)":"739a8ce4","offerAddresses(uint256)":"d9e61b0e","offerId()":"21ce9f91","offerInfoMap(address)":"fc125c3f","stockAddresses(uint256)":"772543c2","stockInfoMap(address)":"8ef3b47f","tadleFactory()":"8ef1d7b4"},"id":70}