{"abi":[{"type":"function","name":"makerInfoMap","inputs":[{"name":"","type":"address","internalType":"address"}],"outputs":[{"name":"offerSettleType","type":"uint8","internalType":"enum OfferSettleType"},{"name":"authority","type":"address","internalType":"address"},{"name":"marketPlace","type":"address","internalType":"address"},{"name":"tokenAddress","type":"address","internalType":"address"},{"name":"originOffer","type":"address","internalType":"address"},{"name":"platformFee","type":"uint256","internalType":"uint256"},{"name":"eachTradeTax","type":"uint256","internalType":"uint256"}],"stateMutability":"view"},{"type":"function","name":"offerId","inputs":[],"outputs":[{"name":"","type":"uint256","internalType":"uint256"}],"stateMutability":"view"},{"type":"function","name":"offerInfoMap","inputs":[{"name":"","type":"address","internalType":"address"}],"outputs":[{"name":"id","type":"uint256","internalType":"uint256"},{"name":"authority","type":"address","internalType":"address"},{"name":"maker","type":"address","internalType":"address"},{"name":"offerStatus","type":"uint8","internalType":"enum OfferStatus"},{"name":"offerType","type":"uint8","internalType":"enum OfferType"},{"name":"abortOfferStatus","type":"uint8","internalType":"enum AbortOfferStatus"},{"name":"points","type":"uint256","internalType":"uint256"},{"name":"amount","type":"uint256","internalType":"uint256"},{"name":"collateralRate","type":"uint256","internalType":"uint256"},{"name":"usedPoints","type":"uint256","internalType":"uint256"},{"name":"tradeTax","type":"uint256","internalType":"uint256"},{"name":"settledPoints","type":"uint256","internalType":"uint256"},{"name":"settledPointTokenAmount","type":"uint256","internalType":"uint256"},{"name":"settledCollateralAmount","type":"uint256","internalType":"uint256"}],"stateMutability":"view"},{"type":"function","name":"stockInfoMap","inputs":[{"name":"","type":"address","internalType":"address"}],"outputs":[{"name":"id","type":"uint256","internalType":"uint256"},{"name":"stockStatus","type":"uint8","internalType":"enum StockStatus"},{"name":"stockType","type":"uint8","internalType":"enum StockType"},{"name":"authority","type":"address","internalType":"address"},{"name":"maker","type":"address","internalType":"address"},{"name":"preOffer","type":"address","internalType":"address"},{"name":"points","type":"uint256","internalType":"uint256"},{"name":"amount","type":"uint256","internalType":"uint256"},{"name":"offer","type":"address","internalType":"address"}],"stateMutability":"view"},{"type":"function","name":"tadleFactory","inputs":[],"outputs":[{"name":"","type":"address","internalType":"contract ITadleFactory"}],"stateMutability":"view"}],"bytecode":{"object":"0x6080604052348015600f57600080fd5b5061043a8061001f6000396000f3fe608060405234801561001057600080fd5b50600436106100575760003560e01c806321ce9f911461005c578063739a8ce4146100785780638ef1d7b4146100e95780638ef3b47f14610114578063fc125c3f14610195575b600080fd5b61006560325481565b6040519081526020015b60405180910390f35b6100d6610086366004610243565b60356020526000908152604090208054600182015460028301546003840154600485015460059095015460ff8516956101009095046001600160a01b039081169594811694938116939216919087565b60405161006f979695949392919061029c565b6000546100fc906001600160a01b031681565b6040516001600160a01b03909116815260200161006f565b610180610122366004610243565b6034602052600090815260409020805460018201546002830154600384015460048501546005860154600690960154949560ff808616966101008704909116956001600160a01b036201000090910481169581169481169392911689565b60405161006f999897969594939291906102f2565b6102296101a3366004610243565b603360205260009081526040902080546001820154600283015460038401546004850154600586015460068701546007880154600889015460098a0154600a909a015498996001600160a01b03988916999888169860ff600160a01b8a04811699600160a81b8104821699600160b01b909104909116979096909590949093909290918e565b60405161006f9e9d9c9b9a9998979695949392919061036d565b60006020828403121561025557600080fd5b81356001600160a01b038116811461026c57600080fd5b9392505050565b634e487b7160e01b600052602160045260246000fd5b6002811061029957610299610273565b50565b60e081016102a989610289565b9781526001600160a01b039687166020820152948616604086015292851660608501529316608083015260a082019290925260c0015290565b6003811061029957610299610273565b89815261012081016103038a6102e2565b89602083015261031289610289565b60408201989098526001600160a01b039687166060820152948616608086015292851660a085015260c084019190915260e08301529091166101009091015292915050565b61036081610289565b9052565b610360816102e2565b8e81526001600160a01b038e811660208301528d1660408201526101c0810160078d1061039c5761039c610273565b8c60608301526103af608083018d610357565b6103bc60a083018c610364565b60c082019990995260e08101979097526101008701959095526101208601939093526101408501919091526101608401526101808301526101a090910152969550505050505056fea2646970667358221220e57626981b459fafb19f7652fbe0842274b4ff163739cf2cf97f6d350907293764736f6c63430008190033","linkReferences":{}},"methodIdentifiers":{"makerInfoMap(address)":"739a8ce4","offerId()":"21ce9f91","offerInfoMap(address)":"fc125c3f","stockInfoMap(address)":"8ef3b47f","tadleFactory()":"8ef1d7b4"},"id":54}