{"abi":[{"type":"constructor","inputs":[],"stateMutability":"nonpayable"},{"type":"function","name":"abortAskOffer","inputs":[{"name":"_stock","type":"address","internalType":"address"},{"name":"_offer","type":"address","internalType":"address"}],"outputs":[],"stateMutability":"nonpayable"},{"type":"function","name":"abortBidTaker","inputs":[{"name":"_stock","type":"address","internalType":"address"},{"name":"_offer","type":"address","internalType":"address"}],"outputs":[],"stateMutability":"nonpayable"},{"type":"function","name":"closeOffer","inputs":[{"name":"_stock","type":"address","internalType":"address"},{"name":"_offer","type":"address","internalType":"address"}],"outputs":[],"stateMutability":"nonpayable"},{"type":"function","name":"createOffer","inputs":[{"name":"params","type":"tuple","internalType":"struct CreateOfferParams","components":[{"name":"marketPlace","type":"address","internalType":"address"},{"name":"tokenAddress","type":"address","internalType":"address"},{"name":"points","type":"uint256","internalType":"uint256"},{"name":"amount","type":"uint256","internalType":"uint256"},{"name":"collateralRate","type":"uint256","internalType":"uint256"},{"name":"eachTradeTax","type":"uint256","internalType":"uint256"},{"name":"offerType","type":"uint8","internalType":"enum OfferType"},{"name":"offerSettleType","type":"uint8","internalType":"enum OfferSettleType"}]}],"outputs":[{"name":"","type":"tuple","internalType":"struct PreMarktes.ReturnAddresses","components":[{"name":"makerAddr","type":"address","internalType":"address"},{"name":"offerAddr","type":"address","internalType":"address"},{"name":"stockAddr","type":"address","internalType":"address"}]}],"stateMutability":"payable"},{"type":"function","name":"createTaker","inputs":[{"name":"_offer","type":"address","internalType":"address"},{"name":"_points","type":"uint256","internalType":"uint256"}],"outputs":[{"name":"","type":"address","internalType":"address"}],"stateMutability":"payable"},{"type":"function","name":"getMakerAddresses","inputs":[],"outputs":[{"name":"","type":"address[]","internalType":"address[]"}],"stateMutability":"view"},{"type":"function","name":"getMakerInfo","inputs":[{"name":"_maker","type":"address","internalType":"address"}],"outputs":[{"name":"_makerInfo","type":"tuple","internalType":"struct MakerInfo","components":[{"name":"offerSettleType","type":"uint8","internalType":"enum OfferSettleType"},{"name":"authority","type":"address","internalType":"address"},{"name":"marketPlace","type":"address","internalType":"address"},{"name":"tokenAddress","type":"address","internalType":"address"},{"name":"originOffer","type":"address","internalType":"address"},{"name":"platformFee","type":"uint256","internalType":"uint256"},{"name":"eachTradeTax","type":"uint256","internalType":"uint256"}]}],"stateMutability":"view"},{"type":"function","name":"getOfferAddresses","inputs":[],"outputs":[{"name":"","type":"address[]","internalType":"address[]"}],"stateMutability":"view"},{"type":"function","name":"getOfferInfo","inputs":[{"name":"_offer","type":"address","internalType":"address"}],"outputs":[{"name":"_offerInfo","type":"tuple","internalType":"struct OfferInfo","components":[{"name":"id","type":"uint256","internalType":"uint256"},{"name":"authority","type":"address","internalType":"address"},{"name":"maker","type":"address","internalType":"address"},{"name":"offerStatus","type":"uint8","internalType":"enum OfferStatus"},{"name":"offerType","type":"uint8","internalType":"enum OfferType"},{"name":"abortOfferStatus","type":"uint8","internalType":"enum AbortOfferStatus"},{"name":"points","type":"uint256","internalType":"uint256"},{"name":"amount","type":"uint256","internalType":"uint256"},{"name":"collateralRate","type":"uint256","internalType":"uint256"},{"name":"usedPoints","type":"uint256","internalType":"uint256"},{"name":"tradeTax","type":"uint256","internalType":"uint256"},{"name":"settledPoints","type":"uint256","internalType":"uint256"},{"name":"settledPointTokenAmount","type":"uint256","internalType":"uint256"},{"name":"settledCollateralAmount","type":"uint256","internalType":"uint256"}]}],"stateMutability":"view"},{"type":"function","name":"getStockAddresses","inputs":[],"outputs":[{"name":"","type":"address[]","internalType":"address[]"}],"stateMutability":"view"},{"type":"function","name":"getStockInfo","inputs":[{"name":"_stock","type":"address","internalType":"address"}],"outputs":[{"name":"_stockInfo","type":"tuple","internalType":"struct StockInfo","components":[{"name":"id","type":"uint256","internalType":"uint256"},{"name":"stockStatus","type":"uint8","internalType":"enum StockStatus"},{"name":"stockType","type":"uint8","internalType":"enum StockType"},{"name":"authority","type":"address","internalType":"address"},{"name":"maker","type":"address","internalType":"address"},{"name":"preOffer","type":"address","internalType":"address"},{"name":"points","type":"uint256","internalType":"uint256"},{"name":"amount","type":"uint256","internalType":"uint256"},{"name":"offer","type":"address","internalType":"address"}]}],"stateMutability":"view"},{"type":"function","name":"initializeOwnership","inputs":[{"name":"_newOwner","type":"address","internalType":"address"}],"outputs":[],"stateMutability":"nonpayable"},{"type":"function","name":"listOffer","inputs":[{"name":"_stock","type":"address","internalType":"address"},{"name":"_amount","type":"uint256","internalType":"uint256"},{"name":"_collateralRate","type":"uint256","internalType":"uint256"}],"outputs":[{"name":"","type":"address","internalType":"address"}],"stateMutability":"payable"},{"type":"function","name":"makerAddresses","inputs":[{"name":"","type":"uint256","internalType":"uint256"}],"outputs":[{"name":"","type":"address","internalType":"address"}],"stateMutability":"view"},{"type":"function","name":"makerInfoMap","inputs":[{"name":"","type":"address","internalType":"address"}],"outputs":[{"name":"offerSettleType","type":"uint8","internalType":"enum OfferSettleType"},{"name":"authority","type":"address","internalType":"address"},{"name":"marketPlace","type":"address","internalType":"address"},{"name":"tokenAddress","type":"address","internalType":"address"},{"name":"originOffer","type":"address","internalType":"address"},{"name":"platformFee","type":"uint256","internalType":"uint256"},{"name":"eachTradeTax","type":"uint256","internalType":"uint256"}],"stateMutability":"view"},{"type":"function","name":"offerAddresses","inputs":[{"name":"","type":"uint256","internalType":"uint256"}],"outputs":[{"name":"","type":"address","internalType":"address"}],"stateMutability":"view"},{"type":"function","name":"offerId","inputs":[],"outputs":[{"name":"","type":"uint256","internalType":"uint256"}],"stateMutability":"view"},{"type":"function","name":"offerInfoMap","inputs":[{"name":"","type":"address","internalType":"address"}],"outputs":[{"name":"id","type":"uint256","internalType":"uint256"},{"name":"authority","type":"address","internalType":"address"},{"name":"maker","type":"address","internalType":"address"},{"name":"offerStatus","type":"uint8","internalType":"enum OfferStatus"},{"name":"offerType","type":"uint8","internalType":"enum OfferType"},{"name":"abortOfferStatus","type":"uint8","internalType":"enum AbortOfferStatus"},{"name":"points","type":"uint256","internalType":"uint256"},{"name":"amount","type":"uint256","internalType":"uint256"},{"name":"collateralRate","type":"uint256","internalType":"uint256"},{"name":"usedPoints","type":"uint256","internalType":"uint256"},{"name":"tradeTax","type":"uint256","internalType":"uint256"},{"name":"settledPoints","type":"uint256","internalType":"uint256"},{"name":"settledPointTokenAmount","type":"uint256","internalType":"uint256"},{"name":"settledCollateralAmount","type":"uint256","internalType":"uint256"}],"stateMutability":"view"},{"type":"function","name":"owner","inputs":[],"outputs":[{"name":"","type":"address","internalType":"address"}],"stateMutability":"view"},{"type":"function","name":"paused","inputs":[],"outputs":[{"name":"","type":"bool","internalType":"bool"}],"stateMutability":"view"},{"type":"function","name":"relistOffer","inputs":[{"name":"_stock","type":"address","internalType":"address"},{"name":"_offer","type":"address","internalType":"address"}],"outputs":[],"stateMutability":"payable"},{"type":"function","name":"renounceOwnership","inputs":[],"outputs":[],"stateMutability":"nonpayable"},{"type":"function","name":"rescue","inputs":[{"name":"to","type":"address","internalType":"address"},{"name":"token","type":"address","internalType":"address"},{"name":"amount","type":"uint256","internalType":"uint256"}],"outputs":[],"stateMutability":"nonpayable"},{"type":"function","name":"setPauseStatus","inputs":[{"name":"pauseSatus","type":"bool","internalType":"bool"}],"outputs":[],"stateMutability":"nonpayable"},{"type":"function","name":"settleAskTaker","inputs":[{"name":"_offer","type":"address","internalType":"address"},{"name":"_stock","type":"address","internalType":"address"},{"name":"_settledPoints","type":"uint256","internalType":"uint256"},{"name":"_settledPointTokenAmount","type":"uint256","internalType":"uint256"}],"outputs":[],"stateMutability":"nonpayable"},{"type":"function","name":"settledAskOffer","inputs":[{"name":"_offer","type":"address","internalType":"address"},{"name":"_settledPoints","type":"uint256","internalType":"uint256"},{"name":"_settledPointTokenAmount","type":"uint256","internalType":"uint256"}],"outputs":[],"stateMutability":"nonpayable"},{"type":"function","name":"stockAddresses","inputs":[{"name":"","type":"uint256","internalType":"uint256"}],"outputs":[{"name":"","type":"address","internalType":"address"}],"stateMutability":"view"},{"type":"function","name":"stockInfoMap","inputs":[{"name":"","type":"address","internalType":"address"}],"outputs":[{"name":"id","type":"uint256","internalType":"uint256"},{"name":"stockStatus","type":"uint8","internalType":"enum StockStatus"},{"name":"stockType","type":"uint8","internalType":"enum StockType"},{"name":"authority","type":"address","internalType":"address"},{"name":"maker","type":"address","internalType":"address"},{"name":"preOffer","type":"address","internalType":"address"},{"name":"points","type":"uint256","internalType":"uint256"},{"name":"amount","type":"uint256","internalType":"uint256"},{"name":"offer","type":"address","internalType":"address"}],"stateMutability":"view"},{"type":"function","name":"tadleFactory","inputs":[],"outputs":[{"name":"","type":"address","internalType":"contract ITadleFactory"}],"stateMutability":"view"},{"type":"function","name":"transferOwnership","inputs":[{"name":"newOwner","type":"address","internalType":"address"}],"outputs":[],"stateMutability":"nonpayable"},{"type":"function","name":"updateOfferStatus","inputs":[{"name":"_offer","type":"address","internalType":"address"},{"name":"_status","type":"uint8","internalType":"enum OfferStatus"}],"outputs":[],"stateMutability":"nonpayable"},{"type":"function","name":"updateStockStatus","inputs":[{"name":"_stock","type":"address","internalType":"address"},{"name":"_status","type":"uint8","internalType":"enum StockStatus"}],"outputs":[],"stateMutability":"nonpayable"},{"type":"event","name":"AbortAskOffer","inputs":[{"name":"offer","type":"address","indexed":true,"internalType":"address"},{"name":"authority","type":"address","indexed":true,"internalType":"address"}],"anonymous":false},{"type":"event","name":"AbortBidTaker","inputs":[{"name":"stock","type":"address","indexed":true,"internalType":"address"},{"name":"authority","type":"address","indexed":true,"internalType":"address"}],"anonymous":false},{"type":"event","name":"CloseOffer","inputs":[{"name":"offer","type":"address","indexed":true,"internalType":"address"},{"name":"authority","type":"address","indexed":true,"internalType":"address"}],"anonymous":false},{"type":"event","name":"CreateOffer","inputs":[{"name":"_offer","type":"address","indexed":true,"internalType":"address"},{"name":"_maker","type":"address","indexed":true,"internalType":"address"},{"name":"_stock","type":"address","indexed":true,"internalType":"address"},{"name":"_marketPlace","type":"address","indexed":false,"internalType":"address"},{"name":"_authority","type":"address","indexed":false,"internalType":"address"},{"name":"_points","type":"uint256","indexed":false,"internalType":"uint256"},{"name":"_amount","type":"uint256","indexed":false,"internalType":"uint256"}],"anonymous":false},{"type":"event","name":"CreateTaker","inputs":[{"name":"offer","type":"address","indexed":true,"internalType":"address"},{"name":"authority","type":"address","indexed":false,"internalType":"address"},{"name":"stock","type":"address","indexed":false,"internalType":"address"},{"name":"points","type":"uint256","indexed":false,"internalType":"uint256"},{"name":"amount","type":"uint256","indexed":false,"internalType":"uint256"},{"name":"tradeTax","type":"uint256","indexed":false,"internalType":"uint256"},{"name":"platformFee","type":"uint256","indexed":false,"internalType":"uint256"}],"anonymous":false},{"type":"event","name":"ListOffer","inputs":[{"name":"offer","type":"address","indexed":true,"internalType":"address"},{"name":"stock","type":"address","indexed":true,"internalType":"address"},{"name":"authority","type":"address","indexed":false,"internalType":"address"},{"name":"points","type":"uint256","indexed":false,"internalType":"uint256"},{"name":"amount","type":"uint256","indexed":false,"internalType":"uint256"}],"anonymous":false},{"type":"event","name":"OfferStatusUpdated","inputs":[{"name":"_offer","type":"address","indexed":false,"internalType":"address"},{"name":"_status","type":"uint8","indexed":false,"internalType":"enum OfferStatus"}],"anonymous":false},{"type":"event","name":"OwnershipTransferred","inputs":[{"name":"previousOwner","type":"address","indexed":true,"internalType":"address"},{"name":"newOwner","type":"address","indexed":true,"internalType":"address"}],"anonymous":false},{"type":"event","name":"Paused","inputs":[{"name":"account","type":"address","indexed":false,"internalType":"address"}],"anonymous":false},{"type":"event","name":"ReferralBonus","inputs":[{"name":"stock","type":"address","indexed":true,"internalType":"address"},{"name":"authority","type":"address","indexed":false,"internalType":"address"},{"name":"referrer","type":"address","indexed":false,"internalType":"address"},{"name":"authorityReferralBonus","type":"uint256","indexed":false,"internalType":"uint256"},{"name":"referrerReferralBonus","type":"uint256","indexed":false,"internalType":"uint256"},{"name":"tradingVolume","type":"uint256","indexed":false,"internalType":"uint256"},{"name":"tradingFee","type":"uint256","indexed":false,"internalType":"uint256"}],"anonymous":false},{"type":"event","name":"RelistOffer","inputs":[{"name":"offer","type":"address","indexed":true,"internalType":"address"},{"name":"authority","type":"address","indexed":true,"internalType":"address"}],"anonymous":false},{"type":"event","name":"Rescue","inputs":[{"name":"to","type":"address","indexed":false,"internalType":"address"},{"name":"token","type":"address","indexed":false,"internalType":"address"},{"name":"amount","type":"uint256","indexed":false,"internalType":"uint256"}],"anonymous":false},{"type":"event","name":"SetPauseStatus","inputs":[{"name":"status","type":"bool","indexed":false,"internalType":"bool"}],"anonymous":false},{"type":"event","name":"SettledAskOffer","inputs":[{"name":"_offer","type":"address","indexed":false,"internalType":"address"},{"name":"_settledPoints","type":"uint256","indexed":false,"internalType":"uint256"},{"name":"_settledPointTokenAmount","type":"uint256","indexed":false,"internalType":"uint256"}],"anonymous":false},{"type":"event","name":"SettledBidTaker","inputs":[{"name":"_offer","type":"address","indexed":false,"internalType":"address"},{"name":"_stock","type":"address","indexed":false,"internalType":"address"},{"name":"_settledPoints","type":"uint256","indexed":false,"internalType":"uint256"},{"name":"_settledPointTokenAmount","type":"uint256","indexed":false,"internalType":"uint256"}],"anonymous":false},{"type":"event","name":"StockStatusUpdated","inputs":[{"name":"_stock","type":"address","indexed":false,"internalType":"address"},{"name":"_status","type":"uint8","indexed":false,"internalType":"enum StockStatus"}],"anonymous":false},{"type":"event","name":"Unpaused","inputs":[{"name":"account","type":"address","indexed":false,"internalType":"address"}],"anonymous":false},{"type":"error","name":"AlreadyInitialized","inputs":[]},{"type":"error","name":"AmountIsZero","inputs":[]},{"type":"error","name":"CallerIsNotDeliveryPlace","inputs":[]},{"type":"error","name":"CallerIsNotRelatedContracts","inputs":[{"name":"","type":"address","internalType":"address"}]},{"type":"error","name":"EnforcedPause","inputs":[]},{"type":"error","name":"ExpectedPause","inputs":[]},{"type":"error","name":"InvalidAbortOfferStatus","inputs":[{"name":"_targetStatus","type":"uint8","internalType":"enum AbortOfferStatus"},{"name":"_currentStatus","type":"uint8","internalType":"enum AbortOfferStatus"}]},{"type":"error","name":"InvalidCollateralRate","inputs":[]},{"type":"error","name":"InvalidEachTradeTaxRate","inputs":[]},{"type":"error","name":"InvalidOffer","inputs":[]},{"type":"error","name":"InvalidOfferAccount","inputs":[{"name":"_targetAccount","type":"address","internalType":"address"},{"name":"_currentAccount","type":"address","internalType":"address"}]},{"type":"error","name":"InvalidOfferStatus","inputs":[]},{"type":"error","name":"InvalidOfferType","inputs":[{"name":"_targetType","type":"uint8","internalType":"enum OfferType"},{"name":"_currentType","type":"uint8","internalType":"enum OfferType"}]},{"type":"error","name":"InvalidStockStatus","inputs":[{"name":"_targetStatus","type":"uint8","internalType":"enum StockStatus"},{"name":"_currentStatus","type":"uint8","internalType":"enum StockStatus"}]},{"type":"error","name":"InvalidStockType","inputs":[{"name":"_targetType","type":"uint8","internalType":"enum StockType"},{"name":"_currentType","type":"uint8","internalType":"enum StockType"}]},{"type":"error","name":"MakerAlreadyExist","inputs":[]},{"type":"error","name":"MathOverflowedMulDiv","inputs":[]},{"type":"error","name":"NotEnoughPoints","inputs":[{"name":"_totalPoints","type":"uint256","internalType":"uint256"},{"name":"_usedPoints","type":"uint256","internalType":"uint256"},{"name":"_points","type":"uint256","internalType":"uint256"}]},{"type":"error","name":"OfferAlreadyExist","inputs":[]},{"type":"error","name":"OwnableInvalidOwner","inputs":[{"name":"owner","type":"address","internalType":"address"}]},{"type":"error","name":"OwnableUnauthorizedAccount","inputs":[{"name":"account","type":"address","internalType":"address"}]},{"type":"error","name":"StockAlreadyExist","inputs":[]},{"type":"error","name":"TransferFailed","inputs":[]},{"type":"error","name":"Unauthorized","inputs":[]}],"bytecode":{"object":"0x6080604052348015600f57600080fd5b503380603557604051631e4fbdf760e01b81526000600482015260240160405180910390fd5b603c81604e565b506099805460ff60a01b1916905560a0565b609980546001600160a01b038381166001600160a01b0319831681179093556040519116919082907f8be0079c531659141344cd1fd0a4f28419497f9722a3daafe3b4186f6b6457e090600090a35050565b614ac1806100af6000396000f3fe6080604052600436106101e35760003560e01c80638ef1d7b411610102578063d19b5e6411610095578063e9ba063c11610064578063e9ba063c14610651578063f17f9c4314610664578063f2fde38b146106a9578063fc125c3f146106c957600080fd5b8063d19b5e64146105de578063d1cda82c146105f1578063d9e61b0e14610611578063da52b0371461063157600080fd5b8063bc1c1c6c116100d1578063bc1c1c6c1461055c578063c38bb53714610571578063c9ac4f6d14610591578063cfbd9a41146105b157600080fd5b80638ef1d7b4146104795780638ef3b47f146104995780639a99dd9814610527578063b5ec43751461053c57600080fd5b80635cabfd081161017a578063715018a611610149578063715018a6146103a8578063739a8ce4146103bd578063772543c21461043b5780638da5cb5b1461045b57600080fd5b80635cabfd08146103285780635cd9205f146103485780635d27d5fe1461036857806362f431011461038857600080fd5b806321ce9f91116101b657806321ce9f911461028d578063310b1fe4146102b1578063543a1178146102d15780635c975abb146102fe57600080fd5b806306cdc841146101e85780630c0bd87d1461021e5780630cea99fa1461024057806320ff430b1461026b575b600080fd5b3480156101f457600080fd5b506102086102033660046141b3565b610784565b604051610215919061422c565b60405180910390f35b34801561022a57600080fd5b5061023361093c565b6040516102159190614302565b61025361024e36600461434f565b61099e565b6040516001600160a01b039091168152602001610215565b34801561027757600080fd5b5061028b610286366004614384565b6110d8565b005b34801561029957600080fd5b506102a360325481565b604051908152602001610215565b3480156102bd57600080fd5b5061028b6102cc36600461434f565b611185565b3480156102dd57600080fd5b506102f16102ec3660046141b3565b6112bb565b60405161021591906143c5565b34801561030a57600080fd5b50609954600160a01b900460ff166040519015158152602001610215565b34801561033457600080fd5b5061028b61034336600461447f565b6113fb565b34801561035457600080fd5b5061028b6103633660046141b3565b611892565b34801561037457600080fd5b5061028b6103833660046144b8565b6118d8565b34801561039457600080fd5b5061028b6103a33660046144fe565b611a43565b3480156103b457600080fd5b5061028b611b70565b3480156103c957600080fd5b506104286103d83660046141b3565b60356020526000908152604090208054600182015460028301546003840154600485015460059095015460ff8516956101009095046001600160a01b039081169594811694938116939216919087565b6040516102159796959493929190614530565b34801561044757600080fd5b50610253610456366004614576565b611b84565b34801561046757600080fd5b506099546001600160a01b0316610253565b34801561048557600080fd5b50600054610253906001600160a01b031681565b3480156104a557600080fd5b506105126104b43660046141b3565b6034602052600090815260409020805460018201546002830154600384015460048501546005860154600690960154949560ff808616966101008704909116956001600160a01b036201000090910481169581169481169392911689565b6040516102159998979695949392919061458f565b34801561053357600080fd5b50610233611bae565b34801561054857600080fd5b5061028b61055736600461447f565b611c0e565b34801561056857600080fd5b50610233611e84565b34801561057d57600080fd5b5061028b61058c366004614602565b611ee4565b34801561059d57600080fd5b5061028b6105ac36600461447f565b611f3f565b3480156105bd57600080fd5b506105d16105cc3660046141b3565b612214565b604051610215919061461f565b6102536105ec366004614687565b6122f1565b3480156105fd57600080fd5b5061028b61060c3660046146b3565b6128c1565b34801561061d57600080fd5b5061025361062c366004614576565b6129e3565b34801561063d57600080fd5b5061025361064c366004614576565b6129f3565b61028b61065f36600461447f565b612a03565b6106776106723660046146e5565b612cd7565b6040805182516001600160a01b0390811682526020808501518216908301529282015190921690820152606001610215565b3480156106b557600080fd5b5061028b6106c43660046141b3565b6135f1565b3480156106d557600080fd5b5061076a6106e43660046141b3565b603360205260009081526040902080546001820154600283015460038401546004850154600586015460068701546007880154600889015460098a0154600a909a015498996001600160a01b03988916999888169860ff600160a01b8a04811699600160a81b8104821699600160b01b909104909116979096909590949093909290918e565b6040516102159e9d9c9b9a999897969594939291906146fe565b6107f6604080516101c0810182526000808252602082018190529181018290529060608201908152602001600081526020016000815260200160008152602001600081526020016000815260200160008152602001600081526020016000815260200160008152602001600081525090565b6001600160a01b0382811660009081526033602090815260409182902082516101c081018452815481526001820154851692810192909252600281015493841692820192909252916060830190600160a01b900460ff16600681111561085e5761085e6141d0565b600681111561086f5761086f6141d0565b81526020016002820160159054906101000a900460ff166001811115610897576108976141d0565b60018111156108a8576108a86141d0565b81526020016002820160169054906101000a900460ff1660028111156108d0576108d06141d0565b60028111156108e1576108e16141d0565b815260038201546020820152600482015460408201526005820154606082015260068201546080820152600782015460a0820152600882015460c0820152600982015460e0820152600a909101546101009091015292915050565b6060609780548060200260200160405190810160405280929190818152602001828054801561099457602002820191906000526020600020905b81546001600160a01b03168152600190910190602001808311610976575b5050505050905090565b6000826000036109c1576040516310eb483f60e21b815260040160405180910390fd5b6127108210156109e45760405163731b1b8d60e11b815260040160405180910390fd5b6001600160a01b0384811660009081526034602052604090206001810154909133620100009092041614610a2a576040516282b42960e81b815260040160405180910390fd5b60038101546001600160a01b0390811660009081526033602090815260408083206002810154851684526035909252822082549193909291610a6c9116613623565b6001830154604051632b2b520160e21b81526001600160a01b0391821660048201529192506000919083169063acad48049060240160c060405180830381865afa158015610abe573d6000803e3d6000fd5b505050506040513d601f19601f82011682018060405250810190610ae2919061478e565b9050610af081426001613690565b60068501546001600160a01b031615610b1c5760405163eb12446160e01b815260040160405180910390fd5b60018086810154610100900460ff1690811115610b3b57610b3b6141d0565b14610b7257600185810154604051633b23391160e21b8152610b699291610100900460ff1690600401614835565b60405180910390fd5b6001835460ff166001811115610b8a57610b8a6141d0565b03610d095760038301546001600160a01b03908116600081815260336020908152604080832081516101c0810183528154815260018201548716938101939093526002810154958616918301919091529293919290916060830190600160a01b900460ff166006811115610c0057610c006141d0565b6006811115610c1157610c116141d0565b81526020016002820160159054906101000a900460ff166001811115610c3957610c396141d0565b6001811115610c4a57610c4a6141d0565b81526020016002820160169054906101000a900460ff166002811115610c7257610c726141d0565b6002811115610c8357610c836141d0565b815260200160038201548152602001600482015481526020016005820154815260200160068201548152602001600782015481526020016008820154815260200160098201548152602001600a8201548152505090508061010001518914610cfe5760405163731b1b8d60e11b815260040160405180910390fd5b600160a09190910152505b6000835460ff166001811115610d2157610d216141d0565b03610de2576000610d4b8560020160159054906101000a900460ff1686600501548b600180613715565b6000805491925090610d65906001600160a01b0316613786565b90506001600160a01b038116638e506349343360028901546040516001600160e01b031960e086901b168152610dad92916001600160a01b031690889060009060040161485b565b6000604051808303818588803b158015610dc657600080fd5b505af1158015610dda573d6000803e3d6000fd5b505050505050505b6000610df186600001546137b6565b6001600160a01b038082166000908152603360205260409020600101549192501615610e305760405163eb12446160e01b815260040160405180910390fd5b604080516101c081019091528654815260208101336001600160a01b0390811682526002880154166020820152604001600181526020018660020160159054906101000a900460ff166001811115610e8a57610e8a6141d0565b815260200160008152600488015460208083019190915260408083018d905260608084018d905260006080850181905260a0850181905260c0850181905260e085018190526101009094018490526001600160a01b038087168552603384529382902085518155928501516001840180549186166001600160a01b0319928316179055918501516002840180549190951692811683178555908501519293916001600160a81b031990911617600160a01b836006811115610f4d57610f4d6141d0565b0217905550608082015160028201805460ff60a81b1916600160a81b836001811115610f7b57610f7b6141d0565b021790555060a08201518160020160166101000a81548160ff02191690836002811115610faa57610faa6141d0565b021790555060c0820151600382015560e0820151600482015561010082015160058201556101208201516006808301919091556101408301516007830155610160830151600883015561018083015160098301556101a090920151600a90910155860180546001600160a01b0319166001600160a01b03838116918217909255908b16907f1f752904b26564a71089509e5f90036e434f6e7110a73bf6a4b47debf4eb24273360048a0154604080516001600160a01b039093168352602083019190915281018d905260600160405180910390a3609680546001810182556000919091527f6aa7ec8ac2a999a90ce6c78668dffe4e487e2576a97ca366ec81ecb335af90d00180546001600160a01b0319166001600160a01b038316179055955050505050505b9392505050565b6110e0613806565b6001600160a01b03821661112a576040516001600160a01b0384169082156108fc029083906000818181858888f19350505050158015611124573d6000803e3d6000fd5b50611135565b611135828483613833565b604080516001600160a01b038086168252841660208201529081018290527fe01920728668d89f092ef9cb92036bad90964bb622eec508d2c3ffe1d582efb29060600160405180910390a1505050565b6000546001600160a01b03163360405163224c50cb60e21b8152600360048201526000906001600160a01b03841690638931432c90602401602060405180830381865afa1580156111da573d6000803e3d6000fd5b505050506040513d601f19601f820116820180604052508101906111fe9190614884565b9050806001600160a01b0316826001600160a01b0316146112325760405163252e956960e11b815260040160405180910390fd5b6001600160a01b0386166000818152603360209081526040918290206008810189905560098101889055600281018054600360a11b60ff60a01b199091161790558251938452908301889052908201869052907f1c863fdc85ca43c5cb20d0f7922c708f83963478f06d3c14ec837f90997a79989060600160405180910390a150505050505050565b61130b6040805161012081019091526000808252602082019081526020016000815260006020820181905260408201819052606082018190526080820181905260a0820181905260c09091015290565b6001600160a01b03821660009081526034602090815260409182902082516101208101909352805483526001810154909183019060ff166002811115611353576113536141d0565b6002811115611364576113646141d0565b81526020016001820160019054906101000a900460ff16600181111561138c5761138c6141d0565b600181111561139d5761139d6141d0565b815260018201546001600160a01b03620100009091048116602083015260028301548116604083015260038301548116606083015260048301546080830152600583015460a083015260069092015490911660c09091015292915050565b6001600160a01b0382811660009081526034602090815260408083209385168352603390915290203360018201546001600160a01b03908116911614611453576040516282b42960e81b815260040160405180910390fd5b60068201546001600160a01b0384811691161461149c57600682015460405163259935ab60e01b81526001600160a01b0391821660048201529084166024820152604401610b69565b60006002820154600160a81b900460ff1660018111156114be576114be6141d0565b146114f25760008160020160159054906101000a900460ff1660405163ebc1b59960e01b8152600401610b69929190614835565b6000600282810154600160b01b900460ff1690811115611514576115146141d0565b146115485760008160020160169054906101000a900460ff16604051630587038160e01b8152600401610b699291906148a1565b60016002820154600160a01b900460ff16600681111561156a5761156a6141d0565b14158015611598575060036002820154600160a01b900460ff166006811115611595576115956141d0565b14155b156115b6576040516329de90c560e11b815260040160405180910390fd5b60028101546001600160a01b031660009081526035602052604090206001815460ff1660018111156115ea576115ea6141d0565b148015611603575060038301546001600160a01b031615155b1561162157604051631771cc0160e11b815260040160405180910390fd5b60008054611637906001600160a01b0316613623565b6001830154604051632b2b520160e21b81526001600160a01b0391821660048201529192506000919083169063acad48049060240160c060405180830381865afa158015611689573d6000803e3d6000fd5b505050506040513d601f19601f820116820180604052508101906116ad919061478e565b90506116bb81426001613690565b600060016002860154600160a01b900460ff1660068111156116df576116df6141d0565b036116ef5750600484015461170e565b60068501546003860154600487015461170b9290916000613921565b90505b60006117348660020160159054906101000a900460ff1687600501548460016000613715565b9050600061175c8760060154886003015460018a60040154613921909392919063ffffffff16565b905060006117848860020160159054906101000a900460ff1689600501548460006001613715565b90506000818411156117a15761179a82856148d0565b90506117a5565b5060005b600080546117bb906001600160a01b0316613786565b90506001600160a01b0381166394e73d4160043360028d01546040516001600160e01b031960e086901b1681526118029392916001600160a01b03169088906004016148e3565b600060405180830381600087803b15801561181c57600080fd5b505af1158015611830573d6000803e3d6000fd5b5050505060028a01805462ff00ff60a01b19166201000360a11b17905560405133906001600160a01b038e16907f44c8758b12c08563c75c661ea58392b27d85df40fc349e1051f6e432b46508c090600090a350505050505050505050505050565b60006118a66099546001600160a01b031690565b6001600160a01b0316146118cc5760405162dc149f60e41b815260040160405180910390fd5b6118d581613966565b50565b6000546001600160a01b03163360405163224c50cb60e21b8152600360048201526000906001600160a01b03841690638931432c90602401602060405180830381865afa15801561192d573d6000803e3d6000fd5b505050506040513d601f19601f820116820180604052508101906119519190614884565b9050806001600160a01b0316826001600160a01b0316146119855760405163252e956960e11b815260040160405180910390fd5b6001600160a01b038087166000908152603460209081526040808320938b1683526033909152902060088101546119bd90889061491a565b600882015560098101546119d290879061491a565b600982015560018201805460ff19166002179055604080516001600160a01b038b811682528a166020820152908101889052606081018790527f9c1c932372f96d508824b8e8237e0a15ef9a764c77657718f61fc92771d3bc339060800160405180910390a1505050505050505050565b6000546001600160a01b03163360405163224c50cb60e21b8152600360048201526000906001600160a01b03841690638931432c90602401602060405180830381865afa158015611a98573d6000803e3d6000fd5b505050506040513d601f19601f82011682018060405250810190611abc9190614884565b9050806001600160a01b0316826001600160a01b031614611af05760405163252e956960e11b815260040160405180910390fd5b6001600160a01b038516600090815260346020526040902060018082018054879260ff1990911690836002811115611b2a57611b2a6141d0565b02179055507f0ac45c5751295d708f6d47545480eda6fd7623a602ac1a65ebc67483fd3235568686604051611b6092919061492d565b60405180910390a1505050505050565b611b78613806565b611b826000613966565b565b60978181548110611b9457600080fd5b6000918252602090912001546001600160a01b0316905081565b60606096805480602002602001604051908101604052809291908181526020018280548015610994576020028201919060005260206000209081546001600160a01b03168152600190910190602001808311610976575050505050905090565b6001600160a01b0382811660009081526034602090815260408083209385168352603390915290203360018301546201000090046001600160a01b03908116911614611c6c576040516282b42960e81b815260040160405180910390fd5b60038201546001600160a01b03848116911614611cb557600382015460405163259935ab60e01b81526001600160a01b0391821660048201529084166024820152604401610b69565b60018083015460ff166002811115611ccf57611ccf6141d0565b14611cf8576001828101546040516305a7e4c560e21b8152610b69929160ff16906004016148a1565b60028082810154600160b01b900460ff1690811115611d1957611d196141d0565b14611d4957600281810154604051630587038160e01b8152610b699291600160b01b900460ff16906004016148a1565b600381015460048083015490840154600092611d659284613921565b90506000611d8c8360020160159054906101000a900460ff16846005015484600080613715565b60028401546001600160a01b0390811660009081526035602052604081208154939450929091611dbc9116613786565b90506001600160a01b0381166394e73d4160043360028601546040516001600160e01b031960e086901b168152611e039392916001600160a01b03169089906004016148e3565b600060405180830381600087803b158015611e1d57600080fd5b505af1158015611e31573d6000803e3d6000fd5b5050505060018601805460ff1916600217905560405133906001600160a01b038916907fc40bbf1b679caa8e74b6582ad1ede071006e9a8f4f676da5fbbeee9d02a45ccd90600090a35050505050505050565b60606098805480602002602001604051908101604052809291908181526020018280548015610994576020028201919060005260206000209081546001600160a01b03168152600190910190602001808311610976575050505050905090565b611eec613806565b8015611eff57611efa6139b8565b611f07565b611f07613a18565b60405181151581527f6c82eb8f861cdde5f2fdbdc7c547ba478de85dd25a1697ec176cec341e5158979060200160405180910390a150565b6001600160a01b03808216600081815260336020908152604080832087861684526034909252909120600681015491939092911614611faa57600681015460405163259935ab60e01b81526001600160a01b0391821660048201529084166024820152604401610b69565b60018201546001600160a01b03163314611fd6576040516282b42960e81b815260040160405180910390fd5b60016002830154600160a01b900460ff166006811115611ff857611ff86141d0565b14612016576040516329de90c560e11b815260040160405180910390fd5b60028201546001600160a01b039081166000908152603560205260408120815490926120429116613623565b6001830154604051632b2b520160e21b81526001600160a01b0391821660048201529192506000919083169063acad48049060240160c060405180830381865afa158015612094573d6000803e3d6000fd5b505050506040513d601f19601f820116820180604052508101906120b8919061478e565b90506120c681426001613690565b6000835460ff1660018111156120de576120de6141d0565b14806120f5575060038401546001600160a01b0316155b156121c057600061212a8660020160159054906101000a900460ff168760040154886003015489600601548a60050154613a54565b6000805491925090612144906001600160a01b0316613786565b90506001600160a01b0381166394e73d4160043360028901546040516001600160e01b031960e086901b16815261218b9392916001600160a01b03169088906004016148e3565b600060405180830381600087803b1580156121a557600080fd5b505af11580156121b9573d6000803e3d6000fd5b5050505050505b60028501805460ff60a01b1916600360a01b17905560405133906001600160a01b038816907f25e625a1149fb16ce8c4963e5e117f0800095860b3d77b51a4ce2f2e80e9867490600090a350505050505050565b6040805160e081018252600080825260208201819052918101829052606081018290526080810182905260a0810182905260c08101919091526001600160a01b03821660009081526035602052604090819020815160e081019092528054829060ff166001811115612288576122886141d0565b6001811115612299576122996141d0565b815281546001600160a01b03610100909104811660208301526001830154811660408301526002830154811660608301526003830154166080820152600482015460a082015260059091015460c09091015292915050565b600081600003612314576040516310eb483f60e21b815260040160405180910390fd5b6001600160a01b038084166000908152603360209081526040808320600281015490941683526035909152902060016002830154600160a01b900460ff166006811115612363576123636141d0565b14612381576040516329de90c560e11b815260040160405180910390fd5b6006820154612390908561491a565b826003015410156123ce576003820154600683015460405163086e3fa560e11b81526004810192909252602482015260448101859052606401610b69565b600080546123e4906001600160a01b0316613623565b6001830154604051632b2b520160e21b81526001600160a01b0391821660048201529192506000919083169063acad48049060240160c060405180830381865afa158015612436573d6000803e3d6000fd5b505050506040513d601f19601f8201168201806040525081019061245a919061478e565b905061246881426001613690565b5060006001600160a01b0382166321874ae2336040516001600160e01b031960e084901b1681526001600160a01b039091166004820152602401606060405180830381865afa1580156124bf573d6000803e3d6000fd5b505050506040513d601f19601f820116820180604052508101906124e39190614946565b905060006001600160a01b038316633ca814e7336040516001600160e01b031960e084901b1681526001600160a01b039091166004820152602401602060405180830381865afa15801561253b573d6000803e3d6000fd5b505050506040513d601f19601f8201168201806040525081019061255f91906149b6565b9050600061256e603254613ab4565b6001600160a01b038082166000908152603460205260409020600101549192506201000090910416156125b457604051631ee119cb60e31b815260040160405180910390fd5b600486015460038701546000916125cf918b91906001613921565b905060006125e18285620f4240613ae6565b90506000612600886005015461271085613ae69092919063ffffffff16565b600080549192509061261a906001600160a01b0316613786565b905061262a8385848c8e86613baa565b8b8a6006015461263a919061491a565b60068b015560408051610120810190915260325481526020810160018152602001600060028d0154600160a81b900460ff16600181111561267d5761267d6141d0565b1461268957600061268c565b60015b600181111561269d5761269d6141d0565b8152602001336001600160a01b031681526020018b60020160009054906101000a90046001600160a01b03166001600160a01b031681526020018e6001600160a01b031681526020018d815260200185815260200160006001600160a01b031681525060346000876001600160a01b03166001600160a01b031681526020019081526020016000206000820151816000015560208201518160010160006101000a81548160ff02191690836002811115612759576127596141d0565b021790555060408201518160010160016101000a81548160ff02191690836001811115612788576127886141d0565b02179055506060820151600180830180546001600160a01b03938416620100000262010000600160b01b031990911617905560808401516002840180549184166001600160a01b031992831617905560a085015160038501805491851691831691909117905560c0850151600485015560e085015160058501556101009094015160069093018054939092169290931691909117905560325461282a9161491a565b603255600061283d8486888d8c87613c6a565b9050808a6004015461284f919061491a565b60048b01556128628e84878e8e87613e30565b5050609780546001810182556000919091527f354a83ed9988f79f6038d4c7a7dadbad8af32f4ad6df893e0e5807a1b1944ff90180546001600160a01b0319166001600160a01b03861617905550919750505050505050505b92915050565b6000546001600160a01b03163360405163224c50cb60e21b8152600360048201526000906001600160a01b03841690638931432c90602401602060405180830381865afa158015612916573d6000803e3d6000fd5b505050506040513d601f19601f8201168201806040525081019061293a9190614884565b9050806001600160a01b0316826001600160a01b03161461296e5760405163252e956960e11b815260040160405180910390fd5b6001600160a01b038516600090815260336020526040902060028101805486919060ff60a01b1916600160a01b8360068111156129ad576129ad6141d0565b02179055507fcee6454a0cd08795e3b702a0217f4f785a57cd4bbc4261a120a6a75dc68258388686604051611b609291906149cf565b60968181548110611b9457600080fd5b60988181548110611b9457600080fd5b6001600160a01b03808216600081815260336020908152604080832087861684526034909252909120600681015491939092911614612a6e57600681015460405163259935ab60e01b81526001600160a01b0391821660048201529084166024820152604401610b69565b60018201546001600160a01b03163314612a9a576040516282b42960e81b815260040160405180910390fd5b60036002830154600160a01b900460ff166006811115612abc57612abc6141d0565b14612ada576040516329de90c560e11b815260040160405180910390fd5b60008054612af0906001600160a01b0316613623565b60028401546001600160a01b0390811660009081526035602052604080822060018101549151632b2b520160e21b81529184166004830152939450909184169063acad48049060240160c060405180830381865afa158015612b56573d6000803e3d6000fd5b505050506040513d601f19601f82011682018060405250810190612b7a919061478e565b9050612b8881426001613690565b6000825460ff166001811115612ba057612ba06141d0565b1480612bb7575060038401546001600160a01b0316155b15612c83576000612bec8660020160159054906101000a900460ff168760040154886003015489600601548a60050154613a54565b6000805491925090612c06906001600160a01b0316613786565b90506001600160a01b038116638e506349343360028801546040516001600160e01b031960e086901b168152612c4e92916001600160a01b031690889060009060040161485b565b6000604051808303818588803b158015612c6757600080fd5b505af1158015612c7b573d6000803e3d6000fd5b505050505050505b60028501805460ff60a01b1916600160a01b17905560405133906001600160a01b038816907fb4dfd0550ea47fdadec7d07c7346a43f466b4826d370a65b736ab28c3cd647f190600090a350505050505050565b6040805160608101825260008082526020820181905281830152908201351580612d0357506060820135155b15612d21576040516310eb483f60e21b815260040160405180910390fd5b6127108260a001351115612d485760405163df0704fb60e01b815260040160405180910390fd5b61271082608001351015612d6f5760405163731b1b8d60e11b815260040160405180910390fd5b60008054612d85906001600160a01b0316613623565b905060006001600160a01b03821663acad4804612da560208701876141b3565b6040516001600160e01b031960e084901b1681526001600160a01b03909116600482015260240160c060405180830381865afa158015612de9573d6000803e3d6000fd5b505050506040513d601f19601f82011682018060405250810190612e0d919061478e565b9050612e1b81426001613690565b6000612e2860325461406b565b90506000612e376032546137b6565b90506000612e46603254613ab4565b6001600160a01b038481166000908152603560205260409020549192506101009091041615612e8857604051631e1695a760e01b815260040160405180910390fd5b6001600160a01b038281166000908152603360205260409020600101541615612ec45760405163eb12446160e01b815260040160405180910390fd5b6001600160a01b038181166000908152603460205260409020600101546201000090041615612f0657604051631ee119cb60e31b815260040160405180910390fd5b603254612f1490600161491a565b6032556000612f3e612f2c60e08a0160c08b016149f9565b89608001358a60600135600180613715565b6000805491925090612f58906001600160a01b0316613786565b90506001600160a01b038116638e5063493433612f7b60408e0160208f016141b3565b8660006040518663ffffffff1660e01b8152600401612f9d949392919061485b565b6000604051808303818588803b158015612fb657600080fd5b505af1158015612fca573d6000803e3d6000fd5b505050505050506040518060e001604052808860e0016020810190612fef91906149f9565b6001811115613000576130006141d0565b8152602001336001600160a01b03168152602090810190613023908a018a6141b3565b6001600160a01b0316815260200188602001602081019061304491906141b3565b6001600160a01b0390811682528481166020808401919091526000604080850182905260a08d01356060909501949094529187168252603590522081518154829060ff19166001838181111561309c5761309c6141d0565b021790555060208281015182546001600160a01b0391821661010002610100600160a81b03199091161783556040808501516001850180549184166001600160a01b0319928316179055606086015160028601805491851691831691909117905560808601516003860180549190941691161790915560a0840151600484015560c09093015160059092019190915581516101c08101909252603254825281016131433390565b6001600160a01b039081168252851660208201526040016001815260200161317160e08a0160c08b016149f9565b6001811115613182576131826141d0565b8152602001600081526040808a01356020808401919091526060808c0135838501526080808d013582860152600090850181905260a0850181905260c0850181905260e085018190526101009094018490526001600160a01b038088168552603383529383902085518155918501516001830180549186166001600160a01b031992831617905592850151600283018054919095169381168417855590850151919391926001600160a81b031990911617600160a01b83600681111561324a5761324a6141d0565b0217905550608082015160028201805460ff60a81b1916600160a81b836001811115613278576132786141d0565b021790555060a08201518160020160166101000a81548160ff021916908360028111156132a7576132a76141d0565b021790555060c0820151600382015560e0820151600482015561010082015160058201556101208083015160068301556101408301516007830155610160830151600883015561018083015160098301556101a090920151600a9091015560408051918201905260325481526020810160018152602001600061333060e08b0160c08c016149f9565b6001811115613341576133416141d0565b1461334d576000613350565b60015b6001811115613361576133616141d0565b8152336020808301919091526001600160a01b03868116604080850191909152600060608086018290528d83013560808701528d013560a086015287831660c090950194909452908516835260348252909120825181559082015160018083018054909160ff19909116908360028111156133de576133de6141d0565b021790555060408201518160010160016101000a81548160ff0219169083600181111561340d5761340d6141d0565b0217905550606082015160018201805462010000600160b01b031916620100006001600160a01b039384160217905560808301516002830180546001600160a01b031990811692841692909217905560a0840151600384018054831691841691909117905560c0840151600484015560e08401516005840155610100909301516006909201805490931691811691909117909155818116908481169084167f97bc190ea239994fe26cd6ded46798af67d32bbea4c7becae939501ce6b3b4206134d960208c018c6141b3565b604080516001600160a01b039290921682523360208301528c810135828201526060808e013590830152519081900360800190a46096805460018181019092557f6aa7ec8ac2a999a90ce6c78668dffe4e487e2576a97ca366ec81ecb335af90d00180546001600160a01b039485166001600160a01b03199182168117909255609780548085019091557f354a83ed9988f79f6038d4c7a7dadbad8af32f4ad6df893e0e5807a1b1944ff9018054948616948216851790556098805493840181556000527f2237a976fa961f5921fd19f2b03c925c725d77b20ce8f790c19709c03de4d81490920180549590941694909116841790925560408051606081018252938452602084019290925290820152949350505050565b6135f9613806565b6001600160a01b0381166118cc57604051631e4fbdf760e01b815260006004820152602401610b69565b60405163224c50cb60e21b8152600160048201526000906001600160a01b03831690638931432c906024015b602060405180830381865afa15801561366c573d6000803e3d6000fd5b505050506040513d601f19601f820116820180604052508101906128bb9190614884565b600061369c838561409d565b90508160048111156136b0576136b06141d0565b8160048111156136c2576136c26141d0565b1461370f5760405162461bcd60e51b815260206004820152601d60248201527f4d69736d617463686564204d61726b6574706c616365207374617475730000006044820152606401610b69565b50505050565b6000600186600181111561372b5761372b6141d0565b1480156137355750825b1561374157508261377d565b6000866001811115613755576137556141d0565b148015613760575082155b1561376c57508261377d565b61377a848661271085613921565b90505b95945050505050565b60405163224c50cb60e21b8152600560048201526000906001600160a01b03831690638931432c9060240161364f565b6000816040516020016137e89181526040602082018190526005908201526437b33332b960d91b606082015260800190565b60408051601f19818403018152919052805160209091012092915050565b6099546001600160a01b03163314611b825760405163118cdaa760e01b8152336004820152602401610b69565b604080518082018252601981527f7472616e7366657228616464726573732c75696e74323536290000000000000060209182015281516001600160a01b0385811660248301526044808301869052845180840390910181526064909201845291810180516001600160e01b031663a9059cbb60e01b1790529151600092918616916138bd91614a16565b6000604051808303816000865af19150503d80600081146138fa576040519150601f19603f3d011682016040523d82523d6000602084013e6138ff565b606091505b505090508061370f576040516312171d8360e31b815260040160405180910390fd5b60008061392f868686613ae6565b905061393a8361411c565b801561395657506000848061395157613951614a45565b868809115b1561377d5761377a60018261491a565b609980546001600160a01b038381166001600160a01b0319831681179093556040519116919082907f8be0079c531659141344cd1fd0a4f28419497f9722a3daafe3b4186f6b6457e090600090a35050565b6139c0614149565b6099805460ff60a01b1916600160a01b1790557f62e78cea01bee320cd4e420270b5ea74000d11b0c9f74754ebdbfc544b05a2586139fb3390565b6040516001600160a01b03909116815260200160405180910390a1565b613a20614174565b6099805460ff60a01b191690557f5db9ee0a495bf2e6ff9c91a7834c1ba4fdd244a5e8aa4e537bd38aeae4b073aa336139fb565b600080613a648685876001613921565b90506001876001811115613a7a57613a7a6141d0565b03613a9157613a8981876148d0565b91505061377d565b613aa9613a9e82886148d0565b846127106000613921565b979650505050505050565b6000816040516020016137e89181526040602082018190526005908201526473746f636b60d81b606082015260800190565b6000838302816000198587098281108382030391505080600003613b1d57838281613b1357613b13614a45565b04925050506110d1565b808411613b3d5760405163227bc15360e01b815260040160405180910390fd5b6000848688096000868103871696879004966002600389028118808a02820302808a02820302808a02820302808a02820302808a02820302808a02909103029181900381900460010186841190950394909402919094039290920491909117919091029150509392505050565b6000613bd08360020160159054906101000a900460ff1684600501548860006001613715565b905084613bdd888361491a565b613be7919061491a565b90506001600160a01b038216638e506349343360028801546040516001600160e01b031960e086901b168152613c2f92916001600160a01b031690879060009060040161485b565b6000604051808303818588803b158015613c4857600080fd5b505af1158015613c5c573d6000803e3d6000fd5b505050505050505050505050565b81516000906001600160a01b0316613c83575085613e26565b6020830151600090613c9b908990620f424084613921565b845160028701546040516394e73d4160e01b81529293506001600160a01b03808716936394e73d4193613cda93600193919291169087906004016148e3565b600060405180830381600087803b158015613cf457600080fd5b505af1158015613d08573d6000803e3d6000fd5b505050604085015160009150613d24908a90620f424084613921565b90506001600160a01b0384166394e73d4160013360028a01546040516001600160e01b031960e086901b168152613d6b9392916001600160a01b03169087906004016148e3565b600060405180830381600087803b158015613d8557600080fd5b505af1158015613d99573d6000803e3d6000fd5b5050505080828a613daa91906148d0565b613db491906148d0565b92506001600160a01b0387167f600aa8da1ee2a76ab6cba8e89a198948580c716bd31657d3d898d2142d9f9efe338751604080516001600160a01b039384168152929091166020830152810184905260608101859052608081018b905260a081018c905260c00160405180910390a250505b9695505050505050565b60038201546001600160a01b0387811691161480613e6357506000825460ff166001811115613e6157613e616141d0565b145b15613ee157600183015460028301546040516394e73d4160e01b81526001600160a01b03848116936394e73d4193613eaa9360009392831692909116908b906004016148e3565b600060405180830381600087803b158015613ec457600080fd5b505af1158015613ed8573d6000803e3d6000fd5b50505050613f58565b815460028301546040516394e73d4160e01b81526001600160a01b03848116936394e73d4193613f2593600093610100909304831692909116908b906004016148e3565b600060405180830381600087803b158015613f3f57600080fd5b505af1158015613f53573d6000803e3d6000fd5b505050505b60006002840154600160a81b900460ff166001811115613f7a57613f7a6141d0565b03613ff65760018301546002838101546040516394e73d4160e01b81526001600160a01b03808616946394e73d4194613fbf9490939183169216908a906004016148e3565b600060405180830381600087803b158015613fd957600080fd5b505af1158015613fed573d6000803e3d6000fd5b50505050614063565b6002828101546040516394e73d4160e01b81526001600160a01b03848116936394e73d419361403093919233929116908a906004016148e3565b600060405180830381600087803b15801561404a57600080fd5b505af115801561405e573d6000803e3d6000fd5b505050505b505050505050565b6000816040516020016137e89181526040602082018190526005908201526436b0b5b2b960d91b606082015260800190565b60006004826020015160048111156140b7576140b76141d0565b036140c4575060046128bb565b81608001516000036140db575060208101516128bb565b8160a0015182608001516140ef919061491a565b8311156140fe575060036128bb565b8160800151831115614112575060026128bb565b5060200151919050565b60006002826003811115614132576141326141d0565b61413c9190614a5b565b60ff166001149050919050565b609954600160a01b900460ff1615611b825760405163d93c066560e01b815260040160405180910390fd5b609954600160a01b900460ff16611b8257604051638dfc202b60e01b815260040160405180910390fd5b6001600160a01b03811681146118d557600080fd5b6000602082840312156141c557600080fd5b81356110d18161419e565b634e487b7160e01b600052602160045260246000fd5b600781106141f6576141f66141d0565b9052565b600281106118d5576118d56141d0565b6141f6816141fa565b600381106118d5576118d56141d0565b6141f681614213565b815181526020808301516101c0830191614250908401826001600160a01b03169052565b50604083015161426b60408401826001600160a01b03169052565b50606083015161427e60608401826141e6565b506080830151614291608084018261420a565b5060a08301516142a460a0840182614223565b5060c0838101519083015260e08084015190830152610100808401519083015261012080840151908301526101408084015190830152610160808401519083015261018080840151908301526101a092830151929091019190915290565b6020808252825182820181905260009190848201906040850190845b818110156143435783516001600160a01b03168352928401929184019160010161431e565b50909695505050505050565b60008060006060848603121561436457600080fd5b833561436f8161419e565b95602085013595506040909401359392505050565b60008060006060848603121561439957600080fd5b83356143a48161419e565b925060208401356143b48161419e565b929592945050506040919091013590565b8151815260208201516101208201906143dd81614213565b602083015260408301516143f0816141fa565b80604084015250606083015161441160608401826001600160a01b03169052565b50608083015161442c60808401826001600160a01b03169052565b5060a083015161444760a08401826001600160a01b03169052565b5060c083015160c083015260e083015160e083015261010080840151614477828501826001600160a01b03169052565b505092915050565b6000806040838503121561449257600080fd5b823561449d8161419e565b915060208301356144ad8161419e565b809150509250929050565b600080600080608085870312156144ce57600080fd5b84356144d98161419e565b935060208501356144e98161419e565b93969395505050506040820135916060013590565b6000806040838503121561451157600080fd5b823561451c8161419e565b91506020830135600381106144ad57600080fd5b60e0810161453d896141fa565b9781526001600160a01b039687166020820152948616604086015292851660608501529316608083015260a082019290925260c0015290565b60006020828403121561458857600080fd5b5035919050565b89815261012081016145a08a614213565b8960208301526145af896141fa565b60408201989098526001600160a01b039687166060820152948616608086015292851660a085015260c084019190915260e08301529091166101009091015292915050565b80151581146118d557600080fd5b60006020828403121561461457600080fd5b81356110d1816145f4565b815160e082019061462f816141fa565b80835250602083015160018060a01b038082166020850152806040860151166040850152806060860151166060850152806080860151166080850152505060a083015160a083015260c083015160c083015292915050565b6000806040838503121561469a57600080fd5b82356146a58161419e565b946020939093013593505050565b600080604083850312156146c657600080fd5b82356146d18161419e565b91506020830135600781106144ad57600080fd5b600061010082840312156146f857600080fd5b50919050565b8e81526001600160a01b038e811660208301528d1660408201526101c0810161472a606083018e6141e6565b6147338c6141fa565b8b608083015261474660a083018c614223565b60c082019990995260e08101979097526101008701959095526101208601939093526101408501919091526101608401526101808301526101a0909101529695505050505050565b600060c082840312156147a057600080fd5b60405160c0810181811067ffffffffffffffff821117156147d157634e487b7160e01b600052604160045260246000fd5b60405282516147df816145f4565b81526020830151600581106147f357600080fd5b602082015260408301516148068161419e565b80604083015250606083015160608201526080830151608082015260a083015160a08201528091505092915050565b60408101614842846141fa565b83825261484e836141fa565b8260208301529392505050565b6001600160a01b0394851681529290931660208301526040820152901515606082015260800190565b60006020828403121561489657600080fd5b81516110d18161419e565b604081016148ae84614213565b83825261484e83614213565b634e487b7160e01b600052601160045260246000fd5b818103818111156128bb576128bb6148ba565b60808101600686106148f7576148f76141d0565b9481526001600160a01b0393841660208201529190921660408201526060015290565b808201808211156128bb576128bb6148ba565b6001600160a01b03831681526040810161484e83614213565b60006060828403121561495857600080fd5b6040516060810181811067ffffffffffffffff8211171561498957634e487b7160e01b600052604160045260246000fd5b60405282516149978161419e565b8152602083810151908201526040928301519281019290925250919050565b6000602082840312156149c857600080fd5b5051919050565b6001600160a01b0383168152604081016110d160208301846141e6565b600281106118d557600080fd5b600060208284031215614a0b57600080fd5b81356110d1816149ec565b6000825160005b81811015614a375760208186018101518583015201614a1d565b506000920191825250919050565b634e487b7160e01b600052601260045260246000fd5b600060ff831680614a7c57634e487b7160e01b600052601260045260246000fd5b8060ff8416069150509291505056fea2646970667358221220ce3e3bff7ea0444ebc2477726d001b41af93ca72e7a6426b8032ab3e86bd12e464736f6c63430008190033","linkReferences":{}},"methodIdentifiers":{"abortAskOffer(address,address)":"5cabfd08","abortBidTaker(address,address)":"b5ec4375","closeOffer(address,address)":"c9ac4f6d","createOffer((address,address,uint256,uint256,uint256,uint256,uint8,uint8))":"f17f9c43","createTaker(address,uint256)":"d19b5e64","getMakerAddresses()":"bc1c1c6c","getMakerInfo(address)":"cfbd9a41","getOfferAddresses()":"9a99dd98","getOfferInfo(address)":"06cdc841","getStockAddresses()":"0c0bd87d","getStockInfo(address)":"543a1178","initializeOwnership(address)":"5cd9205f","listOffer(address,uint256,uint256)":"0cea99fa","makerAddresses(uint256)":"da52b037","makerInfoMap(address)":"739a8ce4","offerAddresses(uint256)":"d9e61b0e","offerId()":"21ce9f91","offerInfoMap(address)":"fc125c3f","owner()":"8da5cb5b","paused()":"5c975abb","relistOffer(address,address)":"e9ba063c","renounceOwnership()":"715018a6","rescue(address,address,uint256)":"20ff430b","setPauseStatus(bool)":"c38bb537","settleAskTaker(address,address,uint256,uint256)":"5d27d5fe","settledAskOffer(address,uint256,uint256)":"310b1fe4","stockAddresses(uint256)":"772543c2","stockInfoMap(address)":"8ef3b47f","tadleFactory()":"8ef1d7b4","transferOwnership(address)":"f2fde38b","updateOfferStatus(address,uint8)":"d1cda82c","updateStockStatus(address,uint8)":"62f43101"},"id":49}