{"abi":[{"type":"constructor","inputs":[],"stateMutability":"nonpayable"},{"type":"function","name":"abortAskOffer","inputs":[{"name":"_stock","type":"address","internalType":"address"},{"name":"_offer","type":"address","internalType":"address"}],"outputs":[],"stateMutability":"nonpayable"},{"type":"function","name":"abortBidTaker","inputs":[{"name":"_stock","type":"address","internalType":"address"},{"name":"_offer","type":"address","internalType":"address"}],"outputs":[],"stateMutability":"nonpayable"},{"type":"function","name":"closeOffer","inputs":[{"name":"_stock","type":"address","internalType":"address"},{"name":"_offer","type":"address","internalType":"address"}],"outputs":[],"stateMutability":"nonpayable"},{"type":"function","name":"createOffer","inputs":[{"name":"params","type":"tuple","internalType":"struct CreateOfferParams","components":[{"name":"marketPlace","type":"address","internalType":"address"},{"name":"tokenAddress","type":"address","internalType":"address"},{"name":"points","type":"uint256","internalType":"uint256"},{"name":"amount","type":"uint256","internalType":"uint256"},{"name":"collateralRate","type":"uint256","internalType":"uint256"},{"name":"eachTradeTax","type":"uint256","internalType":"uint256"},{"name":"offerType","type":"uint8","internalType":"enum OfferType"},{"name":"offerSettleType","type":"uint8","internalType":"enum OfferSettleType"}]}],"outputs":[],"stateMutability":"payable"},{"type":"function","name":"createTaker","inputs":[{"name":"_offer","type":"address","internalType":"address"},{"name":"_points","type":"uint256","internalType":"uint256"}],"outputs":[],"stateMutability":"payable"},{"type":"function","name":"getMakerAddresses","inputs":[],"outputs":[{"name":"","type":"address[]","internalType":"address[]"}],"stateMutability":"view"},{"type":"function","name":"getMakerInfo","inputs":[{"name":"_maker","type":"address","internalType":"address"}],"outputs":[{"name":"_makerInfo","type":"tuple","internalType":"struct MakerInfo","components":[{"name":"offerSettleType","type":"uint8","internalType":"enum OfferSettleType"},{"name":"authority","type":"address","internalType":"address"},{"name":"marketPlace","type":"address","internalType":"address"},{"name":"tokenAddress","type":"address","internalType":"address"},{"name":"originOffer","type":"address","internalType":"address"},{"name":"platformFee","type":"uint256","internalType":"uint256"},{"name":"eachTradeTax","type":"uint256","internalType":"uint256"}]}],"stateMutability":"view"},{"type":"function","name":"getOfferAddresses","inputs":[],"outputs":[{"name":"","type":"address[]","internalType":"address[]"}],"stateMutability":"view"},{"type":"function","name":"getOfferInfo","inputs":[{"name":"_offer","type":"address","internalType":"address"}],"outputs":[{"name":"_offerInfo","type":"tuple","internalType":"struct OfferInfo","components":[{"name":"id","type":"uint256","internalType":"uint256"},{"name":"authority","type":"address","internalType":"address"},{"name":"maker","type":"address","internalType":"address"},{"name":"offerStatus","type":"uint8","internalType":"enum OfferStatus"},{"name":"offerType","type":"uint8","internalType":"enum OfferType"},{"name":"abortOfferStatus","type":"uint8","internalType":"enum AbortOfferStatus"},{"name":"points","type":"uint256","internalType":"uint256"},{"name":"amount","type":"uint256","internalType":"uint256"},{"name":"collateralRate","type":"uint256","internalType":"uint256"},{"name":"usedPoints","type":"uint256","internalType":"uint256"},{"name":"tradeTax","type":"uint256","internalType":"uint256"},{"name":"settledPoints","type":"uint256","internalType":"uint256"},{"name":"settledPointTokenAmount","type":"uint256","internalType":"uint256"},{"name":"settledCollateralAmount","type":"uint256","internalType":"uint256"}]}],"stateMutability":"view"},{"type":"function","name":"getStockAddresses","inputs":[],"outputs":[{"name":"","type":"address[]","internalType":"address[]"}],"stateMutability":"view"},{"type":"function","name":"getStockInfo","inputs":[{"name":"_stock","type":"address","internalType":"address"}],"outputs":[{"name":"_stockInfo","type":"tuple","internalType":"struct StockInfo","components":[{"name":"id","type":"uint256","internalType":"uint256"},{"name":"stockStatus","type":"uint8","internalType":"enum StockStatus"},{"name":"stockType","type":"uint8","internalType":"enum StockType"},{"name":"authority","type":"address","internalType":"address"},{"name":"maker","type":"address","internalType":"address"},{"name":"preOffer","type":"address","internalType":"address"},{"name":"points","type":"uint256","internalType":"uint256"},{"name":"amount","type":"uint256","internalType":"uint256"},{"name":"offer","type":"address","internalType":"address"}]}],"stateMutability":"view"},{"type":"function","name":"initializeOwnership","inputs":[{"name":"_newOwner","type":"address","internalType":"address"}],"outputs":[],"stateMutability":"nonpayable"},{"type":"function","name":"listOffer","inputs":[{"name":"_stock","type":"address","internalType":"address"},{"name":"_amount","type":"uint256","internalType":"uint256"},{"name":"_collateralRate","type":"uint256","internalType":"uint256"}],"outputs":[],"stateMutability":"payable"},{"type":"function","name":"makerAddresses","inputs":[{"name":"","type":"uint256","internalType":"uint256"}],"outputs":[{"name":"","type":"address","internalType":"address"}],"stateMutability":"view"},{"type":"function","name":"makerInfoMap","inputs":[{"name":"","type":"address","internalType":"address"}],"outputs":[{"name":"offerSettleType","type":"uint8","internalType":"enum OfferSettleType"},{"name":"authority","type":"address","internalType":"address"},{"name":"marketPlace","type":"address","internalType":"address"},{"name":"tokenAddress","type":"address","internalType":"address"},{"name":"originOffer","type":"address","internalType":"address"},{"name":"platformFee","type":"uint256","internalType":"uint256"},{"name":"eachTradeTax","type":"uint256","internalType":"uint256"}],"stateMutability":"view"},{"type":"function","name":"offerAddresses","inputs":[{"name":"","type":"uint256","internalType":"uint256"}],"outputs":[{"name":"","type":"address","internalType":"address"}],"stateMutability":"view"},{"type":"function","name":"offerId","inputs":[],"outputs":[{"name":"","type":"uint256","internalType":"uint256"}],"stateMutability":"view"},{"type":"function","name":"offerInfoMap","inputs":[{"name":"","type":"address","internalType":"address"}],"outputs":[{"name":"id","type":"uint256","internalType":"uint256"},{"name":"authority","type":"address","internalType":"address"},{"name":"maker","type":"address","internalType":"address"},{"name":"offerStatus","type":"uint8","internalType":"enum OfferStatus"},{"name":"offerType","type":"uint8","internalType":"enum OfferType"},{"name":"abortOfferStatus","type":"uint8","internalType":"enum AbortOfferStatus"},{"name":"points","type":"uint256","internalType":"uint256"},{"name":"amount","type":"uint256","internalType":"uint256"},{"name":"collateralRate","type":"uint256","internalType":"uint256"},{"name":"usedPoints","type":"uint256","internalType":"uint256"},{"name":"tradeTax","type":"uint256","internalType":"uint256"},{"name":"settledPoints","type":"uint256","internalType":"uint256"},{"name":"settledPointTokenAmount","type":"uint256","internalType":"uint256"},{"name":"settledCollateralAmount","type":"uint256","internalType":"uint256"}],"stateMutability":"view"},{"type":"function","name":"owner","inputs":[],"outputs":[{"name":"","type":"address","internalType":"address"}],"stateMutability":"view"},{"type":"function","name":"paused","inputs":[],"outputs":[{"name":"","type":"bool","internalType":"bool"}],"stateMutability":"view"},{"type":"function","name":"relistOffer","inputs":[{"name":"_stock","type":"address","internalType":"address"},{"name":"_offer","type":"address","internalType":"address"}],"outputs":[],"stateMutability":"payable"},{"type":"function","name":"renounceOwnership","inputs":[],"outputs":[],"stateMutability":"nonpayable"},{"type":"function","name":"rescue","inputs":[{"name":"to","type":"address","internalType":"address"},{"name":"token","type":"address","internalType":"address"},{"name":"amount","type":"uint256","internalType":"uint256"}],"outputs":[],"stateMutability":"nonpayable"},{"type":"function","name":"setPauseStatus","inputs":[{"name":"pauseSatus","type":"bool","internalType":"bool"}],"outputs":[],"stateMutability":"nonpayable"},{"type":"function","name":"settleAskTaker","inputs":[{"name":"_offer","type":"address","internalType":"address"},{"name":"_stock","type":"address","internalType":"address"},{"name":"_settledPoints","type":"uint256","internalType":"uint256"},{"name":"_settledPointTokenAmount","type":"uint256","internalType":"uint256"}],"outputs":[],"stateMutability":"nonpayable"},{"type":"function","name":"settledAskOffer","inputs":[{"name":"_offer","type":"address","internalType":"address"},{"name":"_settledPoints","type":"uint256","internalType":"uint256"},{"name":"_settledPointTokenAmount","type":"uint256","internalType":"uint256"}],"outputs":[],"stateMutability":"nonpayable"},{"type":"function","name":"stockAddresses","inputs":[{"name":"","type":"uint256","internalType":"uint256"}],"outputs":[{"name":"","type":"address","internalType":"address"}],"stateMutability":"view"},{"type":"function","name":"stockInfoMap","inputs":[{"name":"","type":"address","internalType":"address"}],"outputs":[{"name":"id","type":"uint256","internalType":"uint256"},{"name":"stockStatus","type":"uint8","internalType":"enum StockStatus"},{"name":"stockType","type":"uint8","internalType":"enum StockType"},{"name":"authority","type":"address","internalType":"address"},{"name":"maker","type":"address","internalType":"address"},{"name":"preOffer","type":"address","internalType":"address"},{"name":"points","type":"uint256","internalType":"uint256"},{"name":"amount","type":"uint256","internalType":"uint256"},{"name":"offer","type":"address","internalType":"address"}],"stateMutability":"view"},{"type":"function","name":"tadleFactory","inputs":[],"outputs":[{"name":"","type":"address","internalType":"contract ITadleFactory"}],"stateMutability":"view"},{"type":"function","name":"transferOwnership","inputs":[{"name":"newOwner","type":"address","internalType":"address"}],"outputs":[],"stateMutability":"nonpayable"},{"type":"function","name":"updateOfferStatus","inputs":[{"name":"_offer","type":"address","internalType":"address"},{"name":"_status","type":"uint8","internalType":"enum OfferStatus"}],"outputs":[],"stateMutability":"nonpayable"},{"type":"function","name":"updateStockStatus","inputs":[{"name":"_stock","type":"address","internalType":"address"},{"name":"_status","type":"uint8","internalType":"enum StockStatus"}],"outputs":[],"stateMutability":"nonpayable"},{"type":"event","name":"AbortAskOffer","inputs":[{"name":"offer","type":"address","indexed":true,"internalType":"address"},{"name":"authority","type":"address","indexed":true,"internalType":"address"}],"anonymous":false},{"type":"event","name":"AbortBidTaker","inputs":[{"name":"stock","type":"address","indexed":true,"internalType":"address"},{"name":"authority","type":"address","indexed":true,"internalType":"address"}],"anonymous":false},{"type":"event","name":"CloseOffer","inputs":[{"name":"offer","type":"address","indexed":true,"internalType":"address"},{"name":"authority","type":"address","indexed":true,"internalType":"address"}],"anonymous":false},{"type":"event","name":"CreateOffer","inputs":[{"name":"_offer","type":"address","indexed":true,"internalType":"address"},{"name":"_maker","type":"address","indexed":true,"internalType":"address"},{"name":"_stock","type":"address","indexed":true,"internalType":"address"},{"name":"_marketPlace","type":"address","indexed":false,"internalType":"address"},{"name":"_authority","type":"address","indexed":false,"internalType":"address"},{"name":"_points","type":"uint256","indexed":false,"internalType":"uint256"},{"name":"_amount","type":"uint256","indexed":false,"internalType":"uint256"}],"anonymous":false},{"type":"event","name":"CreateTaker","inputs":[{"name":"offer","type":"address","indexed":true,"internalType":"address"},{"name":"authority","type":"address","indexed":false,"internalType":"address"},{"name":"stock","type":"address","indexed":false,"internalType":"address"},{"name":"points","type":"uint256","indexed":false,"internalType":"uint256"},{"name":"amount","type":"uint256","indexed":false,"internalType":"uint256"},{"name":"tradeTax","type":"uint256","indexed":false,"internalType":"uint256"},{"name":"platformFee","type":"uint256","indexed":false,"internalType":"uint256"}],"anonymous":false},{"type":"event","name":"ListOffer","inputs":[{"name":"offer","type":"address","indexed":true,"internalType":"address"},{"name":"stock","type":"address","indexed":true,"internalType":"address"},{"name":"authority","type":"address","indexed":false,"internalType":"address"},{"name":"points","type":"uint256","indexed":false,"internalType":"uint256"},{"name":"amount","type":"uint256","indexed":false,"internalType":"uint256"}],"anonymous":false},{"type":"event","name":"OfferStatusUpdated","inputs":[{"name":"_offer","type":"address","indexed":false,"internalType":"address"},{"name":"_status","type":"uint8","indexed":false,"internalType":"enum OfferStatus"}],"anonymous":false},{"type":"event","name":"OwnershipTransferred","inputs":[{"name":"previousOwner","type":"address","indexed":true,"internalType":"address"},{"name":"newOwner","type":"address","indexed":true,"internalType":"address"}],"anonymous":false},{"type":"event","name":"Paused","inputs":[{"name":"account","type":"address","indexed":false,"internalType":"address"}],"anonymous":false},{"type":"event","name":"ReferralBonus","inputs":[{"name":"stock","type":"address","indexed":true,"internalType":"address"},{"name":"authority","type":"address","indexed":false,"internalType":"address"},{"name":"referrer","type":"address","indexed":false,"internalType":"address"},{"name":"authorityReferralBonus","type":"uint256","indexed":false,"internalType":"uint256"},{"name":"referrerReferralBonus","type":"uint256","indexed":false,"internalType":"uint256"},{"name":"tradingVolume","type":"uint256","indexed":false,"internalType":"uint256"},{"name":"tradingFee","type":"uint256","indexed":false,"internalType":"uint256"}],"anonymous":false},{"type":"event","name":"RelistOffer","inputs":[{"name":"offer","type":"address","indexed":true,"internalType":"address"},{"name":"authority","type":"address","indexed":true,"internalType":"address"}],"anonymous":false},{"type":"event","name":"Rescue","inputs":[{"name":"to","type":"address","indexed":false,"internalType":"address"},{"name":"token","type":"address","indexed":false,"internalType":"address"},{"name":"amount","type":"uint256","indexed":false,"internalType":"uint256"}],"anonymous":false},{"type":"event","name":"SetPauseStatus","inputs":[{"name":"status","type":"bool","indexed":false,"internalType":"bool"}],"anonymous":false},{"type":"event","name":"SettledAskOffer","inputs":[{"name":"_offer","type":"address","indexed":false,"internalType":"address"},{"name":"_settledPoints","type":"uint256","indexed":false,"internalType":"uint256"},{"name":"_settledPointTokenAmount","type":"uint256","indexed":false,"internalType":"uint256"}],"anonymous":false},{"type":"event","name":"SettledBidTaker","inputs":[{"name":"_offer","type":"address","indexed":false,"internalType":"address"},{"name":"_stock","type":"address","indexed":false,"internalType":"address"},{"name":"_settledPoints","type":"uint256","indexed":false,"internalType":"uint256"},{"name":"_settledPointTokenAmount","type":"uint256","indexed":false,"internalType":"uint256"}],"anonymous":false},{"type":"event","name":"StockStatusUpdated","inputs":[{"name":"_stock","type":"address","indexed":false,"internalType":"address"},{"name":"_status","type":"uint8","indexed":false,"internalType":"enum StockStatus"}],"anonymous":false},{"type":"event","name":"Unpaused","inputs":[{"name":"account","type":"address","indexed":false,"internalType":"address"}],"anonymous":false},{"type":"error","name":"AlreadyInitialized","inputs":[]},{"type":"error","name":"AmountIsZero","inputs":[]},{"type":"error","name":"CallerIsNotDeliveryPlace","inputs":[]},{"type":"error","name":"CallerIsNotRelatedContracts","inputs":[{"name":"","type":"address","internalType":"address"}]},{"type":"error","name":"EnforcedPause","inputs":[]},{"type":"error","name":"ExpectedPause","inputs":[]},{"type":"error","name":"InvalidAbortOfferStatus","inputs":[{"name":"_targetStatus","type":"uint8","internalType":"enum AbortOfferStatus"},{"name":"_currentStatus","type":"uint8","internalType":"enum AbortOfferStatus"}]},{"type":"error","name":"InvalidCollateralRate","inputs":[]},{"type":"error","name":"InvalidEachTradeTaxRate","inputs":[]},{"type":"error","name":"InvalidOffer","inputs":[]},{"type":"error","name":"InvalidOfferAccount","inputs":[{"name":"_targetAccount","type":"address","internalType":"address"},{"name":"_currentAccount","type":"address","internalType":"address"}]},{"type":"error","name":"InvalidOfferStatus","inputs":[]},{"type":"error","name":"InvalidOfferType","inputs":[{"name":"_targetType","type":"uint8","internalType":"enum OfferType"},{"name":"_currentType","type":"uint8","internalType":"enum OfferType"}]},{"type":"error","name":"InvalidStockStatus","inputs":[{"name":"_targetStatus","type":"uint8","internalType":"enum StockStatus"},{"name":"_currentStatus","type":"uint8","internalType":"enum StockStatus"}]},{"type":"error","name":"InvalidStockType","inputs":[{"name":"_targetType","type":"uint8","internalType":"enum StockType"},{"name":"_currentType","type":"uint8","internalType":"enum StockType"}]},{"type":"error","name":"MakerAlreadyExist","inputs":[]},{"type":"error","name":"MathOverflowedMulDiv","inputs":[]},{"type":"error","name":"NotEnoughPoints","inputs":[{"name":"_totalPoints","type":"uint256","internalType":"uint256"},{"name":"_usedPoints","type":"uint256","internalType":"uint256"},{"name":"_points","type":"uint256","internalType":"uint256"}]},{"type":"error","name":"OfferAlreadyExist","inputs":[]},{"type":"error","name":"OwnableInvalidOwner","inputs":[{"name":"owner","type":"address","internalType":"address"}]},{"type":"error","name":"OwnableUnauthorizedAccount","inputs":[{"name":"account","type":"address","internalType":"address"}]},{"type":"error","name":"StockAlreadyExist","inputs":[]},{"type":"error","name":"TransferFailed","inputs":[]},{"type":"error","name":"Unauthorized","inputs":[]}],"bytecode":{"object":"0x6080604052348015600f57600080fd5b503380603557604051631e4fbdf760e01b81526000600482015260240160405180910390fd5b603c81604e565b506099805460ff60a01b1916905560a0565b609980546001600160a01b038381166001600160a01b0319831681179093556040519116919082907f8be0079c531659141344cd1fd0a4f28419497f9722a3daafe3b4186f6b6457e090600090a35050565b614a70806100af6000396000f3fe6080604052600436106101e35760003560e01c80638ef1d7b411610102578063d19b5e6411610095578063e9ba063c11610064578063e9ba063c14610651578063f17f9c4314610664578063f2fde38b14610677578063fc125c3f1461069757600080fd5b8063d19b5e64146105de578063d1cda82c146105f1578063d9e61b0e14610611578063da52b0371461063157600080fd5b8063bc1c1c6c116100d1578063bc1c1c6c1461055c578063c38bb53714610571578063c9ac4f6d14610591578063cfbd9a41146105b157600080fd5b80638ef1d7b4146104795780638ef3b47f146104995780639a99dd9814610527578063b5ec43751461053c57600080fd5b80635cabfd081161017a578063715018a611610149578063715018a614610390578063739a8ce4146103a5578063772543c2146104235780638da5cb5b1461045b57600080fd5b80635cabfd08146103105780635cd9205f146103305780635d27d5fe1461035057806362f431011461037057600080fd5b806321ce9f91116101b657806321ce9f9114610275578063310b1fe414610299578063543a1178146102b95780635c975abb146102e657600080fd5b806306cdc841146101e85780630c0bd87d1461021e5780630cea99fa1461024057806320ff430b14610255575b600080fd5b3480156101f457600080fd5b50610208610203366004614162565b610752565b60405161021591906141db565b60405180910390f35b34801561022a57600080fd5b5061023361090a565b60405161021591906142b1565b61025361024e3660046142fe565b61096c565b005b34801561026157600080fd5b50610253610270366004614333565b611055565b34801561028157600080fd5b5061028b60325481565b604051908152602001610215565b3480156102a557600080fd5b506102536102b43660046142fe565b611102565b3480156102c557600080fd5b506102d96102d4366004614162565b611238565b6040516102159190614374565b3480156102f257600080fd5b50609954600160a01b900460ff166040519015158152602001610215565b34801561031c57600080fd5b5061025361032b36600461442e565b611378565b34801561033c57600080fd5b5061025361034b366004614162565b61180f565b34801561035c57600080fd5b5061025361036b366004614467565b611855565b34801561037c57600080fd5b5061025361038b3660046144ad565b6119c0565b34801561039c57600080fd5b50610253611aed565b3480156103b157600080fd5b506104106103c0366004614162565b60356020526000908152604090208054600182015460028301546003840154600485015460059095015460ff8516956101009095046001600160a01b039081169594811694938116939216919087565b60405161021597969594939291906144df565b34801561042f57600080fd5b5061044361043e366004614525565b611b01565b6040516001600160a01b039091168152602001610215565b34801561046757600080fd5b506099546001600160a01b0316610443565b34801561048557600080fd5b50600054610443906001600160a01b031681565b3480156104a557600080fd5b506105126104b4366004614162565b6034602052600090815260409020805460018201546002830154600384015460048501546005860154600690960154949560ff808616966101008704909116956001600160a01b036201000090910481169581169481169392911689565b6040516102159998979695949392919061453e565b34801561053357600080fd5b50610233611b2b565b34801561054857600080fd5b5061025361055736600461442e565b611b8b565b34801561056857600080fd5b50610233611e01565b34801561057d57600080fd5b5061025361058c3660046145b1565b611e61565b34801561059d57600080fd5b506102536105ac36600461442e565b611ebc565b3480156105bd57600080fd5b506105d16105cc366004614162565b612191565b60405161021591906145ce565b6102536105ec366004614636565b61226e565b3480156105fd57600080fd5b5061025361060c366004614662565b61289f565b34801561061d57600080fd5b5061044361062c366004614525565b6129c1565b34801561063d57600080fd5b5061044361064c366004614525565b6129d1565b61025361065f36600461442e565b6129e1565b610253610672366004614694565b612cb5565b34801561068357600080fd5b50610253610692366004614162565b613599565b3480156106a357600080fd5b506107386106b2366004614162565b603360205260009081526040902080546001820154600283015460038401546004850154600586015460068701546007880154600889015460098a0154600a909a015498996001600160a01b03988916999888169860ff600160a01b8a04811699600160a81b8104821699600160b01b909104909116979096909590949093909290918e565b6040516102159e9d9c9b9a999897969594939291906146ad565b6107c4604080516101c0810182526000808252602082018190529181018290529060608201908152602001600081526020016000815260200160008152602001600081526020016000815260200160008152602001600081526020016000815260200160008152602001600081525090565b6001600160a01b0382811660009081526033602090815260409182902082516101c081018452815481526001820154851692810192909252600281015493841692820192909252916060830190600160a01b900460ff16600681111561082c5761082c61417f565b600681111561083d5761083d61417f565b81526020016002820160159054906101000a900460ff1660018111156108655761086561417f565b60018111156108765761087661417f565b81526020016002820160169054906101000a900460ff16600281111561089e5761089e61417f565b60028111156108af576108af61417f565b815260038201546020820152600482015460408201526005820154606082015260068201546080820152600782015460a0820152600882015460c0820152600982015460e0820152600a909101546101009091015292915050565b6060609780548060200260200160405190810160405280929190818152602001828054801561096257602002820191906000526020600020905b81546001600160a01b03168152600190910190602001808311610944575b5050505050905090565b8160000361098d576040516310eb483f60e21b815260040160405180910390fd5b6127108110156109b05760405163731b1b8d60e11b815260040160405180910390fd5b6001600160a01b03838116600090815260346020526040902060018101549091336201000090920416146109f6576040516282b42960e81b815260040160405180910390fd5b60038101546001600160a01b0390811660009081526033602090815260408083206002810154851684526035909252822082549193909291610a3891166135cb565b6001830154604051632b2b520160e21b81526001600160a01b0391821660048201529192506000919083169063acad48049060240160c060405180830381865afa158015610a8a573d6000803e3d6000fd5b505050506040513d601f19601f82011682018060405250810190610aae919061473d565b9050610abc8142600161363e565b60068501546001600160a01b031615610ae85760405163eb12446160e01b815260040160405180910390fd5b60018086810154610100900460ff1690811115610b0757610b0761417f565b14610b3e57600185810154604051633b23391160e21b8152610b359291610100900460ff16906004016147e4565b60405180910390fd5b6001835460ff166001811115610b5657610b5661417f565b03610cd55760038301546001600160a01b03908116600081815260336020908152604080832081516101c0810183528154815260018201548716938101939093526002810154958616918301919091529293919290916060830190600160a01b900460ff166006811115610bcc57610bcc61417f565b6006811115610bdd57610bdd61417f565b81526020016002820160159054906101000a900460ff166001811115610c0557610c0561417f565b6001811115610c1657610c1661417f565b81526020016002820160169054906101000a900460ff166002811115610c3e57610c3e61417f565b6002811115610c4f57610c4f61417f565b815260200160038201548152602001600482015481526020016005820154815260200160068201548152602001600782015481526020016008820154815260200160098201548152602001600a8201548152505090508061010001518814610cca5760405163731b1b8d60e11b815260040160405180910390fd5b600160a09190910152505b6000835460ff166001811115610ced57610ced61417f565b03610dae576000610d178560020160159054906101000a900460ff1686600501548a6001806136c3565b6000805491925090610d31906001600160a01b0316613734565b90506001600160a01b038116638e506349343360028901546040516001600160e01b031960e086901b168152610d7992916001600160a01b031690889060009060040161480a565b6000604051808303818588803b158015610d9257600080fd5b505af1158015610da6573d6000803e3d6000fd5b505050505050505b6000610dbd8660000154613764565b6001600160a01b038082166000908152603360205260409020600101549192501615610dfc5760405163eb12446160e01b815260040160405180910390fd5b604080516101c081019091528654815260208101336001600160a01b0390811682526002880154166020820152604001600181526020018660020160159054906101000a900460ff166001811115610e5657610e5661417f565b815260200160008152600488015460208083019190915260408083018c905260608084018c905260006080850181905260a0850181905260c0850181905260e085018190526101009094018490526001600160a01b038087168552603384529382902085518155928501516001840180549186166001600160a01b0319928316179055918501516002840180549190951692811683178555908501519293916001600160a81b031990911617600160a01b836006811115610f1957610f1961417f565b0217905550608082015160028201805460ff60a81b1916600160a81b836001811115610f4757610f4761417f565b021790555060a08201518160020160166101000a81548160ff02191690836002811115610f7657610f7661417f565b021790555060c0820151600382015560e0820151600482015561010082015160058201556101208201516006808301919091556101408301516007830155610160830151600883015561018083015160098301556101a090920151600a90910155860180546001600160a01b0319166001600160a01b03838116918217909255908a16907f1f752904b26564a71089509e5f90036e434f6e7110a73bf6a4b47debf4eb24273360048a0154604080516001600160a01b039093168352602083019190915281018c905260600160405180910390a3505050505050505050565b61105d6137b4565b6001600160a01b0382166110a7576040516001600160a01b0384169082156108fc029083906000818181858888f193505050501580156110a1573d6000803e3d6000fd5b506110b2565b6110b28284836137e1565b604080516001600160a01b038086168252841660208201529081018290527fe01920728668d89f092ef9cb92036bad90964bb622eec508d2c3ffe1d582efb29060600160405180910390a1505050565b6000546001600160a01b03163360405163224c50cb60e21b8152600360048201526000906001600160a01b03841690638931432c90602401602060405180830381865afa158015611157573d6000803e3d6000fd5b505050506040513d601f19601f8201168201806040525081019061117b9190614833565b9050806001600160a01b0316826001600160a01b0316146111af5760405163252e956960e11b815260040160405180910390fd5b6001600160a01b0386166000818152603360209081526040918290206008810189905560098101889055600281018054600360a11b60ff60a01b199091161790558251938452908301889052908201869052907f1c863fdc85ca43c5cb20d0f7922c708f83963478f06d3c14ec837f90997a79989060600160405180910390a150505050505050565b6112886040805161012081019091526000808252602082019081526020016000815260006020820181905260408201819052606082018190526080820181905260a0820181905260c09091015290565b6001600160a01b03821660009081526034602090815260409182902082516101208101909352805483526001810154909183019060ff1660028111156112d0576112d061417f565b60028111156112e1576112e161417f565b81526020016001820160019054906101000a900460ff1660018111156113095761130961417f565b600181111561131a5761131a61417f565b815260018201546001600160a01b03620100009091048116602083015260028301548116604083015260038301548116606083015260048301546080830152600583015460a083015260069092015490911660c09091015292915050565b6001600160a01b0382811660009081526034602090815260408083209385168352603390915290203360018201546001600160a01b039081169116146113d0576040516282b42960e81b815260040160405180910390fd5b60068201546001600160a01b0384811691161461141957600682015460405163259935ab60e01b81526001600160a01b0391821660048201529084166024820152604401610b35565b60006002820154600160a81b900460ff16600181111561143b5761143b61417f565b1461146f5760008160020160159054906101000a900460ff1660405163ebc1b59960e01b8152600401610b359291906147e4565b6000600282810154600160b01b900460ff16908111156114915761149161417f565b146114c55760008160020160169054906101000a900460ff16604051630587038160e01b8152600401610b35929190614850565b60016002820154600160a01b900460ff1660068111156114e7576114e761417f565b14158015611515575060036002820154600160a01b900460ff1660068111156115125761151261417f565b14155b15611533576040516329de90c560e11b815260040160405180910390fd5b60028101546001600160a01b031660009081526035602052604090206001815460ff1660018111156115675761156761417f565b148015611580575060038301546001600160a01b031615155b1561159e57604051631771cc0160e11b815260040160405180910390fd5b600080546115b4906001600160a01b03166135cb565b6001830154604051632b2b520160e21b81526001600160a01b0391821660048201529192506000919083169063acad48049060240160c060405180830381865afa158015611606573d6000803e3d6000fd5b505050506040513d601f19601f8201168201806040525081019061162a919061473d565b90506116388142600161363e565b600060016002860154600160a01b900460ff16600681111561165c5761165c61417f565b0361166c5750600484015461168b565b60068501546003860154600487015461168892909160006138cf565b90505b60006116b18660020160159054906101000a900460ff16876005015484600160006136c3565b905060006116d98760060154886003015460018a600401546138cf909392919063ffffffff16565b905060006117018860020160159054906101000a900460ff16896005015484600060016136c3565b905060008184111561171e57611717828561487f565b9050611722565b5060005b60008054611738906001600160a01b0316613734565b90506001600160a01b0381166394e73d4160043360028d01546040516001600160e01b031960e086901b16815261177f9392916001600160a01b0316908890600401614892565b600060405180830381600087803b15801561179957600080fd5b505af11580156117ad573d6000803e3d6000fd5b5050505060028a01805462ff00ff60a01b19166201000360a11b17905560405133906001600160a01b038e16907f44c8758b12c08563c75c661ea58392b27d85df40fc349e1051f6e432b46508c090600090a350505050505050505050505050565b60006118236099546001600160a01b031690565b6001600160a01b0316146118495760405162dc149f60e41b815260040160405180910390fd5b61185281613914565b50565b6000546001600160a01b03163360405163224c50cb60e21b8152600360048201526000906001600160a01b03841690638931432c90602401602060405180830381865afa1580156118aa573d6000803e3d6000fd5b505050506040513d601f19601f820116820180604052508101906118ce9190614833565b9050806001600160a01b0316826001600160a01b0316146119025760405163252e956960e11b815260040160405180910390fd5b6001600160a01b038087166000908152603460209081526040808320938b16835260339091529020600881015461193a9088906148c9565b6008820155600981015461194f9087906148c9565b600982015560018201805460ff19166002179055604080516001600160a01b038b811682528a166020820152908101889052606081018790527f9c1c932372f96d508824b8e8237e0a15ef9a764c77657718f61fc92771d3bc339060800160405180910390a1505050505050505050565b6000546001600160a01b03163360405163224c50cb60e21b8152600360048201526000906001600160a01b03841690638931432c90602401602060405180830381865afa158015611a15573d6000803e3d6000fd5b505050506040513d601f19601f82011682018060405250810190611a399190614833565b9050806001600160a01b0316826001600160a01b031614611a6d5760405163252e956960e11b815260040160405180910390fd5b6001600160a01b038516600090815260346020526040902060018082018054879260ff1990911690836002811115611aa757611aa761417f565b02179055507f0ac45c5751295d708f6d47545480eda6fd7623a602ac1a65ebc67483fd3235568686604051611add9291906148dc565b60405180910390a1505050505050565b611af56137b4565b611aff6000613914565b565b60978181548110611b1157600080fd5b6000918252602090912001546001600160a01b0316905081565b60606096805480602002602001604051908101604052809291908181526020018280548015610962576020028201919060005260206000209081546001600160a01b03168152600190910190602001808311610944575050505050905090565b6001600160a01b0382811660009081526034602090815260408083209385168352603390915290203360018301546201000090046001600160a01b03908116911614611be9576040516282b42960e81b815260040160405180910390fd5b60038201546001600160a01b03848116911614611c3257600382015460405163259935ab60e01b81526001600160a01b0391821660048201529084166024820152604401610b35565b60018083015460ff166002811115611c4c57611c4c61417f565b14611c75576001828101546040516305a7e4c560e21b8152610b35929160ff1690600401614850565b60028082810154600160b01b900460ff1690811115611c9657611c9661417f565b14611cc657600281810154604051630587038160e01b8152610b359291600160b01b900460ff1690600401614850565b600381015460048083015490840154600092611ce292846138cf565b90506000611d098360020160159054906101000a900460ff168460050154846000806136c3565b60028401546001600160a01b0390811660009081526035602052604081208154939450929091611d399116613734565b90506001600160a01b0381166394e73d4160043360028601546040516001600160e01b031960e086901b168152611d809392916001600160a01b0316908990600401614892565b600060405180830381600087803b158015611d9a57600080fd5b505af1158015611dae573d6000803e3d6000fd5b5050505060018601805460ff1916600217905560405133906001600160a01b038916907fc40bbf1b679caa8e74b6582ad1ede071006e9a8f4f676da5fbbeee9d02a45ccd90600090a35050505050505050565b60606098805480602002602001604051908101604052809291908181526020018280548015610962576020028201919060005260206000209081546001600160a01b03168152600190910190602001808311610944575050505050905090565b611e696137b4565b8015611e7c57611e77613966565b611e84565b611e846139c6565b60405181151581527f6c82eb8f861cdde5f2fdbdc7c547ba478de85dd25a1697ec176cec341e5158979060200160405180910390a150565b6001600160a01b03808216600081815260336020908152604080832087861684526034909252909120600681015491939092911614611f2757600681015460405163259935ab60e01b81526001600160a01b0391821660048201529084166024820152604401610b35565b60018201546001600160a01b03163314611f53576040516282b42960e81b815260040160405180910390fd5b60016002830154600160a01b900460ff166006811115611f7557611f7561417f565b14611f93576040516329de90c560e11b815260040160405180910390fd5b60028201546001600160a01b03908116600090815260356020526040812081549092611fbf91166135cb565b6001830154604051632b2b520160e21b81526001600160a01b0391821660048201529192506000919083169063acad48049060240160c060405180830381865afa158015612011573d6000803e3d6000fd5b505050506040513d601f19601f82011682018060405250810190612035919061473d565b90506120438142600161363e565b6000835460ff16600181111561205b5761205b61417f565b1480612072575060038401546001600160a01b0316155b1561213d5760006120a78660020160159054906101000a900460ff168760040154886003015489600601548a60050154613a02565b60008054919250906120c1906001600160a01b0316613734565b90506001600160a01b0381166394e73d4160043360028901546040516001600160e01b031960e086901b1681526121089392916001600160a01b0316908890600401614892565b600060405180830381600087803b15801561212257600080fd5b505af1158015612136573d6000803e3d6000fd5b5050505050505b60028501805460ff60a01b1916600360a01b17905560405133906001600160a01b038816907f25e625a1149fb16ce8c4963e5e117f0800095860b3d77b51a4ce2f2e80e9867490600090a350505050505050565b6040805160e081018252600080825260208201819052918101829052606081018290526080810182905260a0810182905260c08101919091526001600160a01b03821660009081526035602052604090819020815160e081019092528054829060ff1660018111156122055761220561417f565b60018111156122165761221661417f565b815281546001600160a01b03610100909104811660208301526001830154811660408301526002830154811660608301526003830154166080820152600482015460a082015260059091015460c09091015292915050565b8060000361228f576040516310eb483f60e21b815260040160405180910390fd5b6001600160a01b038083166000908152603360209081526040808320600281015490941683526035909152902060016002830154600160a01b900460ff1660068111156122de576122de61417f565b146122fc576040516329de90c560e11b815260040160405180910390fd5b600682015461230b90846148c9565b82600301541015612349576003820154600683015460405163086e3fa560e11b81526004810192909252602482015260448101849052606401610b35565b6000805461235f906001600160a01b03166135cb565b6001830154604051632b2b520160e21b81526001600160a01b0391821660048201529192506000919083169063acad48049060240160c060405180830381865afa1580156123b1573d6000803e3d6000fd5b505050506040513d601f19601f820116820180604052508101906123d5919061473d565b90506123e38142600161363e565b5060006001600160a01b0382166321874ae2336040516001600160e01b031960e084901b1681526001600160a01b039091166004820152602401606060405180830381865afa15801561243a573d6000803e3d6000fd5b505050506040513d601f19601f8201168201806040525081019061245e91906148f5565b905060006001600160a01b038316633ca814e7336040516001600160e01b031960e084901b1681526001600160a01b039091166004820152602401602060405180830381865afa1580156124b6573d6000803e3d6000fd5b505050506040513d601f19601f820116820180604052508101906124da9190614965565b905060006124e9603254613a62565b6001600160a01b0380821660009081526034602052604090206001015491925062010000909104161561252f57604051631ee119cb60e31b815260040160405180910390fd5b6004860154600387015460009161254a918a919060016138cf565b9050600061255c8285620f4240613a94565b9050600061257b886005015461271085613a949092919063ffffffff16565b6000805491925090612595906001600160a01b0316613734565b90506125a58385848c8e86613b59565b8a8a600601546125b591906148c9565b60068b015560408051610120810190915260325481526020810160018152602001600060028d0154600160a81b900460ff1660018111156125f8576125f861417f565b14612604576000612607565b60015b60018111156126185761261861417f565b8152602001336001600160a01b031681526020018b60020160009054906101000a90046001600160a01b03166001600160a01b031681526020018d6001600160a01b031681526020018c815260200185815260200160006001600160a01b031681525060346000876001600160a01b03166001600160a01b031681526020019081526020016000206000820151816000015560208201518160010160006101000a81548160ff021916908360028111156126d4576126d461417f565b021790555060408201518160010160016101000a81548160ff021916908360018111156127035761270361417f565b02179055506060820151600180830180546001600160a01b03938416620100000262010000600160b01b031990911617905560808401516002840180549184166001600160a01b031992831617905560a085015160038501805491851691831691909117905560c0850151600485015560e08501516005850155610100909401516006909301805493909216929093169190911790556032546127a5916148c9565b60325560006127b88486888d8c87613c19565b9050808a600401546127ca91906148c9565b60048b01556127dd8d84878e8e87613ddf565b604080513381526001600160a01b0388811660208301529181018e9052606081018790526080810185905260a08101839052908e16907f22e54b9a50e71cf9553b38b29d90af380f3c501c356b5319610ba4cddf989ab49060c00160405180910390a25050609780546001810182556000919091527f354a83ed9988f79f6038d4c7a7dadbad8af32f4ad6df893e0e5807a1b1944ff90180546001600160a01b0319166001600160a01b03959095169490941790935550505050505050505050565b6000546001600160a01b03163360405163224c50cb60e21b8152600360048201526000906001600160a01b03841690638931432c90602401602060405180830381865afa1580156128f4573d6000803e3d6000fd5b505050506040513d601f19601f820116820180604052508101906129189190614833565b9050806001600160a01b0316826001600160a01b03161461294c5760405163252e956960e11b815260040160405180910390fd5b6001600160a01b038516600090815260336020526040902060028101805486919060ff60a01b1916600160a01b83600681111561298b5761298b61417f565b02179055507fcee6454a0cd08795e3b702a0217f4f785a57cd4bbc4261a120a6a75dc68258388686604051611add92919061497e565b60968181548110611b1157600080fd5b60988181548110611b1157600080fd5b6001600160a01b03808216600081815260336020908152604080832087861684526034909252909120600681015491939092911614612a4c57600681015460405163259935ab60e01b81526001600160a01b0391821660048201529084166024820152604401610b35565b60018201546001600160a01b03163314612a78576040516282b42960e81b815260040160405180910390fd5b60036002830154600160a01b900460ff166006811115612a9a57612a9a61417f565b14612ab8576040516329de90c560e11b815260040160405180910390fd5b60008054612ace906001600160a01b03166135cb565b60028401546001600160a01b0390811660009081526035602052604080822060018101549151632b2b520160e21b81529184166004830152939450909184169063acad48049060240160c060405180830381865afa158015612b34573d6000803e3d6000fd5b505050506040513d601f19601f82011682018060405250810190612b58919061473d565b9050612b668142600161363e565b6000825460ff166001811115612b7e57612b7e61417f565b1480612b95575060038401546001600160a01b0316155b15612c61576000612bca8660020160159054906101000a900460ff168760040154886003015489600601548a60050154613a02565b6000805491925090612be4906001600160a01b0316613734565b90506001600160a01b038116638e506349343360028801546040516001600160e01b031960e086901b168152612c2c92916001600160a01b031690889060009060040161480a565b6000604051808303818588803b158015612c4557600080fd5b505af1158015612c59573d6000803e3d6000fd5b505050505050505b60028501805460ff60a01b1916600160a01b17905560405133906001600160a01b038816907fb4dfd0550ea47fdadec7d07c7346a43f466b4826d370a65b736ab28c3cd647f190600090a350505050505050565b60408101351580612cc857506060810135155b15612ce6576040516310eb483f60e21b815260040160405180910390fd5b6127108160a001351115612d0d5760405163df0704fb60e01b815260040160405180910390fd5b61271081608001351015612d345760405163731b1b8d60e11b815260040160405180910390fd5b60008054612d4a906001600160a01b03166135cb565b905060006001600160a01b03821663acad4804612d6a6020860186614162565b6040516001600160e01b031960e084901b1681526001600160a01b03909116600482015260240160c060405180830381865afa158015612dae573d6000803e3d6000fd5b505050506040513d601f19601f82011682018060405250810190612dd2919061473d565b9050612de08142600161363e565b6000612ded60325461401a565b90506000612dfc603254613764565b90506000612e0b603254613a62565b6001600160a01b038481166000908152603560205260409020549192506101009091041615612e4d57604051631e1695a760e01b815260040160405180910390fd5b6001600160a01b038281166000908152603360205260409020600101541615612e895760405163eb12446160e01b815260040160405180910390fd5b6001600160a01b038181166000908152603460205260409020600101546201000090041615612ecb57604051631ee119cb60e31b815260040160405180910390fd5b603254612ed99060016148c9565b6032556000612f03612ef160e0890160c08a016149a8565b886080013589606001356001806136c3565b6000805491925090612f1d906001600160a01b0316613734565b90506001600160a01b038116638e5063493433612f4060408d0160208e01614162565b8660006040518663ffffffff1660e01b8152600401612f62949392919061480a565b6000604051808303818588803b158015612f7b57600080fd5b505af1158015612f8f573d6000803e3d6000fd5b505050505050506040518060e001604052808760e0016020810190612fb491906149a8565b6001811115612fc557612fc561417f565b8152602001336001600160a01b03168152602090810190612fe890890189614162565b6001600160a01b031681526020018760200160208101906130099190614162565b6001600160a01b0390811682528481166020808401919091526000604080850182905260a08c01356060909501949094529187168252603590522081518154829060ff1916600183818111156130615761306161417f565b021790555060208281015182546001600160a01b0391821661010002610100600160a81b03199091161783556040808501516001850180549184166001600160a01b0319928316179055606086015160028601805491851691831691909117905560808601516003860180549190941691161790915560a0840151600484015560c09093015160059092019190915581516101c08101909252603254825281016131083390565b6001600160a01b039081168252851660208201526040016001815260200161313660e0890160c08a016149a8565b60018111156131475761314761417f565b8152602001600081526040808901356020808401919091526060808b0135838501526080808c013582860152600090850181905260a0850181905260c0850181905260e085018190526101009094018490526001600160a01b038088168552603383529383902085518155918501516001830180549186166001600160a01b031992831617905592850151600283018054919095169381168417855590850151919391926001600160a81b031990911617600160a01b83600681111561320f5761320f61417f565b0217905550608082015160028201805460ff60a81b1916600160a81b83600181111561323d5761323d61417f565b021790555060a08201518160020160166101000a81548160ff0219169083600281111561326c5761326c61417f565b021790555060c0820151600382015560e0820151600482015561010082015160058201556101208083015160068301556101408301516007830155610160830151600883015561018083015160098301556101a090920151600a909101556040805191820190526032548152602081016001815260200160006132f560e08a0160c08b016149a8565b60018111156133065761330661417f565b14613312576000613315565b60015b60018111156133265761332661417f565b8152336020808301919091526001600160a01b03868116604080850191909152600060608086018290528c83013560808701528c013560a086015287831660c090950194909452908516835260348252909120825181559082015160018083018054909160ff19909116908360028111156133a3576133a361417f565b021790555060408201518160010160016101000a81548160ff021916908360018111156133d2576133d261417f565b0217905550606082015160018201805462010000600160b01b031916620100006001600160a01b039384160217905560808301516002830180546001600160a01b031990811692841692909217905560a0840151600384018054831691841691909117905560c0840151600484015560e08401516005840155610100909301516006909201805490931691811691909117909155818116908481169084167f97bc190ea239994fe26cd6ded46798af67d32bbea4c7becae939501ce6b3b42061349e60208b018b614162565b604080516001600160a01b039290921682523360208301528b810135828201526060808d013590830152519081900360800190a46096805460018181019092557f6aa7ec8ac2a999a90ce6c78668dffe4e487e2576a97ca366ec81ecb335af90d00180546001600160a01b039485166001600160a01b031991821617909155609780548084019091557f354a83ed9988f79f6038d4c7a7dadbad8af32f4ad6df893e0e5807a1b1944ff9018054938516938216939093179092556098805491820181556000527f2237a976fa961f5921fd19f2b03c925c725d77b20ce8f790c19709c03de4d814018054939092169216919091179055505050565b6135a16137b4565b6001600160a01b03811661184957604051631e4fbdf760e01b815260006004820152602401610b35565b60405163224c50cb60e21b8152600160048201526000906001600160a01b03831690638931432c906024015b602060405180830381865afa158015613614573d6000803e3d6000fd5b505050506040513d601f19601f820116820180604052508101906136389190614833565b92915050565b600061364a838561404c565b905081600481111561365e5761365e61417f565b8160048111156136705761367061417f565b146136bd5760405162461bcd60e51b815260206004820152601d60248201527f4d69736d617463686564204d61726b6574706c616365207374617475730000006044820152606401610b35565b50505050565b600060018660018111156136d9576136d961417f565b1480156136e35750825b156136ef57508261372b565b60008660018111156137035761370361417f565b14801561370e575082155b1561371a57508261372b565b6137288486612710856138cf565b90505b95945050505050565b60405163224c50cb60e21b8152600560048201526000906001600160a01b03831690638931432c906024016135f7565b6000816040516020016137969181526040602082018190526005908201526437b33332b960d91b606082015260800190565b60408051601f19818403018152919052805160209091012092915050565b6099546001600160a01b03163314611aff5760405163118cdaa760e01b8152336004820152602401610b35565b604080518082018252601981527f7472616e7366657228616464726573732c75696e74323536290000000000000060209182015281516001600160a01b0385811660248301526044808301869052845180840390910181526064909201845291810180516001600160e01b031663a9059cbb60e01b17905291516000929186169161386b916149c5565b6000604051808303816000865af19150503d80600081146138a8576040519150601f19603f3d011682016040523d82523d6000602084013e6138ad565b606091505b50509050806136bd576040516312171d8360e31b815260040160405180910390fd5b6000806138dd868686613a94565b90506138e8836140cb565b80156139045750600084806138ff576138ff6149f4565b868809115b1561372b576137286001826148c9565b609980546001600160a01b038381166001600160a01b0319831681179093556040519116919082907f8be0079c531659141344cd1fd0a4f28419497f9722a3daafe3b4186f6b6457e090600090a35050565b61396e6140f8565b6099805460ff60a01b1916600160a01b1790557f62e78cea01bee320cd4e420270b5ea74000d11b0c9f74754ebdbfc544b05a2586139a93390565b6040516001600160a01b03909116815260200160405180910390a1565b6139ce614123565b6099805460ff60a01b191690557f5db9ee0a495bf2e6ff9c91a7834c1ba4fdd244a5e8aa4e537bd38aeae4b073aa336139a9565b600080613a1286858760016138cf565b90506001876001811115613a2857613a2861417f565b03613a3f57613a37818761487f565b91505061372b565b613a57613a4c828861487f565b8461271060006138cf565b979650505050505050565b6000816040516020016137969181526040602082018190526005908201526473746f636b60d81b606082015260800190565b6000838302816000198587098281108382030391505080600003613acb57838281613ac157613ac16149f4565b0492505050613b52565b808411613aeb5760405163227bc15360e01b815260040160405180910390fd5b6000848688096000868103871696879004966002600389028118808a02820302808a02820302808a02820302808a02820302808a02820302808a02909103029181900381900460010186841190950394909402919094039290920491909117919091029150505b9392505050565b6000613b7f8360020160159054906101000a900460ff16846005015488600060016136c3565b905084613b8c88836148c9565b613b9691906148c9565b90506001600160a01b038216638e506349343360028801546040516001600160e01b031960e086901b168152613bde92916001600160a01b031690879060009060040161480a565b6000604051808303818588803b158015613bf757600080fd5b505af1158015613c0b573d6000803e3d6000fd5b505050505050505050505050565b81516000906001600160a01b0316613c32575085613dd5565b6020830151600090613c4a908990620f4240846138cf565b845160028701546040516394e73d4160e01b81529293506001600160a01b03808716936394e73d4193613c899360019391929116908790600401614892565b600060405180830381600087803b158015613ca357600080fd5b505af1158015613cb7573d6000803e3d6000fd5b505050604085015160009150613cd3908a90620f4240846138cf565b90506001600160a01b0384166394e73d4160013360028a01546040516001600160e01b031960e086901b168152613d1a9392916001600160a01b0316908790600401614892565b600060405180830381600087803b158015613d3457600080fd5b505af1158015613d48573d6000803e3d6000fd5b5050505080828a613d59919061487f565b613d63919061487f565b92506001600160a01b0387167f600aa8da1ee2a76ab6cba8e89a198948580c716bd31657d3d898d2142d9f9efe338751604080516001600160a01b039384168152929091166020830152810184905260608101859052608081018b905260a081018c905260c00160405180910390a250505b9695505050505050565b60038201546001600160a01b0387811691161480613e1257506000825460ff166001811115613e1057613e1061417f565b145b15613e9057600183015460028301546040516394e73d4160e01b81526001600160a01b03848116936394e73d4193613e599360009392831692909116908b90600401614892565b600060405180830381600087803b158015613e7357600080fd5b505af1158015613e87573d6000803e3d6000fd5b50505050613f07565b815460028301546040516394e73d4160e01b81526001600160a01b03848116936394e73d4193613ed493600093610100909304831692909116908b90600401614892565b600060405180830381600087803b158015613eee57600080fd5b505af1158015613f02573d6000803e3d6000fd5b505050505b60006002840154600160a81b900460ff166001811115613f2957613f2961417f565b03613fa55760018301546002838101546040516394e73d4160e01b81526001600160a01b03808616946394e73d4194613f6e9490939183169216908a90600401614892565b600060405180830381600087803b158015613f8857600080fd5b505af1158015613f9c573d6000803e3d6000fd5b50505050614012565b6002828101546040516394e73d4160e01b81526001600160a01b03848116936394e73d4193613fdf93919233929116908a90600401614892565b600060405180830381600087803b158015613ff957600080fd5b505af115801561400d573d6000803e3d6000fd5b505050505b505050505050565b6000816040516020016137969181526040602082018190526005908201526436b0b5b2b960d91b606082015260800190565b60006004826020015160048111156140665761406661417f565b0361407357506004613638565b816080015160000361408a57506020810151613638565b8160a00151826080015161409e91906148c9565b8311156140ad57506003613638565b81608001518311156140c157506002613638565b5060200151919050565b600060028260038111156140e1576140e161417f565b6140eb9190614a0a565b60ff166001149050919050565b609954600160a01b900460ff1615611aff5760405163d93c066560e01b815260040160405180910390fd5b609954600160a01b900460ff16611aff57604051638dfc202b60e01b815260040160405180910390fd5b6001600160a01b038116811461185257600080fd5b60006020828403121561417457600080fd5b8135613b528161414d565b634e487b7160e01b600052602160045260246000fd5b600781106141a5576141a561417f565b9052565b600281106118525761185261417f565b6141a5816141a9565b600381106118525761185261417f565b6141a5816141c2565b815181526020808301516101c08301916141ff908401826001600160a01b03169052565b50604083015161421a60408401826001600160a01b03169052565b50606083015161422d6060840182614195565b50608083015161424060808401826141b9565b5060a083015161425360a08401826141d2565b5060c0838101519083015260e08084015190830152610100808401519083015261012080840151908301526101408084015190830152610160808401519083015261018080840151908301526101a092830151929091019190915290565b6020808252825182820181905260009190848201906040850190845b818110156142f25783516001600160a01b0316835292840192918401916001016142cd565b50909695505050505050565b60008060006060848603121561431357600080fd5b833561431e8161414d565b95602085013595506040909401359392505050565b60008060006060848603121561434857600080fd5b83356143538161414d565b925060208401356143638161414d565b929592945050506040919091013590565b81518152602082015161012082019061438c816141c2565b6020830152604083015161439f816141a9565b8060408401525060608301516143c060608401826001600160a01b03169052565b5060808301516143db60808401826001600160a01b03169052565b5060a08301516143f660a08401826001600160a01b03169052565b5060c083015160c083015260e083015160e083015261010080840151614426828501826001600160a01b03169052565b505092915050565b6000806040838503121561444157600080fd5b823561444c8161414d565b9150602083013561445c8161414d565b809150509250929050565b6000806000806080858703121561447d57600080fd5b84356144888161414d565b935060208501356144988161414d565b93969395505050506040820135916060013590565b600080604083850312156144c057600080fd5b82356144cb8161414d565b915060208301356003811061445c57600080fd5b60e081016144ec896141a9565b9781526001600160a01b039687166020820152948616604086015292851660608501529316608083015260a082019290925260c0015290565b60006020828403121561453757600080fd5b5035919050565b898152610120810161454f8a6141c2565b89602083015261455e896141a9565b60408201989098526001600160a01b039687166060820152948616608086015292851660a085015260c084019190915260e08301529091166101009091015292915050565b801515811461185257600080fd5b6000602082840312156145c357600080fd5b8135613b52816145a3565b815160e08201906145de816141a9565b80835250602083015160018060a01b038082166020850152806040860151166040850152806060860151166060850152806080860151166080850152505060a083015160a083015260c083015160c083015292915050565b6000806040838503121561464957600080fd5b82356146548161414d565b946020939093013593505050565b6000806040838503121561467557600080fd5b82356146808161414d565b915060208301356007811061445c57600080fd5b600061010082840312156146a757600080fd5b50919050565b8e81526001600160a01b038e811660208301528d1660408201526101c081016146d9606083018e614195565b6146e28c6141a9565b8b60808301526146f560a083018c6141d2565b60c082019990995260e08101979097526101008701959095526101208601939093526101408501919091526101608401526101808301526101a0909101529695505050505050565b600060c0828403121561474f57600080fd5b60405160c0810181811067ffffffffffffffff8211171561478057634e487b7160e01b600052604160045260246000fd5b604052825161478e816145a3565b81526020830151600581106147a257600080fd5b602082015260408301516147b58161414d565b80604083015250606083015160608201526080830151608082015260a083015160a08201528091505092915050565b604081016147f1846141a9565b8382526147fd836141a9565b8260208301529392505050565b6001600160a01b0394851681529290931660208301526040820152901515606082015260800190565b60006020828403121561484557600080fd5b8151613b528161414d565b6040810161485d846141c2565b8382526147fd836141c2565b634e487b7160e01b600052601160045260246000fd5b8181038181111561363857613638614869565b60808101600686106148a6576148a661417f565b9481526001600160a01b0393841660208201529190921660408201526060015290565b8082018082111561363857613638614869565b6001600160a01b0383168152604081016147fd836141c2565b60006060828403121561490757600080fd5b6040516060810181811067ffffffffffffffff8211171561493857634e487b7160e01b600052604160045260246000fd5b60405282516149468161414d565b8152602083810151908201526040928301519281019290925250919050565b60006020828403121561497757600080fd5b5051919050565b6001600160a01b038316815260408101613b526020830184614195565b6002811061185257600080fd5b6000602082840312156149ba57600080fd5b8135613b528161499b565b6000825160005b818110156149e657602081860181015185830152016149cc565b506000920191825250919050565b634e487b7160e01b600052601260045260246000fd5b600060ff831680614a2b57634e487b7160e01b600052601260045260246000fd5b8060ff8416069150509291505056fea26469706673582212201be25f3c851e89aa9f2379e4f636daf94c9e515da91ed84c95876686492c9dd664736f6c63430008190033","linkReferences":{}},"methodIdentifiers":{"abortAskOffer(address,address)":"5cabfd08","abortBidTaker(address,address)":"b5ec4375","closeOffer(address,address)":"c9ac4f6d","createOffer((address,address,uint256,uint256,uint256,uint256,uint8,uint8))":"f17f9c43","createTaker(address,uint256)":"d19b5e64","getMakerAddresses()":"bc1c1c6c","getMakerInfo(address)":"cfbd9a41","getOfferAddresses()":"9a99dd98","getOfferInfo(address)":"06cdc841","getStockAddresses()":"0c0bd87d","getStockInfo(address)":"543a1178","initializeOwnership(address)":"5cd9205f","listOffer(address,uint256,uint256)":"0cea99fa","makerAddresses(uint256)":"da52b037","makerInfoMap(address)":"739a8ce4","offerAddresses(uint256)":"d9e61b0e","offerId()":"21ce9f91","offerInfoMap(address)":"fc125c3f","owner()":"8da5cb5b","paused()":"5c975abb","relistOffer(address,address)":"e9ba063c","renounceOwnership()":"715018a6","rescue(address,address,uint256)":"20ff430b","setPauseStatus(bool)":"c38bb537","settleAskTaker(address,address,uint256,uint256)":"5d27d5fe","settledAskOffer(address,uint256,uint256)":"310b1fe4","stockAddresses(uint256)":"772543c2","stockInfoMap(address)":"8ef3b47f","tadleFactory()":"8ef1d7b4","transferOwnership(address)":"f2fde38b","updateOfferStatus(address,uint8)":"d1cda82c","updateStockStatus(address,uint8)":"62f43101"},"id":49}