{"abi":[{"type":"constructor","inputs":[],"stateMutability":"nonpayable"},{"type":"function","name":"abortAskOffer","inputs":[{"name":"_stock","type":"address","internalType":"address"},{"name":"_offer","type":"address","internalType":"address"}],"outputs":[],"stateMutability":"nonpayable"},{"type":"function","name":"abortBidTaker","inputs":[{"name":"_stock","type":"address","internalType":"address"},{"name":"_offer","type":"address","internalType":"address"}],"outputs":[],"stateMutability":"nonpayable"},{"type":"function","name":"closeOffer","inputs":[{"name":"_stock","type":"address","internalType":"address"},{"name":"_offer","type":"address","internalType":"address"}],"outputs":[],"stateMutability":"nonpayable"},{"type":"function","name":"createOffer","inputs":[{"name":"params","type":"tuple","internalType":"struct CreateOfferParams","components":[{"name":"marketPlace","type":"address","internalType":"address"},{"name":"tokenAddress","type":"address","internalType":"address"},{"name":"points","type":"uint256","internalType":"uint256"},{"name":"amount","type":"uint256","internalType":"uint256"},{"name":"collateralRate","type":"uint256","internalType":"uint256"},{"name":"eachTradeTax","type":"uint256","internalType":"uint256"},{"name":"offerType","type":"uint8","internalType":"enum OfferType"},{"name":"offerSettleType","type":"uint8","internalType":"enum OfferSettleType"}]}],"outputs":[],"stateMutability":"payable"},{"type":"function","name":"createTaker","inputs":[{"name":"_offer","type":"address","internalType":"address"},{"name":"_points","type":"uint256","internalType":"uint256"}],"outputs":[],"stateMutability":"payable"},{"type":"function","name":"getMakerInfo","inputs":[{"name":"_maker","type":"address","internalType":"address"}],"outputs":[{"name":"_makerInfo","type":"tuple","internalType":"struct MakerInfo","components":[{"name":"offerSettleType","type":"uint8","internalType":"enum OfferSettleType"},{"name":"authority","type":"address","internalType":"address"},{"name":"marketPlace","type":"address","internalType":"address"},{"name":"tokenAddress","type":"address","internalType":"address"},{"name":"originOffer","type":"address","internalType":"address"},{"name":"platformFee","type":"uint256","internalType":"uint256"},{"name":"eachTradeTax","type":"uint256","internalType":"uint256"}]}],"stateMutability":"view"},{"type":"function","name":"getOfferInfo","inputs":[{"name":"_offer","type":"address","internalType":"address"}],"outputs":[{"name":"_offerInfo","type":"tuple","internalType":"struct OfferInfo","components":[{"name":"id","type":"uint256","internalType":"uint256"},{"name":"authority","type":"address","internalType":"address"},{"name":"maker","type":"address","internalType":"address"},{"name":"offerStatus","type":"uint8","internalType":"enum OfferStatus"},{"name":"offerType","type":"uint8","internalType":"enum OfferType"},{"name":"abortOfferStatus","type":"uint8","internalType":"enum AbortOfferStatus"},{"name":"points","type":"uint256","internalType":"uint256"},{"name":"amount","type":"uint256","internalType":"uint256"},{"name":"collateralRate","type":"uint256","internalType":"uint256"},{"name":"usedPoints","type":"uint256","internalType":"uint256"},{"name":"tradeTax","type":"uint256","internalType":"uint256"},{"name":"settledPoints","type":"uint256","internalType":"uint256"},{"name":"settledPointTokenAmount","type":"uint256","internalType":"uint256"},{"name":"settledCollateralAmount","type":"uint256","internalType":"uint256"}]}],"stateMutability":"view"},{"type":"function","name":"getStockInfo","inputs":[{"name":"_stock","type":"address","internalType":"address"}],"outputs":[{"name":"_stockInfo","type":"tuple","internalType":"struct StockInfo","components":[{"name":"id","type":"uint256","internalType":"uint256"},{"name":"stockStatus","type":"uint8","internalType":"enum StockStatus"},{"name":"stockType","type":"uint8","internalType":"enum StockType"},{"name":"authority","type":"address","internalType":"address"},{"name":"maker","type":"address","internalType":"address"},{"name":"preOffer","type":"address","internalType":"address"},{"name":"points","type":"uint256","internalType":"uint256"},{"name":"amount","type":"uint256","internalType":"uint256"},{"name":"offer","type":"address","internalType":"address"}]}],"stateMutability":"view"},{"type":"function","name":"initializeOwnership","inputs":[{"name":"_newOwner","type":"address","internalType":"address"}],"outputs":[],"stateMutability":"nonpayable"},{"type":"function","name":"listOffer","inputs":[{"name":"_stock","type":"address","internalType":"address"},{"name":"_amount","type":"uint256","internalType":"uint256"},{"name":"_collateralRate","type":"uint256","internalType":"uint256"}],"outputs":[],"stateMutability":"payable"},{"type":"function","name":"makerInfoMap","inputs":[{"name":"","type":"address","internalType":"address"}],"outputs":[{"name":"offerSettleType","type":"uint8","internalType":"enum OfferSettleType"},{"name":"authority","type":"address","internalType":"address"},{"name":"marketPlace","type":"address","internalType":"address"},{"name":"tokenAddress","type":"address","internalType":"address"},{"name":"originOffer","type":"address","internalType":"address"},{"name":"platformFee","type":"uint256","internalType":"uint256"},{"name":"eachTradeTax","type":"uint256","internalType":"uint256"}],"stateMutability":"view"},{"type":"function","name":"offerId","inputs":[],"outputs":[{"name":"","type":"uint256","internalType":"uint256"}],"stateMutability":"view"},{"type":"function","name":"offerInfoMap","inputs":[{"name":"","type":"address","internalType":"address"}],"outputs":[{"name":"id","type":"uint256","internalType":"uint256"},{"name":"authority","type":"address","internalType":"address"},{"name":"maker","type":"address","internalType":"address"},{"name":"offerStatus","type":"uint8","internalType":"enum OfferStatus"},{"name":"offerType","type":"uint8","internalType":"enum OfferType"},{"name":"abortOfferStatus","type":"uint8","internalType":"enum AbortOfferStatus"},{"name":"points","type":"uint256","internalType":"uint256"},{"name":"amount","type":"uint256","internalType":"uint256"},{"name":"collateralRate","type":"uint256","internalType":"uint256"},{"name":"usedPoints","type":"uint256","internalType":"uint256"},{"name":"tradeTax","type":"uint256","internalType":"uint256"},{"name":"settledPoints","type":"uint256","internalType":"uint256"},{"name":"settledPointTokenAmount","type":"uint256","internalType":"uint256"},{"name":"settledCollateralAmount","type":"uint256","internalType":"uint256"}],"stateMutability":"view"},{"type":"function","name":"owner","inputs":[],"outputs":[{"name":"","type":"address","internalType":"address"}],"stateMutability":"view"},{"type":"function","name":"paused","inputs":[],"outputs":[{"name":"","type":"bool","internalType":"bool"}],"stateMutability":"view"},{"type":"function","name":"relistOffer","inputs":[{"name":"_stock","type":"address","internalType":"address"},{"name":"_offer","type":"address","internalType":"address"}],"outputs":[],"stateMutability":"payable"},{"type":"function","name":"renounceOwnership","inputs":[],"outputs":[],"stateMutability":"nonpayable"},{"type":"function","name":"rescue","inputs":[{"name":"to","type":"address","internalType":"address"},{"name":"token","type":"address","internalType":"address"},{"name":"amount","type":"uint256","internalType":"uint256"}],"outputs":[],"stateMutability":"nonpayable"},{"type":"function","name":"setPauseStatus","inputs":[{"name":"pauseSatus","type":"bool","internalType":"bool"}],"outputs":[],"stateMutability":"nonpayable"},{"type":"function","name":"settleAskTaker","inputs":[{"name":"_offer","type":"address","internalType":"address"},{"name":"_stock","type":"address","internalType":"address"},{"name":"_settledPoints","type":"uint256","internalType":"uint256"},{"name":"_settledPointTokenAmount","type":"uint256","internalType":"uint256"}],"outputs":[],"stateMutability":"nonpayable"},{"type":"function","name":"settledAskOffer","inputs":[{"name":"_offer","type":"address","internalType":"address"},{"name":"_settledPoints","type":"uint256","internalType":"uint256"},{"name":"_settledPointTokenAmount","type":"uint256","internalType":"uint256"}],"outputs":[],"stateMutability":"nonpayable"},{"type":"function","name":"stockInfoMap","inputs":[{"name":"","type":"address","internalType":"address"}],"outputs":[{"name":"id","type":"uint256","internalType":"uint256"},{"name":"stockStatus","type":"uint8","internalType":"enum StockStatus"},{"name":"stockType","type":"uint8","internalType":"enum StockType"},{"name":"authority","type":"address","internalType":"address"},{"name":"maker","type":"address","internalType":"address"},{"name":"preOffer","type":"address","internalType":"address"},{"name":"points","type":"uint256","internalType":"uint256"},{"name":"amount","type":"uint256","internalType":"uint256"},{"name":"offer","type":"address","internalType":"address"}],"stateMutability":"view"},{"type":"function","name":"tadleFactory","inputs":[],"outputs":[{"name":"","type":"address","internalType":"contract ITadleFactory"}],"stateMutability":"view"},{"type":"function","name":"transferOwnership","inputs":[{"name":"newOwner","type":"address","internalType":"address"}],"outputs":[],"stateMutability":"nonpayable"},{"type":"function","name":"updateOfferStatus","inputs":[{"name":"_offer","type":"address","internalType":"address"},{"name":"_status","type":"uint8","internalType":"enum OfferStatus"}],"outputs":[],"stateMutability":"nonpayable"},{"type":"function","name":"updateStockStatus","inputs":[{"name":"_stock","type":"address","internalType":"address"},{"name":"_status","type":"uint8","internalType":"enum StockStatus"}],"outputs":[],"stateMutability":"nonpayable"},{"type":"event","name":"AbortAskOffer","inputs":[{"name":"offer","type":"address","indexed":true,"internalType":"address"},{"name":"authority","type":"address","indexed":true,"internalType":"address"}],"anonymous":false},{"type":"event","name":"AbortBidTaker","inputs":[{"name":"stock","type":"address","indexed":true,"internalType":"address"},{"name":"authority","type":"address","indexed":true,"internalType":"address"}],"anonymous":false},{"type":"event","name":"CloseOffer","inputs":[{"name":"offer","type":"address","indexed":true,"internalType":"address"},{"name":"authority","type":"address","indexed":true,"internalType":"address"}],"anonymous":false},{"type":"event","name":"CreateOffer","inputs":[{"name":"_offer","type":"address","indexed":true,"internalType":"address"},{"name":"_maker","type":"address","indexed":true,"internalType":"address"},{"name":"_stock","type":"address","indexed":true,"internalType":"address"},{"name":"_marketPlace","type":"address","indexed":false,"internalType":"address"},{"name":"_authority","type":"address","indexed":false,"internalType":"address"},{"name":"_points","type":"uint256","indexed":false,"internalType":"uint256"},{"name":"_amount","type":"uint256","indexed":false,"internalType":"uint256"}],"anonymous":false},{"type":"event","name":"CreateTaker","inputs":[{"name":"offer","type":"address","indexed":true,"internalType":"address"},{"name":"authority","type":"address","indexed":false,"internalType":"address"},{"name":"stock","type":"address","indexed":false,"internalType":"address"},{"name":"points","type":"uint256","indexed":false,"internalType":"uint256"},{"name":"amount","type":"uint256","indexed":false,"internalType":"uint256"},{"name":"tradeTax","type":"uint256","indexed":false,"internalType":"uint256"},{"name":"platformFee","type":"uint256","indexed":false,"internalType":"uint256"}],"anonymous":false},{"type":"event","name":"ListOffer","inputs":[{"name":"offer","type":"address","indexed":true,"internalType":"address"},{"name":"stock","type":"address","indexed":true,"internalType":"address"},{"name":"authority","type":"address","indexed":false,"internalType":"address"},{"name":"points","type":"uint256","indexed":false,"internalType":"uint256"},{"name":"amount","type":"uint256","indexed":false,"internalType":"uint256"}],"anonymous":false},{"type":"event","name":"OfferStatusUpdated","inputs":[{"name":"_offer","type":"address","indexed":false,"internalType":"address"},{"name":"_status","type":"uint8","indexed":false,"internalType":"enum OfferStatus"}],"anonymous":false},{"type":"event","name":"OwnershipTransferred","inputs":[{"name":"previousOwner","type":"address","indexed":true,"internalType":"address"},{"name":"newOwner","type":"address","indexed":true,"internalType":"address"}],"anonymous":false},{"type":"event","name":"Paused","inputs":[{"name":"account","type":"address","indexed":false,"internalType":"address"}],"anonymous":false},{"type":"event","name":"ReferralBonus","inputs":[{"name":"stock","type":"address","indexed":true,"internalType":"address"},{"name":"authority","type":"address","indexed":false,"internalType":"address"},{"name":"referrer","type":"address","indexed":false,"internalType":"address"},{"name":"authorityReferralBonus","type":"uint256","indexed":false,"internalType":"uint256"},{"name":"referrerReferralBonus","type":"uint256","indexed":false,"internalType":"uint256"},{"name":"tradingVolume","type":"uint256","indexed":false,"internalType":"uint256"},{"name":"tradingFee","type":"uint256","indexed":false,"internalType":"uint256"}],"anonymous":false},{"type":"event","name":"RelistOffer","inputs":[{"name":"offer","type":"address","indexed":true,"internalType":"address"},{"name":"authority","type":"address","indexed":true,"internalType":"address"}],"anonymous":false},{"type":"event","name":"Rescue","inputs":[{"name":"to","type":"address","indexed":false,"internalType":"address"},{"name":"token","type":"address","indexed":false,"internalType":"address"},{"name":"amount","type":"uint256","indexed":false,"internalType":"uint256"}],"anonymous":false},{"type":"event","name":"SetPauseStatus","inputs":[{"name":"status","type":"bool","indexed":false,"internalType":"bool"}],"anonymous":false},{"type":"event","name":"SettledAskOffer","inputs":[{"name":"_offer","type":"address","indexed":false,"internalType":"address"},{"name":"_settledPoints","type":"uint256","indexed":false,"internalType":"uint256"},{"name":"_settledPointTokenAmount","type":"uint256","indexed":false,"internalType":"uint256"}],"anonymous":false},{"type":"event","name":"SettledBidTaker","inputs":[{"name":"_offer","type":"address","indexed":false,"internalType":"address"},{"name":"_stock","type":"address","indexed":false,"internalType":"address"},{"name":"_settledPoints","type":"uint256","indexed":false,"internalType":"uint256"},{"name":"_settledPointTokenAmount","type":"uint256","indexed":false,"internalType":"uint256"}],"anonymous":false},{"type":"event","name":"StockStatusUpdated","inputs":[{"name":"_stock","type":"address","indexed":false,"internalType":"address"},{"name":"_status","type":"uint8","indexed":false,"internalType":"enum StockStatus"}],"anonymous":false},{"type":"event","name":"Unpaused","inputs":[{"name":"account","type":"address","indexed":false,"internalType":"address"}],"anonymous":false},{"type":"error","name":"AlreadyInitialized","inputs":[]},{"type":"error","name":"AmountIsZero","inputs":[]},{"type":"error","name":"CallerIsNotDeliveryPlace","inputs":[]},{"type":"error","name":"CallerIsNotRelatedContracts","inputs":[{"name":"","type":"address","internalType":"address"}]},{"type":"error","name":"EnforcedPause","inputs":[]},{"type":"error","name":"ExpectedPause","inputs":[]},{"type":"error","name":"InvalidAbortOfferStatus","inputs":[{"name":"_targetStatus","type":"uint8","internalType":"enum AbortOfferStatus"},{"name":"_currentStatus","type":"uint8","internalType":"enum AbortOfferStatus"}]},{"type":"error","name":"InvalidCollateralRate","inputs":[]},{"type":"error","name":"InvalidEachTradeTaxRate","inputs":[]},{"type":"error","name":"InvalidOffer","inputs":[]},{"type":"error","name":"InvalidOfferAccount","inputs":[{"name":"_targetAccount","type":"address","internalType":"address"},{"name":"_currentAccount","type":"address","internalType":"address"}]},{"type":"error","name":"InvalidOfferStatus","inputs":[]},{"type":"error","name":"InvalidOfferType","inputs":[{"name":"_targetType","type":"uint8","internalType":"enum OfferType"},{"name":"_currentType","type":"uint8","internalType":"enum OfferType"}]},{"type":"error","name":"InvalidStockStatus","inputs":[{"name":"_targetStatus","type":"uint8","internalType":"enum StockStatus"},{"name":"_currentStatus","type":"uint8","internalType":"enum StockStatus"}]},{"type":"error","name":"InvalidStockType","inputs":[{"name":"_targetType","type":"uint8","internalType":"enum StockType"},{"name":"_currentType","type":"uint8","internalType":"enum StockType"}]},{"type":"error","name":"MakerAlreadyExist","inputs":[]},{"type":"error","name":"MathOverflowedMulDiv","inputs":[]},{"type":"error","name":"NotEnoughPoints","inputs":[{"name":"_totalPoints","type":"uint256","internalType":"uint256"},{"name":"_usedPoints","type":"uint256","internalType":"uint256"},{"name":"_points","type":"uint256","internalType":"uint256"}]},{"type":"error","name":"OfferAlreadyExist","inputs":[]},{"type":"error","name":"OwnableInvalidOwner","inputs":[{"name":"owner","type":"address","internalType":"address"}]},{"type":"error","name":"OwnableUnauthorizedAccount","inputs":[{"name":"account","type":"address","internalType":"address"}]},{"type":"error","name":"StockAlreadyExist","inputs":[]},{"type":"error","name":"TransferFailed","inputs":[]},{"type":"error","name":"Unauthorized","inputs":[]}],"bytecode":{"object":"0x6080604052348015600f57600080fd5b503380603557604051631e4fbdf760e01b81526000600482015260240160405180910390fd5b603c81604e565b506096805460ff60a01b1916905560a0565b609680546001600160a01b038381166001600160a01b0319831681179093556040519116919082907f8be0079c531659141344cd1fd0a4f28419497f9722a3daafe3b4186f6b6457e090600090a35050565b61467d806100af6000396000f3fe6080604052600436106101815760003560e01c80638da5cb5b116100d1578063cfbd9a411161008a578063e9ba063c11610064578063e9ba063c1461053f578063f17f9c4314610552578063f2fde38b14610565578063fc125c3f1461058557600080fd5b8063cfbd9a41146104df578063d19b5e641461050c578063d1cda82c1461051f57600080fd5b80638da5cb5b1461039f5780638ef1d7b4146103d15780638ef3b47f146103f1578063b5ec43751461047f578063c38bb5371461049f578063c9ac4f6d146104bf57600080fd5b80635c975abb1161013e5780635d27d5fe116101185780635d27d5fe146102cc57806362f43101146102ec578063715018a61461030c578063739a8ce41461032157600080fd5b80635c975abb146102625780635cabfd081461028c5780635cd9205f146102ac57600080fd5b806306cdc841146101865780630cea99fa146101bc57806320ff430b146101d157806321ce9f91146101f1578063310b1fe414610215578063543a117814610235575b600080fd5b34801561019257600080fd5b506101a66101a1366004613dd5565b610640565b6040516101b39190613e4e565b60405180910390f35b6101cf6101ca366004613f24565b6107f8565b005b3480156101dd57600080fd5b506101cf6101ec366004613f59565b610ee1565b3480156101fd57600080fd5b5061020760325481565b6040519081526020016101b3565b34801561022157600080fd5b506101cf610230366004613f24565b610f8e565b34801561024157600080fd5b50610255610250366004613dd5565b6110c4565b6040516101b39190613f9a565b34801561026e57600080fd5b50609654600160a01b900460ff1660405190151581526020016101b3565b34801561029857600080fd5b506101cf6102a7366004614054565b611204565b3480156102b857600080fd5b506101cf6102c7366004613dd5565b61169b565b3480156102d857600080fd5b506101cf6102e736600461408d565b6116e1565b3480156102f857600080fd5b506101cf6103073660046140d3565b61184c565b34801561031857600080fd5b506101cf611979565b34801561032d57600080fd5b5061038c61033c366004613dd5565b60356020526000908152604090208054600182015460028301546003840154600485015460059095015460ff8516956101009095046001600160a01b039081169594811694938116939216919087565b6040516101b39796959493929190614105565b3480156103ab57600080fd5b506096546001600160a01b03165b6040516001600160a01b0390911681526020016101b3565b3480156103dd57600080fd5b506000546103b9906001600160a01b031681565b3480156103fd57600080fd5b5061046a61040c366004613dd5565b6034602052600090815260409020805460018201546002830154600384015460048501546005860154600690960154949560ff808616966101008704909116956001600160a01b036201000090910481169581169481169392911689565b6040516101b39998979695949392919061414b565b34801561048b57600080fd5b506101cf61049a366004614054565b61198d565b3480156104ab57600080fd5b506101cf6104ba3660046141be565b611c03565b3480156104cb57600080fd5b506101cf6104da366004614054565b611c5e565b3480156104eb57600080fd5b506104ff6104fa366004613dd5565b611f33565b6040516101b391906141db565b6101cf61051a366004614243565b612010565b34801561052b57600080fd5b506101cf61053a36600461426f565b6125f1565b6101cf61054d366004614054565b612713565b6101cf6105603660046142a1565b6129e7565b34801561057157600080fd5b506101cf610580366004613dd5565b61320c565b34801561059157600080fd5b506106266105a0366004613dd5565b603360205260009081526040902080546001820154600283015460038401546004850154600586015460068701546007880154600889015460098a0154600a909a015498996001600160a01b03988916999888169860ff600160a01b8a04811699600160a81b8104821699600160b01b909104909116979096909590949093909290918e565b6040516101b39e9d9c9b9a999897969594939291906142ba565b6106b2604080516101c0810182526000808252602082018190529181018290529060608201908152602001600081526020016000815260200160008152602001600081526020016000815260200160008152602001600081526020016000815260200160008152602001600081525090565b6001600160a01b0382811660009081526033602090815260409182902082516101c081018452815481526001820154851692810192909252600281015493841692820192909252916060830190600160a01b900460ff16600681111561071a5761071a613df2565b600681111561072b5761072b613df2565b81526020016002820160159054906101000a900460ff16600181111561075357610753613df2565b600181111561076457610764613df2565b81526020016002820160169054906101000a900460ff16600281111561078c5761078c613df2565b600281111561079d5761079d613df2565b815260038201546020820152600482015460408201526005820154606082015260068201546080820152600782015460a0820152600882015460c0820152600982015460e0820152600a909101546101009091015292915050565b81600003610819576040516310eb483f60e21b815260040160405180910390fd5b61271081101561083c5760405163731b1b8d60e11b815260040160405180910390fd5b6001600160a01b0383811660009081526034602052604090206001810154909133620100009092041614610882576040516282b42960e81b815260040160405180910390fd5b60038101546001600160a01b03908116600090815260336020908152604080832060028101548516845260359092528220825491939092916108c4911661323e565b6001830154604051632b2b520160e21b81526001600160a01b0391821660048201529192506000919083169063acad48049060240160c060405180830381865afa158015610916573d6000803e3d6000fd5b505050506040513d601f19601f8201168201806040525081019061093a919061434a565b9050610948814260016132b1565b60068501546001600160a01b0316156109745760405163eb12446160e01b815260040160405180910390fd5b60018086810154610100900460ff169081111561099357610993613df2565b146109ca57600185810154604051633b23391160e21b81526109c19291610100900460ff16906004016143f1565b60405180910390fd5b6001835460ff1660018111156109e2576109e2613df2565b03610b615760038301546001600160a01b03908116600081815260336020908152604080832081516101c0810183528154815260018201548716938101939093526002810154958616918301919091529293919290916060830190600160a01b900460ff166006811115610a5857610a58613df2565b6006811115610a6957610a69613df2565b81526020016002820160159054906101000a900460ff166001811115610a9157610a91613df2565b6001811115610aa257610aa2613df2565b81526020016002820160169054906101000a900460ff166002811115610aca57610aca613df2565b6002811115610adb57610adb613df2565b815260200160038201548152602001600482015481526020016005820154815260200160068201548152602001600782015481526020016008820154815260200160098201548152602001600a8201548152505090508061010001518814610b565760405163731b1b8d60e11b815260040160405180910390fd5b600160a09190910152505b6000835460ff166001811115610b7957610b79613df2565b03610c3a576000610ba38560020160159054906101000a900460ff1686600501548a600180613336565b6000805491925090610bbd906001600160a01b03166133a7565b90506001600160a01b038116638e506349343360028901546040516001600160e01b031960e086901b168152610c0592916001600160a01b0316908890600090600401614417565b6000604051808303818588803b158015610c1e57600080fd5b505af1158015610c32573d6000803e3d6000fd5b505050505050505b6000610c4986600001546133d7565b6001600160a01b038082166000908152603360205260409020600101549192501615610c885760405163eb12446160e01b815260040160405180910390fd5b604080516101c081019091528654815260208101336001600160a01b0390811682526002880154166020820152604001600181526020018660020160159054906101000a900460ff166001811115610ce257610ce2613df2565b815260200160008152600488015460208083019190915260408083018c905260608084018c905260006080850181905260a0850181905260c0850181905260e085018190526101009094018490526001600160a01b038087168552603384529382902085518155928501516001840180549186166001600160a01b0319928316179055918501516002840180549190951692811683178555908501519293916001600160a81b031990911617600160a01b836006811115610da557610da5613df2565b0217905550608082015160028201805460ff60a81b1916600160a81b836001811115610dd357610dd3613df2565b021790555060a08201518160020160166101000a81548160ff02191690836002811115610e0257610e02613df2565b021790555060c0820151600382015560e0820151600482015561010082015160058201556101208201516006808301919091556101408301516007830155610160830151600883015561018083015160098301556101a090920151600a90910155860180546001600160a01b0319166001600160a01b03838116918217909255908a16907f1f752904b26564a71089509e5f90036e434f6e7110a73bf6a4b47debf4eb24273360048a0154604080516001600160a01b039093168352602083019190915281018c905260600160405180910390a3505050505050505050565b610ee9613427565b6001600160a01b038216610f33576040516001600160a01b0384169082156108fc029083906000818181858888f19350505050158015610f2d573d6000803e3d6000fd5b50610f3e565b610f3e828483613454565b604080516001600160a01b038086168252841660208201529081018290527fe01920728668d89f092ef9cb92036bad90964bb622eec508d2c3ffe1d582efb29060600160405180910390a1505050565b6000546001600160a01b03163360405163224c50cb60e21b8152600360048201526000906001600160a01b03841690638931432c90602401602060405180830381865afa158015610fe3573d6000803e3d6000fd5b505050506040513d601f19601f820116820180604052508101906110079190614440565b9050806001600160a01b0316826001600160a01b03161461103b5760405163252e956960e11b815260040160405180910390fd5b6001600160a01b0386166000818152603360209081526040918290206008810189905560098101889055600281018054600360a11b60ff60a01b199091161790558251938452908301889052908201869052907f1c863fdc85ca43c5cb20d0f7922c708f83963478f06d3c14ec837f90997a79989060600160405180910390a150505050505050565b6111146040805161012081019091526000808252602082019081526020016000815260006020820181905260408201819052606082018190526080820181905260a0820181905260c09091015290565b6001600160a01b03821660009081526034602090815260409182902082516101208101909352805483526001810154909183019060ff16600281111561115c5761115c613df2565b600281111561116d5761116d613df2565b81526020016001820160019054906101000a900460ff16600181111561119557611195613df2565b60018111156111a6576111a6613df2565b815260018201546001600160a01b03620100009091048116602083015260028301548116604083015260038301548116606083015260048301546080830152600583015460a083015260069092015490911660c09091015292915050565b6001600160a01b0382811660009081526034602090815260408083209385168352603390915290203360018201546001600160a01b0390811691161461125c576040516282b42960e81b815260040160405180910390fd5b60068201546001600160a01b038481169116146112a557600682015460405163259935ab60e01b81526001600160a01b03918216600482015290841660248201526044016109c1565b60006002820154600160a81b900460ff1660018111156112c7576112c7613df2565b146112fb5760008160020160159054906101000a900460ff1660405163ebc1b59960e01b81526004016109c19291906143f1565b6000600282810154600160b01b900460ff169081111561131d5761131d613df2565b146113515760008160020160169054906101000a900460ff16604051630587038160e01b81526004016109c192919061445d565b60016002820154600160a01b900460ff16600681111561137357611373613df2565b141580156113a1575060036002820154600160a01b900460ff16600681111561139e5761139e613df2565b14155b156113bf576040516329de90c560e11b815260040160405180910390fd5b60028101546001600160a01b031660009081526035602052604090206001815460ff1660018111156113f3576113f3613df2565b14801561140c575060038301546001600160a01b031615155b1561142a57604051631771cc0160e11b815260040160405180910390fd5b60008054611440906001600160a01b031661323e565b6001830154604051632b2b520160e21b81526001600160a01b0391821660048201529192506000919083169063acad48049060240160c060405180830381865afa158015611492573d6000803e3d6000fd5b505050506040513d601f19601f820116820180604052508101906114b6919061434a565b90506114c4814260016132b1565b600060016002860154600160a01b900460ff1660068111156114e8576114e8613df2565b036114f857506004840154611517565b6006850154600386015460048701546115149290916000613542565b90505b600061153d8660020160159054906101000a900460ff1687600501548460016000613336565b905060006115658760060154886003015460018a60040154613542909392919063ffffffff16565b9050600061158d8860020160159054906101000a900460ff1689600501548460006001613336565b90506000818411156115aa576115a3828561448c565b90506115ae565b5060005b600080546115c4906001600160a01b03166133a7565b90506001600160a01b0381166394e73d4160043360028d01546040516001600160e01b031960e086901b16815261160b9392916001600160a01b031690889060040161449f565b600060405180830381600087803b15801561162557600080fd5b505af1158015611639573d6000803e3d6000fd5b5050505060028a01805462ff00ff60a01b19166201000360a11b17905560405133906001600160a01b038e16907f44c8758b12c08563c75c661ea58392b27d85df40fc349e1051f6e432b46508c090600090a350505050505050505050505050565b60006116af6096546001600160a01b031690565b6001600160a01b0316146116d55760405162dc149f60e41b815260040160405180910390fd5b6116de81613587565b50565b6000546001600160a01b03163360405163224c50cb60e21b8152600360048201526000906001600160a01b03841690638931432c90602401602060405180830381865afa158015611736573d6000803e3d6000fd5b505050506040513d601f19601f8201168201806040525081019061175a9190614440565b9050806001600160a01b0316826001600160a01b03161461178e5760405163252e956960e11b815260040160405180910390fd5b6001600160a01b038087166000908152603460209081526040808320938b1683526033909152902060088101546117c69088906144d6565b600882015560098101546117db9087906144d6565b600982015560018201805460ff19166002179055604080516001600160a01b038b811682528a166020820152908101889052606081018790527f9c1c932372f96d508824b8e8237e0a15ef9a764c77657718f61fc92771d3bc339060800160405180910390a1505050505050505050565b6000546001600160a01b03163360405163224c50cb60e21b8152600360048201526000906001600160a01b03841690638931432c90602401602060405180830381865afa1580156118a1573d6000803e3d6000fd5b505050506040513d601f19601f820116820180604052508101906118c59190614440565b9050806001600160a01b0316826001600160a01b0316146118f95760405163252e956960e11b815260040160405180910390fd5b6001600160a01b038516600090815260346020526040902060018082018054879260ff199091169083600281111561193357611933613df2565b02179055507f0ac45c5751295d708f6d47545480eda6fd7623a602ac1a65ebc67483fd32355686866040516119699291906144e9565b60405180910390a1505050505050565b611981613427565b61198b6000613587565b565b6001600160a01b0382811660009081526034602090815260408083209385168352603390915290203360018301546201000090046001600160a01b039081169116146119eb576040516282b42960e81b815260040160405180910390fd5b60038201546001600160a01b03848116911614611a3457600382015460405163259935ab60e01b81526001600160a01b03918216600482015290841660248201526044016109c1565b60018083015460ff166002811115611a4e57611a4e613df2565b14611a77576001828101546040516305a7e4c560e21b81526109c1929160ff169060040161445d565b60028082810154600160b01b900460ff1690811115611a9857611a98613df2565b14611ac857600281810154604051630587038160e01b81526109c19291600160b01b900460ff169060040161445d565b600381015460048083015490840154600092611ae49284613542565b90506000611b0b8360020160159054906101000a900460ff16846005015484600080613336565b60028401546001600160a01b0390811660009081526035602052604081208154939450929091611b3b91166133a7565b90506001600160a01b0381166394e73d4160043360028601546040516001600160e01b031960e086901b168152611b829392916001600160a01b031690899060040161449f565b600060405180830381600087803b158015611b9c57600080fd5b505af1158015611bb0573d6000803e3d6000fd5b5050505060018601805460ff1916600217905560405133906001600160a01b038916907fc40bbf1b679caa8e74b6582ad1ede071006e9a8f4f676da5fbbeee9d02a45ccd90600090a35050505050505050565b611c0b613427565b8015611c1e57611c196135d9565b611c26565b611c26613639565b60405181151581527f6c82eb8f861cdde5f2fdbdc7c547ba478de85dd25a1697ec176cec341e5158979060200160405180910390a150565b6001600160a01b03808216600081815260336020908152604080832087861684526034909252909120600681015491939092911614611cc957600681015460405163259935ab60e01b81526001600160a01b03918216600482015290841660248201526044016109c1565b60018201546001600160a01b03163314611cf5576040516282b42960e81b815260040160405180910390fd5b60016002830154600160a01b900460ff166006811115611d1757611d17613df2565b14611d35576040516329de90c560e11b815260040160405180910390fd5b60028201546001600160a01b03908116600090815260356020526040812081549092611d61911661323e565b6001830154604051632b2b520160e21b81526001600160a01b0391821660048201529192506000919083169063acad48049060240160c060405180830381865afa158015611db3573d6000803e3d6000fd5b505050506040513d601f19601f82011682018060405250810190611dd7919061434a565b9050611de5814260016132b1565b6000835460ff166001811115611dfd57611dfd613df2565b1480611e14575060038401546001600160a01b0316155b15611edf576000611e498660020160159054906101000a900460ff168760040154886003015489600601548a60050154613675565b6000805491925090611e63906001600160a01b03166133a7565b90506001600160a01b0381166394e73d4160043360028901546040516001600160e01b031960e086901b168152611eaa9392916001600160a01b031690889060040161449f565b600060405180830381600087803b158015611ec457600080fd5b505af1158015611ed8573d6000803e3d6000fd5b5050505050505b60028501805460ff60a01b1916600360a01b17905560405133906001600160a01b038816907f25e625a1149fb16ce8c4963e5e117f0800095860b3d77b51a4ce2f2e80e9867490600090a350505050505050565b6040805160e081018252600080825260208201819052918101829052606081018290526080810182905260a0810182905260c08101919091526001600160a01b03821660009081526035602052604090819020815160e081019092528054829060ff166001811115611fa757611fa7613df2565b6001811115611fb857611fb8613df2565b815281546001600160a01b03610100909104811660208301526001830154811660408301526002830154811660608301526003830154166080820152600482015460a082015260059091015460c09091015292915050565b80600003612031576040516310eb483f60e21b815260040160405180910390fd5b6001600160a01b038083166000908152603360209081526040808320600281015490941683526035909152902060016002830154600160a01b900460ff16600681111561208057612080613df2565b1461209e576040516329de90c560e11b815260040160405180910390fd5b60068201546120ad90846144d6565b826003015410156120eb576003820154600683015460405163086e3fa560e11b815260048101929092526024820152604481018490526064016109c1565b60008054612101906001600160a01b031661323e565b6001830154604051632b2b520160e21b81526001600160a01b0391821660048201529192506000919083169063acad48049060240160c060405180830381865afa158015612153573d6000803e3d6000fd5b505050506040513d601f19601f82011682018060405250810190612177919061434a565b9050612185814260016132b1565b5060006001600160a01b0382166321874ae2336040516001600160e01b031960e084901b1681526001600160a01b039091166004820152602401606060405180830381865afa1580156121dc573d6000803e3d6000fd5b505050506040513d601f19601f820116820180604052508101906122009190614502565b905060006001600160a01b038316633ca814e7336040516001600160e01b031960e084901b1681526001600160a01b039091166004820152602401602060405180830381865afa158015612258573d6000803e3d6000fd5b505050506040513d601f19601f8201168201806040525081019061227c9190614572565b9050600061228b6032546136d5565b6001600160a01b038082166000908152603460205260409020600101549192506201000090910416156122d157604051631ee119cb60e31b815260040160405180910390fd5b600486015460038701546000916122ec918a91906001613542565b905060006122fe8285620f4240613707565b9050600061231d8860050154612710856137079092919063ffffffff16565b6000805491925090612337906001600160a01b03166133a7565b90506123478385848c8e866137cc565b8a8a6006015461235791906144d6565b60068b015560408051610120810190915260325481526020810160018152602001600060028d0154600160a81b900460ff16600181111561239a5761239a613df2565b146123a65760006123a9565b60015b60018111156123ba576123ba613df2565b8152602001336001600160a01b031681526020018b60020160009054906101000a90046001600160a01b03166001600160a01b031681526020018d6001600160a01b031681526020018c815260200185815260200160006001600160a01b031681525060346000876001600160a01b03166001600160a01b031681526020019081526020016000206000820151816000015560208201518160010160006101000a81548160ff0219169083600281111561247657612476613df2565b021790555060408201518160010160016101000a81548160ff021916908360018111156124a5576124a5613df2565b02179055506060820151600180830180546001600160a01b03938416620100000262010000600160b01b031990911617905560808401516002840180549184166001600160a01b031992831617905560a085015160038501805491851691831691909117905560c0850151600485015560e0850151600585015561010090940151600690930180549390921692909316919091179055603254612547916144d6565b603255600061255a8486888d8c8761388c565b9050808a6004015461256c91906144d6565b60048b015561257f8d84878e8e87613a52565b604080513381526001600160a01b0388811660208301529181018e9052606081018790526080810185905260a08101839052908e16907f22e54b9a50e71cf9553b38b29d90af380f3c501c356b5319610ba4cddf989ab49060c00160405180910390a250505050505050505050505050565b6000546001600160a01b03163360405163224c50cb60e21b8152600360048201526000906001600160a01b03841690638931432c90602401602060405180830381865afa158015612646573d6000803e3d6000fd5b505050506040513d601f19601f8201168201806040525081019061266a9190614440565b9050806001600160a01b0316826001600160a01b03161461269e5760405163252e956960e11b815260040160405180910390fd5b6001600160a01b038516600090815260336020526040902060028101805486919060ff60a01b1916600160a01b8360068111156126dd576126dd613df2565b02179055507fcee6454a0cd08795e3b702a0217f4f785a57cd4bbc4261a120a6a75dc6825838868660405161196992919061458b565b6001600160a01b0380821660008181526033602090815260408083208786168452603490925290912060068101549193909291161461277e57600681015460405163259935ab60e01b81526001600160a01b03918216600482015290841660248201526044016109c1565b60018201546001600160a01b031633146127aa576040516282b42960e81b815260040160405180910390fd5b60036002830154600160a01b900460ff1660068111156127cc576127cc613df2565b146127ea576040516329de90c560e11b815260040160405180910390fd5b60008054612800906001600160a01b031661323e565b60028401546001600160a01b0390811660009081526035602052604080822060018101549151632b2b520160e21b81529184166004830152939450909184169063acad48049060240160c060405180830381865afa158015612866573d6000803e3d6000fd5b505050506040513d601f19601f8201168201806040525081019061288a919061434a565b9050612898814260016132b1565b6000825460ff1660018111156128b0576128b0613df2565b14806128c7575060038401546001600160a01b0316155b156129935760006128fc8660020160159054906101000a900460ff168760040154886003015489600601548a60050154613675565b6000805491925090612916906001600160a01b03166133a7565b90506001600160a01b038116638e506349343360028801546040516001600160e01b031960e086901b16815261295e92916001600160a01b0316908890600090600401614417565b6000604051808303818588803b15801561297757600080fd5b505af115801561298b573d6000803e3d6000fd5b505050505050505b60028501805460ff60a01b1916600160a01b17905560405133906001600160a01b038816907fb4dfd0550ea47fdadec7d07c7346a43f466b4826d370a65b736ab28c3cd647f190600090a350505050505050565b604081013515806129fa57506060810135155b15612a18576040516310eb483f60e21b815260040160405180910390fd5b6127108160a001351115612a3f5760405163df0704fb60e01b815260040160405180910390fd5b61271081608001351015612a665760405163731b1b8d60e11b815260040160405180910390fd5b60008054612a7c906001600160a01b031661323e565b905060006001600160a01b03821663acad4804612a9c6020860186613dd5565b6040516001600160e01b031960e084901b1681526001600160a01b03909116600482015260240160c060405180830381865afa158015612ae0573d6000803e3d6000fd5b505050506040513d601f19601f82011682018060405250810190612b04919061434a565b9050612b12814260016132b1565b6000612b1f603254613c8d565b90506000612b2e6032546133d7565b90506000612b3d6032546136d5565b6001600160a01b038481166000908152603560205260409020549192506101009091041615612b7f57604051631e1695a760e01b815260040160405180910390fd5b6001600160a01b038281166000908152603360205260409020600101541615612bbb5760405163eb12446160e01b815260040160405180910390fd5b6001600160a01b038181166000908152603460205260409020600101546201000090041615612bfd57604051631ee119cb60e31b815260040160405180910390fd5b603254612c0b9060016144d6565b6032556000612c35612c2360e0890160c08a016145b5565b88608001358960600135600180613336565b6000805491925090612c4f906001600160a01b03166133a7565b90506001600160a01b038116638e5063493433612c7260408d0160208e01613dd5565b8660006040518663ffffffff1660e01b8152600401612c949493929190614417565b6000604051808303818588803b158015612cad57600080fd5b505af1158015612cc1573d6000803e3d6000fd5b505050505050506040518060e001604052808760e0016020810190612ce691906145b5565b6001811115612cf757612cf7613df2565b8152602001336001600160a01b03168152602090810190612d1a90890189613dd5565b6001600160a01b03168152602001876020016020810190612d3b9190613dd5565b6001600160a01b0390811682528481166020808401919091526000604080850182905260a08c01356060909501949094529187168252603590522081518154829060ff191660018381811115612d9357612d93613df2565b021790555060208281015182546001600160a01b0391821661010002610100600160a81b03199091161783556040808501516001850180549184166001600160a01b0319928316179055606086015160028601805491851691831691909117905560808601516003860180549190941691161790915560a0840151600484015560c09093015160059092019190915581516101c0810190925260325482528101612e3a3390565b6001600160a01b0390811682528516602082015260400160018152602001612e6860e0890160c08a016145b5565b6001811115612e7957612e79613df2565b8152602001600081526040808901356020808401919091526060808b0135838501526080808c013582860152600090850181905260a0850181905260c0850181905260e085018190526101009094018490526001600160a01b038088168552603383529383902085518155918501516001830180549186166001600160a01b031992831617905592850151600283018054919095169381168417855590850151919391926001600160a81b031990911617600160a01b836006811115612f4157612f41613df2565b0217905550608082015160028201805460ff60a81b1916600160a81b836001811115612f6f57612f6f613df2565b021790555060a08201518160020160166101000a81548160ff02191690836002811115612f9e57612f9e613df2565b021790555060c0820151600382015560e0820151600482015561010082015160058201556101208083015160068301556101408301516007830155610160830151600883015561018083015160098301556101a090920151600a9091015560408051918201905260325481526020810160018152602001600061302760e08a0160c08b016145b5565b600181111561303857613038613df2565b14613044576000613047565b60015b600181111561305857613058613df2565b8152336020808301919091526001600160a01b03868116604080850191909152600060608086018290528c83013560808701528c013560a086015287831660c090950194909452908516835260348252909120825181559082015160018083018054909160ff19909116908360028111156130d5576130d5613df2565b021790555060408201518160010160016101000a81548160ff0219169083600181111561310457613104613df2565b0217905550606082015160018201805462010000600160b01b031916620100006001600160a01b039384160217905560808301516002830180546001600160a01b031990811692841692909217905560a0840151600384018054831691841691909117905560c0840151600484015560e08401516005840155610100909301516006909201805490931691811691909117909155818116908481169084167f97bc190ea239994fe26cd6ded46798af67d32bbea4c7becae939501ce6b3b4206131d060208b018b613dd5565b604080516001600160a01b039290921682523360208301528b810135828201526060808d013590830152519081900360800190a4505050505050565b613214613427565b6001600160a01b0381166116d557604051631e4fbdf760e01b8152600060048201526024016109c1565b60405163224c50cb60e21b8152600160048201526000906001600160a01b03831690638931432c906024015b602060405180830381865afa158015613287573d6000803e3d6000fd5b505050506040513d601f19601f820116820180604052508101906132ab9190614440565b92915050565b60006132bd8385613cbf565b90508160048111156132d1576132d1613df2565b8160048111156132e3576132e3613df2565b146133305760405162461bcd60e51b815260206004820152601d60248201527f4d69736d617463686564204d61726b6574706c6163652073746174757300000060448201526064016109c1565b50505050565b6000600186600181111561334c5761334c613df2565b1480156133565750825b1561336257508261339e565b600086600181111561337657613376613df2565b148015613381575082155b1561338d57508261339e565b61339b848661271085613542565b90505b95945050505050565b60405163224c50cb60e21b8152600560048201526000906001600160a01b03831690638931432c9060240161326a565b6000816040516020016134099181526040602082018190526005908201526437b33332b960d91b606082015260800190565b60408051601f19818403018152919052805160209091012092915050565b6096546001600160a01b0316331461198b5760405163118cdaa760e01b81523360048201526024016109c1565b604080518082018252601981527f7472616e7366657228616464726573732c75696e74323536290000000000000060209182015281516001600160a01b0385811660248301526044808301869052845180840390910181526064909201845291810180516001600160e01b031663a9059cbb60e01b1790529151600092918616916134de916145d2565b6000604051808303816000865af19150503d806000811461351b576040519150601f19603f3d011682016040523d82523d6000602084013e613520565b606091505b5050905080613330576040516312171d8360e31b815260040160405180910390fd5b600080613550868686613707565b905061355b83613d3e565b801561357757506000848061357257613572614601565b868809115b1561339e5761339b6001826144d6565b609680546001600160a01b038381166001600160a01b0319831681179093556040519116919082907f8be0079c531659141344cd1fd0a4f28419497f9722a3daafe3b4186f6b6457e090600090a35050565b6135e1613d6b565b6096805460ff60a01b1916600160a01b1790557f62e78cea01bee320cd4e420270b5ea74000d11b0c9f74754ebdbfc544b05a25861361c3390565b6040516001600160a01b03909116815260200160405180910390a1565b613641613d96565b6096805460ff60a01b191690557f5db9ee0a495bf2e6ff9c91a7834c1ba4fdd244a5e8aa4e537bd38aeae4b073aa3361361c565b6000806136858685876001613542565b9050600187600181111561369b5761369b613df2565b036136b2576136aa818761448c565b91505061339e565b6136ca6136bf828861448c565b846127106000613542565b979650505050505050565b6000816040516020016134099181526040602082018190526005908201526473746f636b60d81b606082015260800190565b600083830281600019858709828110838203039150508060000361373e5783828161373457613734614601565b04925050506137c5565b80841161375e5760405163227bc15360e01b815260040160405180910390fd5b6000848688096000868103871696879004966002600389028118808a02820302808a02820302808a02820302808a02820302808a02820302808a02909103029181900381900460010186841190950394909402919094039290920491909117919091029150505b9392505050565b60006137f28360020160159054906101000a900460ff1684600501548860006001613336565b9050846137ff88836144d6565b61380991906144d6565b90506001600160a01b038216638e506349343360028801546040516001600160e01b031960e086901b16815261385192916001600160a01b0316908790600090600401614417565b6000604051808303818588803b15801561386a57600080fd5b505af115801561387e573d6000803e3d6000fd5b505050505050505050505050565b81516000906001600160a01b03166138a5575085613a48565b60208301516000906138bd908990620f424084613542565b845160028701546040516394e73d4160e01b81529293506001600160a01b03808716936394e73d41936138fc936001939192911690879060040161449f565b600060405180830381600087803b15801561391657600080fd5b505af115801561392a573d6000803e3d6000fd5b505050604085015160009150613946908a90620f424084613542565b90506001600160a01b0384166394e73d4160013360028a01546040516001600160e01b031960e086901b16815261398d9392916001600160a01b031690879060040161449f565b600060405180830381600087803b1580156139a757600080fd5b505af11580156139bb573d6000803e3d6000fd5b5050505080828a6139cc919061448c565b6139d6919061448c565b92506001600160a01b0387167f600aa8da1ee2a76ab6cba8e89a198948580c716bd31657d3d898d2142d9f9efe338751604080516001600160a01b039384168152929091166020830152810184905260608101859052608081018b905260a081018c905260c00160405180910390a250505b9695505050505050565b60038201546001600160a01b0387811691161480613a8557506000825460ff166001811115613a8357613a83613df2565b145b15613b0357600183015460028301546040516394e73d4160e01b81526001600160a01b03848116936394e73d4193613acc9360009392831692909116908b9060040161449f565b600060405180830381600087803b158015613ae657600080fd5b505af1158015613afa573d6000803e3d6000fd5b50505050613b7a565b815460028301546040516394e73d4160e01b81526001600160a01b03848116936394e73d4193613b4793600093610100909304831692909116908b9060040161449f565b600060405180830381600087803b158015613b6157600080fd5b505af1158015613b75573d6000803e3d6000fd5b505050505b60006002840154600160a81b900460ff166001811115613b9c57613b9c613df2565b03613c185760018301546002838101546040516394e73d4160e01b81526001600160a01b03808616946394e73d4194613be19490939183169216908a9060040161449f565b600060405180830381600087803b158015613bfb57600080fd5b505af1158015613c0f573d6000803e3d6000fd5b50505050613c85565b6002828101546040516394e73d4160e01b81526001600160a01b03848116936394e73d4193613c5293919233929116908a9060040161449f565b600060405180830381600087803b158015613c6c57600080fd5b505af1158015613c80573d6000803e3d6000fd5b505050505b505050505050565b6000816040516020016134099181526040602082018190526005908201526436b0b5b2b960d91b606082015260800190565b6000600482602001516004811115613cd957613cd9613df2565b03613ce6575060046132ab565b8160800151600003613cfd575060208101516132ab565b8160a001518260800151613d1191906144d6565b831115613d20575060036132ab565b8160800151831115613d34575060026132ab565b5060200151919050565b60006002826003811115613d5457613d54613df2565b613d5e9190614617565b60ff166001149050919050565b609654600160a01b900460ff161561198b5760405163d93c066560e01b815260040160405180910390fd5b609654600160a01b900460ff1661198b57604051638dfc202b60e01b815260040160405180910390fd5b6001600160a01b03811681146116de57600080fd5b600060208284031215613de757600080fd5b81356137c581613dc0565b634e487b7160e01b600052602160045260246000fd5b60078110613e1857613e18613df2565b9052565b600281106116de576116de613df2565b613e1881613e1c565b600381106116de576116de613df2565b613e1881613e35565b815181526020808301516101c0830191613e72908401826001600160a01b03169052565b506040830151613e8d60408401826001600160a01b03169052565b506060830151613ea06060840182613e08565b506080830151613eb36080840182613e2c565b5060a0830151613ec660a0840182613e45565b5060c0838101519083015260e08084015190830152610100808401519083015261012080840151908301526101408084015190830152610160808401519083015261018080840151908301526101a092830151929091019190915290565b600080600060608486031215613f3957600080fd5b8335613f4481613dc0565b95602085013595506040909401359392505050565b600080600060608486031215613f6e57600080fd5b8335613f7981613dc0565b92506020840135613f8981613dc0565b929592945050506040919091013590565b815181526020820151610120820190613fb281613e35565b60208301526040830151613fc581613e1c565b806040840152506060830151613fe660608401826001600160a01b03169052565b50608083015161400160808401826001600160a01b03169052565b5060a083015161401c60a08401826001600160a01b03169052565b5060c083015160c083015260e083015160e08301526101008084015161404c828501826001600160a01b03169052565b505092915050565b6000806040838503121561406757600080fd5b823561407281613dc0565b9150602083013561408281613dc0565b809150509250929050565b600080600080608085870312156140a357600080fd5b84356140ae81613dc0565b935060208501356140be81613dc0565b93969395505050506040820135916060013590565b600080604083850312156140e657600080fd5b82356140f181613dc0565b915060208301356003811061408257600080fd5b60e0810161411289613e1c565b9781526001600160a01b039687166020820152948616604086015292851660608501529316608083015260a082019290925260c0015290565b898152610120810161415c8a613e35565b89602083015261416b89613e1c565b60408201989098526001600160a01b039687166060820152948616608086015292851660a085015260c084019190915260e08301529091166101009091015292915050565b80151581146116de57600080fd5b6000602082840312156141d057600080fd5b81356137c5816141b0565b815160e08201906141eb81613e1c565b80835250602083015160018060a01b038082166020850152806040860151166040850152806060860151166060850152806080860151166080850152505060a083015160a083015260c083015160c083015292915050565b6000806040838503121561425657600080fd5b823561426181613dc0565b946020939093013593505050565b6000806040838503121561428257600080fd5b823561428d81613dc0565b915060208301356007811061408257600080fd5b600061010082840312156142b457600080fd5b50919050565b8e81526001600160a01b038e811660208301528d1660408201526101c081016142e6606083018e613e08565b6142ef8c613e1c565b8b608083015261430260a083018c613e45565b60c082019990995260e08101979097526101008701959095526101208601939093526101408501919091526101608401526101808301526101a0909101529695505050505050565b600060c0828403121561435c57600080fd5b60405160c0810181811067ffffffffffffffff8211171561438d57634e487b7160e01b600052604160045260246000fd5b604052825161439b816141b0565b81526020830151600581106143af57600080fd5b602082015260408301516143c281613dc0565b80604083015250606083015160608201526080830151608082015260a083015160a08201528091505092915050565b604081016143fe84613e1c565b83825261440a83613e1c565b8260208301529392505050565b6001600160a01b0394851681529290931660208301526040820152901515606082015260800190565b60006020828403121561445257600080fd5b81516137c581613dc0565b6040810161446a84613e35565b83825261440a83613e35565b634e487b7160e01b600052601160045260246000fd5b818103818111156132ab576132ab614476565b60808101600686106144b3576144b3613df2565b9481526001600160a01b0393841660208201529190921660408201526060015290565b808201808211156132ab576132ab614476565b6001600160a01b03831681526040810161440a83613e35565b60006060828403121561451457600080fd5b6040516060810181811067ffffffffffffffff8211171561454557634e487b7160e01b600052604160045260246000fd5b604052825161455381613dc0565b8152602083810151908201526040928301519281019290925250919050565b60006020828403121561458457600080fd5b5051919050565b6001600160a01b0383168152604081016137c56020830184613e08565b600281106116de57600080fd5b6000602082840312156145c757600080fd5b81356137c5816145a8565b6000825160005b818110156145f357602081860181015185830152016145d9565b506000920191825250919050565b634e487b7160e01b600052601260045260246000fd5b600060ff83168061463857634e487b7160e01b600052601260045260246000fd5b8060ff8416069150509291505056fea2646970667358221220c4034378a1376773926f1c3a6044bd1eab568dfd588f62ab9f34717c6e2f0c0364736f6c63430008190033","linkReferences":{}},"methodIdentifiers":{"abortAskOffer(address,address)":"5cabfd08","abortBidTaker(address,address)":"b5ec4375","closeOffer(address,address)":"c9ac4f6d","createOffer((address,address,uint256,uint256,uint256,uint256,uint8,uint8))":"f17f9c43","createTaker(address,uint256)":"d19b5e64","getMakerInfo(address)":"cfbd9a41","getOfferInfo(address)":"06cdc841","getStockInfo(address)":"543a1178","initializeOwnership(address)":"5cd9205f","listOffer(address,uint256,uint256)":"0cea99fa","makerInfoMap(address)":"739a8ce4","offerId()":"21ce9f91","offerInfoMap(address)":"fc125c3f","owner()":"8da5cb5b","paused()":"5c975abb","relistOffer(address,address)":"e9ba063c","renounceOwnership()":"715018a6","rescue(address,address,uint256)":"20ff430b","setPauseStatus(bool)":"c38bb537","settleAskTaker(address,address,uint256,uint256)":"5d27d5fe","settledAskOffer(address,uint256,uint256)":"310b1fe4","stockInfoMap(address)":"8ef3b47f","tadleFactory()":"8ef1d7b4","transferOwnership(address)":"f2fde38b","updateOfferStatus(address,uint8)":"d1cda82c","updateStockStatus(address,uint8)":"62f43101"},"id":33}