{"abi":[{"type":"function","name":"basePlatformFeeRate","inputs":[],"outputs":[{"name":"","type":"uint256","internalType":"uint256"}],"stateMutability":"view"},{"type":"function","name":"baseReferralRate","inputs":[],"outputs":[{"name":"","type":"uint256","internalType":"uint256"}],"stateMutability":"view"},{"type":"function","name":"marketPlaceInfoMap","inputs":[{"name":"","type":"address","internalType":"address"}],"outputs":[{"name":"fixedratio","type":"bool","internalType":"bool"},{"name":"status","type":"uint8","internalType":"enum MarketPlaceStatus"},{"name":"tokenAddress","type":"address","internalType":"address"},{"name":"tokenPerPoint","type":"uint256","internalType":"uint256"},{"name":"tge","type":"uint256","internalType":"uint256"},{"name":"settlementPeriod","type":"uint256","internalType":"uint256"}],"stateMutability":"view"},{"type":"function","name":"referralExtraRateMap","inputs":[{"name":"","type":"address","internalType":"address"}],"outputs":[{"name":"","type":"uint256","internalType":"uint256"}],"stateMutability":"view"},{"type":"function","name":"referralInfoMap","inputs":[{"name":"","type":"address","internalType":"address"}],"outputs":[{"name":"referrer","type":"address","internalType":"address"},{"name":"referrerRate","type":"uint256","internalType":"uint256"},{"name":"authorityRate","type":"uint256","internalType":"uint256"}],"stateMutability":"view"},{"type":"function","name":"tadleFactory","inputs":[],"outputs":[{"name":"","type":"address","internalType":"contract ITadleFactory"}],"stateMutability":"view"},{"type":"function","name":"userPlatformFeeRate","inputs":[{"name":"","type":"address","internalType":"address"}],"outputs":[{"name":"","type":"uint256","internalType":"uint256"}],"stateMutability":"view"}],"bytecode":{"object":"0x6080604052348015600f57600080fd5b506102918061001f6000396000f3fe608060405234801561001057600080fd5b506004361061007d5760003560e01c8063a3626d501161005b578063a3626d5014610143578063ae210dfa14610163578063e7a52049146101c1578063fdbc2573146101ca57600080fd5b8063514a0a87146100825780638ef1d7b4146100b55780639b1ef87b146100e0575b600080fd5b6100a26100903660046101d3565b60356020526000908152604090205481565b6040519081526020015b60405180910390f35b6000546100c8906001600160a01b031681565b6040516001600160a01b0390911681526020016100ac565b6101316100ee3660046101d3565b603760205260009081526040902080546001820154600283015460039093015460ff808416946101008504909116936201000090046001600160a01b0316929186565b6040516100ac96959493929190610203565b6100a26101513660046101d3565b60346020526000908152604090205481565b61019c6101713660046101d3565b6036602052600090815260409020805460018201546002909201546001600160a01b03909116919083565b604080516001600160a01b0390941684526020840192909252908201526060016100ac565b6100a260335481565b6100a260325481565b6000602082840312156101e557600080fd5b81356001600160a01b03811681146101fc57600080fd5b9392505050565b861515815260c081016005871061022a57634e487b7160e01b600052602160045260246000fd5b60208201969096526001600160a01b039490941660408501526060840192909252608083015260a09091015291905056fea2646970667358221220ded5c59a141540d460872699b28da148efec012dd2b90436ee00b99ae306f7df64736f6c63430008190033","linkReferences":{}},"methodIdentifiers":{"basePlatformFeeRate()":"fdbc2573","baseReferralRate()":"e7a52049","marketPlaceInfoMap(address)":"9b1ef87b","referralExtraRateMap(address)":"514a0a87","referralInfoMap(address)":"ae210dfa","tadleFactory()":"8ef1d7b4","userPlatformFeeRate(address)":"a3626d50"},"id":71}