{"abi":[{"type":"function","name":"tadleFactory","inputs":[],"outputs":[{"name":"","type":"address","internalType":"contract ITadleFactory"}],"stateMutability":"view"},{"type":"function","name":"tokenWhiteListed","inputs":[{"name":"","type":"address","internalType":"address"}],"outputs":[{"name":"","type":"bool","internalType":"bool"}],"stateMutability":"view"},{"type":"function","name":"userTokenBalanceMap","inputs":[{"name":"","type":"address","internalType":"address"},{"name":"","type":"address","internalType":"address"},{"name":"","type":"uint8","internalType":"enum TokenBalanceType"}],"outputs":[{"name":"","type":"uint256","internalType":"uint256"}],"stateMutability":"view"},{"type":"function","name":"wrappedNativeToken","inputs":[],"outputs":[{"name":"","type":"address","internalType":"address"}],"stateMutability":"view"}],"bytecode":{"object":"0x6080604052348015600f57600080fd5b506101c58061001f6000396000f3fe608060405234801561001057600080fd5b506004361061004c5760003560e01c806317fcb39b146100515780638ef1d7b414610081578063c00dc40214610094578063fab3fef5146100c7575b600080fd5b603254610064906001600160a01b031681565b6040516001600160a01b0390911681526020015b60405180910390f35b600054610064906001600160a01b031681565b6100b76100a2366004610122565b60346020526000908152604090205460ff1681565b6040519015158152602001610078565b6100f86100d5366004610144565b603360209081526000938452604080852082529284528284209052825290205481565b604051908152602001610078565b80356001600160a01b038116811461011d57600080fd5b919050565b60006020828403121561013457600080fd5b61013d82610106565b9392505050565b60008060006060848603121561015957600080fd5b61016284610106565b925061017060208501610106565b915060408401356006811061018457600080fd5b80915050925092509256fea26469706673582212208f261f34a5284247ce09de17d02166ba55743fbcde45a1e633e9c291f92362fc64736f6c63430008190033","linkReferences":{}},"methodIdentifiers":{"tadleFactory()":"8ef1d7b4","tokenWhiteListed(address)":"c00dc402","userTokenBalanceMap(address,address,uint8)":"fab3fef5","wrappedNativeToken()":"17fcb39b"},"id":56}