{"abi":[{"type":"constructor","inputs":[],"stateMutability":"nonpayable"},{"type":"function","name":"initializeOwnership","inputs":[{"name":"_newOwner","type":"address","internalType":"address"}],"outputs":[],"stateMutability":"nonpayable"},{"type":"function","name":"owner","inputs":[],"outputs":[{"name":"","type":"address","internalType":"address"}],"stateMutability":"view"},{"type":"function","name":"paused","inputs":[],"outputs":[{"name":"","type":"bool","internalType":"bool"}],"stateMutability":"view"},{"type":"function","name":"renounceOwnership","inputs":[],"outputs":[],"stateMutability":"nonpayable"},{"type":"function","name":"rescue","inputs":[{"name":"to","type":"address","internalType":"address"},{"name":"token","type":"address","internalType":"address"},{"name":"amount","type":"uint256","internalType":"uint256"}],"outputs":[],"stateMutability":"nonpayable"},{"type":"function","name":"setPauseStatus","inputs":[{"name":"pauseSatus","type":"bool","internalType":"bool"}],"outputs":[],"stateMutability":"nonpayable"},{"type":"function","name":"transferOwnership","inputs":[{"name":"newOwner","type":"address","internalType":"address"}],"outputs":[],"stateMutability":"nonpayable"},{"type":"event","name":"OwnershipTransferred","inputs":[{"name":"previousOwner","type":"address","indexed":true,"internalType":"address"},{"name":"newOwner","type":"address","indexed":true,"internalType":"address"}],"anonymous":false},{"type":"event","name":"Paused","inputs":[{"name":"account","type":"address","indexed":false,"internalType":"address"}],"anonymous":false},{"type":"event","name":"Rescue","inputs":[{"name":"to","type":"address","indexed":false,"internalType":"address"},{"name":"token","type":"address","indexed":false,"internalType":"address"},{"name":"amount","type":"uint256","indexed":false,"internalType":"uint256"}],"anonymous":false},{"type":"event","name":"SetPauseStatus","inputs":[{"name":"status","type":"bool","indexed":false,"internalType":"bool"}],"anonymous":false},{"type":"event","name":"Unpaused","inputs":[{"name":"account","type":"address","indexed":false,"internalType":"address"}],"anonymous":false},{"type":"error","name":"AlreadyInitialized","inputs":[]},{"type":"error","name":"EnforcedPause","inputs":[]},{"type":"error","name":"ExpectedPause","inputs":[]},{"type":"error","name":"OwnableInvalidOwner","inputs":[{"name":"owner","type":"address","internalType":"address"}]},{"type":"error","name":"OwnableUnauthorizedAccount","inputs":[{"name":"account","type":"address","internalType":"address"}]},{"type":"error","name":"TransferFailed","inputs":[]}],"bytecode":{"object":"0x6080604052348015600f57600080fd5b503380603557604051631e4fbdf760e01b81526000600482015260240160405180910390fd5b603c81604e565b506000805460ff60a01b19169055609e565b600080546001600160a01b038381166001600160a01b0319831681178455604051919092169283917f8be0079c531659141344cd1fd0a4f28419497f9722a3daafe3b4186f6b6457e09190a35050565b610600806100ad6000396000f3fe608060405234801561001057600080fd5b506004361061007d5760003560e01c8063715018a61161005b578063715018a6146100cc5780638da5cb5b146100d4578063c38bb537146100ef578063f2fde38b1461010257600080fd5b806320ff430b146100825780635c975abb146100975780635cd9205f146100b9575b600080fd5b61009561009036600461051b565b610115565b005b600054600160a01b900460ff1660405190151581526020015b60405180910390f35b6100956100c7366004610557565b6101c2565b6100956101f7565b6000546040516001600160a01b0390911681526020016100b0565b6100956100fd366004610579565b61020b565b610095610110366004610557565b610266565b61011d61029d565b6001600160a01b038216610167576040516001600160a01b0384169082156108fc029083906000818181858888f19350505050158015610161573d6000803e3d6000fd5b50610172565b6101728284836102ca565b604080516001600160a01b038086168252841660208201529081018290527fe01920728668d89f092ef9cb92036bad90964bb622eec508d2c3ffe1d582efb29060600160405180910390a1505050565b6000546001600160a01b0316156101eb5760405162dc149f60e41b815260040160405180910390fd5b6101f4816103be565b50565b6101ff61029d565b61020960006103be565b565b61021361029d565b80156102265761022161040e565b61022e565b61022e61046e565b60405181151581527f6c82eb8f861cdde5f2fdbdc7c547ba478de85dd25a1697ec176cec341e5158979060200160405180910390a150565b61026e61029d565b6001600160a01b0381166101eb57604051631e4fbdf760e01b8152600060048201526024015b60405180910390fd5b6000546001600160a01b031633146102095760405163118cdaa760e01b8152336004820152602401610294565b604080518082018252601981527f7472616e7366657228616464726573732c75696e74323536290000000000000060209182015281516001600160a01b0385811660248301526044808301869052845180840390910181526064909201845291810180516001600160e01b031663a9059cbb60e01b1790529151600092918616916103549161059b565b6000604051808303816000865af19150503d8060008114610391576040519150601f19603f3d011682016040523d82523d6000602084013e610396565b606091505b50509050806103b8576040516312171d8360e31b815260040160405180910390fd5b50505050565b600080546001600160a01b038381166001600160a01b0319831681178455604051919092169283917f8be0079c531659141344cd1fd0a4f28419497f9722a3daafe3b4186f6b6457e09190a35050565b6104166104aa565b6000805460ff60a01b1916600160a01b1790557f62e78cea01bee320cd4e420270b5ea74000d11b0c9f74754ebdbfc544b05a2586104513390565b6040516001600160a01b03909116815260200160405180910390a1565b6104766104d5565b6000805460ff60a01b191690557f5db9ee0a495bf2e6ff9c91a7834c1ba4fdd244a5e8aa4e537bd38aeae4b073aa33610451565b600054600160a01b900460ff16156102095760405163d93c066560e01b815260040160405180910390fd5b600054600160a01b900460ff1661020957604051638dfc202b60e01b815260040160405180910390fd5b80356001600160a01b038116811461051657600080fd5b919050565b60008060006060848603121561053057600080fd5b610539846104ff565b9250610547602085016104ff565b9150604084013590509250925092565b60006020828403121561056957600080fd5b610572826104ff565b9392505050565b60006020828403121561058b57600080fd5b8135801515811461057257600080fd5b6000825160005b818110156105bc57602081860181015185830152016105a2565b50600092019182525091905056fea26469706673582212204010f3d7129b4387d4543eda88b4f3768062842dff1566e1d283dda435831ff064736f6c63430008190033","linkReferences":{}},"methodIdentifiers":{"initializeOwnership(address)":"5cd9205f","owner()":"8da5cb5b","paused()":"5c975abb","renounceOwnership()":"715018a6","rescue(address,address,uint256)":"20ff430b","setPauseStatus(bool)":"c38bb537","transferOwnership(address)":"f2fde38b"},"id":76}