{"abi":[{"type":"constructor","inputs":[],"stateMutability":"nonpayable"},{"type":"function","name":"addTokenBalance","inputs":[{"name":"_tokenBalanceType","type":"uint8","internalType":"enum TokenBalanceType"},{"name":"_accountAddress","type":"address","internalType":"address"},{"name":"_tokenAddress","type":"address","internalType":"address"},{"name":"_amount","type":"uint256","internalType":"uint256"}],"outputs":[],"stateMutability":"nonpayable"},{"type":"function","name":"getClaimableAmount","inputs":[{"name":"_tokenAddress","type":"address","internalType":"address"},{"name":"_tokenBalanceType","type":"uint8","internalType":"enum TokenBalanceType"}],"outputs":[{"name":"","type":"uint256","internalType":"uint256"}],"stateMutability":"view"},{"type":"function","name":"initialize","inputs":[{"name":"_wrappedNativeToken","type":"address","internalType":"address"}],"outputs":[],"stateMutability":"nonpayable"},{"type":"function","name":"initializeOwnership","inputs":[{"name":"_newOwner","type":"address","internalType":"address"}],"outputs":[],"stateMutability":"nonpayable"},{"type":"function","name":"owner","inputs":[],"outputs":[{"name":"","type":"address","internalType":"address"}],"stateMutability":"view"},{"type":"function","name":"paused","inputs":[],"outputs":[{"name":"","type":"bool","internalType":"bool"}],"stateMutability":"view"},{"type":"function","name":"renounceOwnership","inputs":[],"outputs":[],"stateMutability":"nonpayable"},{"type":"function","name":"rescue","inputs":[{"name":"to","type":"address","internalType":"address"},{"name":"token","type":"address","internalType":"address"},{"name":"amount","type":"uint256","internalType":"uint256"}],"outputs":[],"stateMutability":"nonpayable"},{"type":"function","name":"setPauseStatus","inputs":[{"name":"pauseSatus","type":"bool","internalType":"bool"}],"outputs":[],"stateMutability":"nonpayable"},{"type":"function","name":"tadleFactory","inputs":[],"outputs":[{"name":"","type":"address","internalType":"contract ITadleFactory"}],"stateMutability":"view"},{"type":"function","name":"tillIn","inputs":[{"name":"_accountAddress","type":"address","internalType":"address"},{"name":"_tokenAddress","type":"address","internalType":"address"},{"name":"_amount","type":"uint256","internalType":"uint256"},{"name":"_isPointToken","type":"bool","internalType":"bool"}],"outputs":[],"stateMutability":"payable"},{"type":"function","name":"tokenWhiteListed","inputs":[{"name":"","type":"address","internalType":"address"}],"outputs":[{"name":"","type":"bool","internalType":"bool"}],"stateMutability":"view"},{"type":"function","name":"transferOwnership","inputs":[{"name":"newOwner","type":"address","internalType":"address"}],"outputs":[],"stateMutability":"nonpayable"},{"type":"function","name":"updateTokenWhiteListed","inputs":[{"name":"_tokens","type":"address[]","internalType":"address[]"},{"name":"_isWhiteListed","type":"bool","internalType":"bool"}],"outputs":[],"stateMutability":"nonpayable"},{"type":"function","name":"userTokenBalanceMap","inputs":[{"name":"","type":"address","internalType":"address"},{"name":"","type":"address","internalType":"address"},{"name":"","type":"uint8","internalType":"enum TokenBalanceType"}],"outputs":[{"name":"","type":"uint256","internalType":"uint256"}],"stateMutability":"view"},{"type":"function","name":"withdraw","inputs":[{"name":"_tokenAddress","type":"address","internalType":"address"},{"name":"_tokenBalanceType","type":"uint8","internalType":"enum TokenBalanceType"}],"outputs":[],"stateMutability":"nonpayable"},{"type":"function","name":"wrappedNativeToken","inputs":[],"outputs":[{"name":"","type":"address","internalType":"address"}],"stateMutability":"view"},{"type":"event","name":"AddTokenBalance","inputs":[{"name":"accountAddress","type":"address","indexed":true,"internalType":"address"},{"name":"tokenAddress","type":"address","indexed":true,"internalType":"address"},{"name":"tokenBalanceType","type":"uint8","indexed":true,"internalType":"enum TokenBalanceType"},{"name":"amount","type":"uint256","indexed":false,"internalType":"uint256"}],"anonymous":false},{"type":"event","name":"OwnershipTransferred","inputs":[{"name":"previousOwner","type":"address","indexed":true,"internalType":"address"},{"name":"newOwner","type":"address","indexed":true,"internalType":"address"}],"anonymous":false},{"type":"event","name":"Paused","inputs":[{"name":"account","type":"address","indexed":false,"internalType":"address"}],"anonymous":false},{"type":"event","name":"Rescue","inputs":[{"name":"to","type":"address","indexed":false,"internalType":"address"},{"name":"token","type":"address","indexed":false,"internalType":"address"},{"name":"amount","type":"uint256","indexed":false,"internalType":"uint256"}],"anonymous":false},{"type":"event","name":"SetPauseStatus","inputs":[{"name":"status","type":"bool","indexed":false,"internalType":"bool"}],"anonymous":false},{"type":"event","name":"TillIn","inputs":[{"name":"accountAddress","type":"address","indexed":true,"internalType":"address"},{"name":"tokenAddress","type":"address","indexed":true,"internalType":"address"},{"name":"amount","type":"uint256","indexed":false,"internalType":"uint256"},{"name":"isPointToken","type":"bool","indexed":false,"internalType":"bool"}],"anonymous":false},{"type":"event","name":"Unpaused","inputs":[{"name":"account","type":"address","indexed":false,"internalType":"address"}],"anonymous":false},{"type":"event","name":"UpdateTokenWhiteListed","inputs":[{"name":"tokenAddress","type":"address","indexed":true,"internalType":"address"},{"name":"isWhiteListed","type":"bool","indexed":false,"internalType":"bool"}],"anonymous":false},{"type":"event","name":"Withdraw","inputs":[{"name":"authority","type":"address","indexed":true,"internalType":"address"},{"name":"tokenAddress","type":"address","indexed":true,"internalType":"address"},{"name":"tokenBalanceType","type":"uint8","indexed":true,"internalType":"enum TokenBalanceType"},{"name":"amount","type":"uint256","indexed":false,"internalType":"uint256"}],"anonymous":false},{"type":"error","name":"AlreadyInitialized","inputs":[]},{"type":"error","name":"CallerIsNotDeliveryPlace","inputs":[]},{"type":"error","name":"CallerIsNotRelatedContracts","inputs":[{"name":"","type":"address","internalType":"address"}]},{"type":"error","name":"ContractIsNotDeployed","inputs":[]},{"type":"error","name":"EnforcedPause","inputs":[]},{"type":"error","name":"ExpectedPause","inputs":[]},{"type":"error","name":"NotEnoughMsgValue","inputs":[{"name":"_msgValue","type":"uint256","internalType":"uint256"},{"name":"_amount","type":"uint256","internalType":"uint256"}]},{"type":"error","name":"OwnableInvalidOwner","inputs":[{"name":"owner","type":"address","internalType":"address"}]},{"type":"error","name":"OwnableUnauthorizedAccount","inputs":[{"name":"account","type":"address","internalType":"address"}]},{"type":"error","name":"TokenIsNotWhiteListed","inputs":[{"name":"tokenAddress","type":"address","internalType":"address"}]},{"type":"error","name":"TransferFailed","inputs":[]}],"bytecode":{"object":"0x6080604052348015600f57600080fd5b503380603557604051631e4fbdf760e01b81526000600482015260240160405180910390fd5b603c81604e565b506096805460ff60a01b1916905560a0565b609680546001600160a01b038381166001600160a01b0319831681179093556040519116919082907f8be0079c531659141344cd1fd0a4f28419497f9722a3daafe3b4186f6b6457e090600090a35050565b6117ae806100af6000396000f3fe6080604052600436106100fe5760003560e01c80638ef1d7b411610095578063c38bb53711610064578063c38bb537146102b1578063c4d66de8146102d1578063cc5a02cb146102f1578063f2fde38b14610311578063fab3fef51461033157600080fd5b80638ef1d7b41461021357806394e73d411461023357806395a0654714610253578063c00dc4021461028157600080fd5b80635cd9205f116100d15780635cd9205f146101ad578063715018a6146101cd5780638da5cb5b146101e25780638e5063491461020057600080fd5b806317fcb39b1461010357806320ff430b14610140578063431b4c07146101625780635c975abb14610182575b600080fd5b34801561010f57600080fd5b50603254610123906001600160a01b031681565b6040516001600160a01b0390911681526020015b60405180910390f35b34801561014c57600080fd5b5061016061015b36600461144b565b61036f565b005b34801561016e57600080fd5b5061016061017d3660046114a1565b61041c565b34801561018e57600080fd5b50609654600160a01b900460ff165b6040519015158152602001610137565b3480156101b957600080fd5b506101606101c8366004611525565b61046f565b3480156101d957600080fd5b506101606104b5565b3480156101ee57600080fd5b506096546001600160a01b0316610123565b61016061020e366004611549565b6104c9565b34801561021f57600080fd5b50600054610123906001600160a01b031681565b34801561023f57600080fd5b5061016061024e3660046115a9565b61082f565b34801561025f57600080fd5b5061027361026e3660046115f8565b610a4e565b604051908152602001610137565b34801561028d57600080fd5b5061019d61029c366004611525565b60346020526000908152604090205460ff1681565b3480156102bd57600080fd5b506101606102cc36600461162d565b610ab2565b3480156102dd57600080fd5b506101606102ec366004611525565b610b0d565b3480156102fd57600080fd5b5061016061030c3660046115f8565b610b37565b34801561031d57600080fd5b5061016061032c366004611525565b610d38565b34801561033d57600080fd5b5061027361034c366004611648565b603360209081526000938452604080852082529284528284209052825290205481565b610377610d6a565b6001600160a01b0382166103c1576040516001600160a01b0384169082156108fc029083906000818181858888f193505050501580156103bb573d6000803e3d6000fd5b506103cc565b6103cc828483610d97565b604080516001600160a01b038086168252841660208201529081018290527fe01920728668d89f092ef9cb92036bad90964bb622eec508d2c3ffe1d582efb29060600160405180910390a1505050565b610424610d6a565b8160005b818110156104685761046085858381811061044557610445611686565b905060200201602081019061045a9190611525565b84610e8b565b600101610428565b5050505050565b60006104836096546001600160a01b031690565b6001600160a01b0316146104a95760405162dc149f60e41b815260040160405180910390fd5b6104b281610eea565b50565b6104bd610d6a565b6104c76000610eea565b565b6000546001600160a01b03163360405163224c50cb60e21b8152600260048201526000906001600160a01b03841690638931432c90602401602060405180830381865afa15801561051e573d6000803e3d6000fd5b505050506040513d601f19601f82011682018060405250810190610542919061169c565b60405163224c50cb60e21b8152600360048201529091506000906001600160a01b03851690638931432c90602401602060405180830381865afa15801561058d573d6000803e3d6000fd5b505050506040513d601f19601f820116820180604052508101906105b1919061169c565b9050816001600160a01b0316836001600160a01b0316141580156105e75750806001600160a01b0316836001600160a01b031614155b15610615576040516345e6355360e11b81526001600160a01b03841660048201526024015b60405180910390fd5b84878115801561063e57506001600160a01b03811660009081526034602052604090205460ff16155b15610667576040516310e3dbf360e21b81526001600160a01b038216600482015260240161060c565b8715610823576000805460405163224c50cb60e21b81526004808201526001600160a01b0390911690638931432c90602401602060405180830381865afa1580156106b6573d6000803e3d6000fd5b505050506040513d601f19601f820116820180604052508101906106da919061169c565b90506001600160a01b03811661070357604051636fd7e48d60e01b815260040160405180910390fd5b6032546001600160a01b03908116908b16036107ca578834101561074357604051633c3b81c960e11b8152346004820152602481018a905260440161060c565b603260009054906101000a90046001600160a01b03166001600160a01b031663d0e30db08a6040518263ffffffff1660e01b81526004016000604051808303818588803b15801561079357600080fd5b505af11580156107a7573d6000803e3d6000fd5b50506032546107c593506001600160a01b031691508390508b610d97565b6107d7565b6107d78a8c838c85610f3c565b604080518a815289151560208201526001600160a01b03808d1692908e16917f9c5154feffbed690ee60b433bbf358c37ba2983e206ca5543421069ef1a2d9b9910160405180910390a3505b50505050505050505050565b6000546001600160a01b03163360405163224c50cb60e21b8152600260048201526000906001600160a01b03841690638931432c90602401602060405180830381865afa158015610884573d6000803e3d6000fd5b505050506040513d601f19601f820116820180604052508101906108a8919061169c565b60405163224c50cb60e21b8152600360048201529091506000906001600160a01b03851690638931432c90602401602060405180830381865afa1580156108f3573d6000803e3d6000fd5b505050506040513d601f19601f82011682018060405250810190610917919061169c565b9050816001600160a01b0316836001600160a01b03161415801561094d5750806001600160a01b0316836001600160a01b031614155b15610976576040516345e6355360e11b81526001600160a01b038416600482015260240161060c565b6001600160a01b038088166000908152603360209081526040808320938a16835292905290812086918a60058111156109b1576109b16116b9565b60058111156109c2576109c26116b9565b815260200190815260200160002060008282546109df91906116e5565b9091555088905060058111156109f7576109f76116b9565b866001600160a01b0316886001600160a01b03167fe9ea61194900d9e2eabbd914abeb3aea15d4b8ca90014093a70de3d60c84b74d88604051610a3c91815260200190565b60405180910390a45050505050505050565b3360009081526033602090815260408083206001600160a01b03861684529091528120819081846005811115610a8657610a866116b9565b6005811115610a9757610a976116b9565b81526020810191909152604001600020549150505b92915050565b610aba610d6a565b8015610acd57610ac8611252565b610ad5565b610ad56112b2565b60405181151581527f6c82eb8f861cdde5f2fdbdc7c547ba478de85dd25a1697ec176cec341e5158979060200160405180910390a150565b610b15610d6a565b603280546001600160a01b0319166001600160a01b0392909216919091179055565b610b3f6112ee565b3360009081526033602090815260408083206001600160a01b0386168452909152812081836005811115610b7557610b756116b9565b6005811115610b8657610b866116b9565b815260200190815260200160002054905080600003610ba457505050565b6000805460405163224c50cb60e21b81526004808201526001600160a01b0390911690638931432c90602401602060405180830381865afa158015610bed573d6000803e3d6000fd5b505050506040513d601f19601f82011682018060405250810190610c11919061169c565b6032549091506001600160a01b0390811690851603610cd457603254610c43906001600160a01b031682308582610f3c565b603254604051632e1a7d4d60e01b8152600481018490526001600160a01b0390911690632e1a7d4d90602401600060405180830381600087803b158015610c8957600080fd5b505af1158015610c9d573d6000803e3d6000fd5b505060405133925084156108fc02915084906000818181858888f19350505050158015610cce573d6000803e3d6000fd5b50610ce0565b610ce084823385611319565b826005811115610cf257610cf26116b9565b6040518381526001600160a01b0386169033907fc8c2568a84dc78b4d28cb1be681ed0ee606f40b7c45dc349df83d5dad805890a9060200160405180910390a450505050565b610d40610d6a565b6001600160a01b0381166104a957604051631e4fbdf760e01b81526000600482015260240161060c565b6096546001600160a01b031633146104c75760405163118cdaa760e01b815233600482015260240161060c565b604080518082018252601981527f7472616e7366657228616464726573732c75696e74323536290000000000000060209182015281516001600160a01b0385811660248301526044808301869052845180840390910181526064909201845291810180516001600160e01b031663a9059cbb60e01b179052915160009291861691610e21916116f8565b6000604051808303816000865af19150503d8060008114610e5e576040519150601f19603f3d011682016040523d82523d6000602084013e610e63565b606091505b5050905080610e85576040516312171d8360e31b815260040160405180910390fd5b50505050565b6001600160a01b038216600081815260346020908152604091829020805460ff191685151590811790915591519182527f91efc419893c42233cb7cf5644b9cfb8157ea246b2d46fbe4cdcdad596200f27910160405180910390a25050565b609680546001600160a01b038381166001600160a01b0319831681179093556040519116919082907f8be0079c531659141344cd1fd0a4f28419497f9722a3daafe3b4186f6b6457e090600090a35050565b6040516370a0823160e01b81526001600160a01b038581166004830152600091908716906370a0823190602401602060405180830381865afa158015610f86573d6000803e3d6000fd5b505050506040513d601f19601f82011682018060405250810190610faa9190611727565b6040516370a0823160e01b81526001600160a01b0386811660048301529192506000918816906370a0823190602401602060405180830381865afa158015610ff6573d6000803e3d6000fd5b505050506040513d601f19601f8201168201806040525081019061101a9190611727565b9050826001600160a01b0316866001600160a01b03161480156110aa5750604051636eb1769f60e11b81526001600160a01b03878116600483015230602483015288169063dd62ed3e90604401602060405180830381865afa158015611084573d6000803e3d6000fd5b505050506040513d601f19601f820116820180604052508101906110a89190611727565b155b156111095760405163daea85c560e01b81523060048201526001600160a01b0384169063daea85c590602401600060405180830381600087803b1580156110f057600080fd5b505af1158015611104573d6000803e3d6000fd5b505050505b61111587878787611319565b6040516370a0823160e01b81526001600160a01b038781166004830152600091908916906370a0823190602401602060405180830381865afa15801561115f573d6000803e3d6000fd5b505050506040513d601f19601f820116820180604052508101906111839190611727565b6040516370a0823160e01b81526001600160a01b0388811660048301529192506000918a16906370a0823190602401602060405180830381865afa1580156111cf573d6000803e3d6000fd5b505050506040513d601f19601f820116820180604052508101906111f39190611727565b90506111ff8685611740565b821461121e576040516312171d8360e31b815260040160405180910390fd5b61122886846116e5565b8114611247576040516312171d8360e31b815260040160405180910390fd5b505050505050505050565b61125a6112ee565b6096805460ff60a01b1916600160a01b1790557f62e78cea01bee320cd4e420270b5ea74000d11b0c9f74754ebdbfc544b05a2586112953390565b6040516001600160a01b03909116815260200160405180910390a1565b6112ba61140c565b6096805460ff60a01b191690557f5db9ee0a495bf2e6ff9c91a7834c1ba4fdd244a5e8aa4e537bd38aeae4b073aa33611295565b609654600160a01b900460ff16156104c75760405163d93c066560e01b815260040160405180910390fd5b6000846001600160a01b03166040518060600160405280602581526020016117546025913980516020909101206040516001600160a01b038088166024830152861660448201526064810185905260840160408051601f198184030181529181526020820180516001600160e01b03166001600160e01b03199094169390931790925290516113a891906116f8565b6000604051808303816000865af19150503d80600081146113e5576040519150601f19603f3d011682016040523d82523d6000602084013e6113ea565b606091505b5050905080610468576040516312171d8360e31b815260040160405180910390fd5b609654600160a01b900460ff166104c757604051638dfc202b60e01b815260040160405180910390fd5b6001600160a01b03811681146104b257600080fd5b60008060006060848603121561146057600080fd5b833561146b81611436565b9250602084013561147b81611436565b929592945050506040919091013590565b8035801515811461149c57600080fd5b919050565b6000806000604084860312156114b657600080fd5b833567ffffffffffffffff808211156114ce57600080fd5b818601915086601f8301126114e257600080fd5b8135818111156114f157600080fd5b8760208260051b850101111561150657600080fd5b60209283019550935061151c918601905061148c565b90509250925092565b60006020828403121561153757600080fd5b813561154281611436565b9392505050565b6000806000806080858703121561155f57600080fd5b843561156a81611436565b9350602085013561157a81611436565b92506040850135915061158f6060860161148c565b905092959194509250565b80356006811061149c57600080fd5b600080600080608085870312156115bf57600080fd5b6115c88561159a565b935060208501356115d881611436565b925060408501356115e881611436565b9396929550929360600135925050565b6000806040838503121561160b57600080fd5b823561161681611436565b91506116246020840161159a565b90509250929050565b60006020828403121561163f57600080fd5b6115428261148c565b60008060006060848603121561165d57600080fd5b833561166881611436565b9250602084013561167881611436565b915061151c6040850161159a565b634e487b7160e01b600052603260045260246000fd5b6000602082840312156116ae57600080fd5b815161154281611436565b634e487b7160e01b600052602160045260246000fd5b634e487b7160e01b600052601160045260246000fd5b80820180821115610aac57610aac6116cf565b6000825160005b8181101561171957602081860181015185830152016116ff565b506000920191825250919050565b60006020828403121561173957600080fd5b5051919050565b81810381811115610aac57610aac6116cf56fe7472616e7366657246726f6d28616464726573732c616464726573732c75696e7432353629a2646970667358221220488289efbe02c20a1043c81b606ef6443b5f1a6bbe870bcfd2fbe488657776a264736f6c63430008190033","linkReferences":{}},"methodIdentifiers":{"addTokenBalance(uint8,address,address,uint256)":"94e73d41","getClaimableAmount(address,uint8)":"95a06547","initialize(address)":"c4d66de8","initializeOwnership(address)":"5cd9205f","owner()":"8da5cb5b","paused()":"5c975abb","renounceOwnership()":"715018a6","rescue(address,address,uint256)":"20ff430b","setPauseStatus(bool)":"c38bb537","tadleFactory()":"8ef1d7b4","tillIn(address,address,uint256,bool)":"8e506349","tokenWhiteListed(address)":"c00dc402","transferOwnership(address)":"f2fde38b","updateTokenWhiteListed(address[],bool)":"431b4c07","userTokenBalanceMap(address,address,uint8)":"fab3fef5","withdraw(address,uint8)":"cc5a02cb","wrappedNativeToken()":"17fcb39b"},"id":51}