{"abi":[{"type":"constructor","inputs":[],"stateMutability":"nonpayable"},{"type":"function","name":"addTokenBalance","inputs":[{"name":"_tokenBalanceType","type":"uint8","internalType":"enum TokenBalanceType"},{"name":"_accountAddress","type":"address","internalType":"address"},{"name":"_tokenAddress","type":"address","internalType":"address"},{"name":"_amount","type":"uint256","internalType":"uint256"}],"outputs":[],"stateMutability":"nonpayable"},{"type":"function","name":"initialize","inputs":[{"name":"_wrappedNativeToken","type":"address","internalType":"address"}],"outputs":[],"stateMutability":"nonpayable"},{"type":"function","name":"initializeOwnership","inputs":[{"name":"_newOwner","type":"address","internalType":"address"}],"outputs":[],"stateMutability":"nonpayable"},{"type":"function","name":"owner","inputs":[],"outputs":[{"name":"","type":"address","internalType":"address"}],"stateMutability":"view"},{"type":"function","name":"paused","inputs":[],"outputs":[{"name":"","type":"bool","internalType":"bool"}],"stateMutability":"view"},{"type":"function","name":"renounceOwnership","inputs":[],"outputs":[],"stateMutability":"nonpayable"},{"type":"function","name":"rescue","inputs":[{"name":"to","type":"address","internalType":"address"},{"name":"token","type":"address","internalType":"address"},{"name":"amount","type":"uint256","internalType":"uint256"}],"outputs":[],"stateMutability":"nonpayable"},{"type":"function","name":"setPauseStatus","inputs":[{"name":"pauseSatus","type":"bool","internalType":"bool"}],"outputs":[],"stateMutability":"nonpayable"},{"type":"function","name":"tadleFactory","inputs":[],"outputs":[{"name":"","type":"address","internalType":"contract ITadleFactory"}],"stateMutability":"view"},{"type":"function","name":"tillIn","inputs":[{"name":"_accountAddress","type":"address","internalType":"address"},{"name":"_tokenAddress","type":"address","internalType":"address"},{"name":"_amount","type":"uint256","internalType":"uint256"},{"name":"_isPointToken","type":"bool","internalType":"bool"}],"outputs":[],"stateMutability":"payable"},{"type":"function","name":"tokenWhiteListed","inputs":[{"name":"","type":"address","internalType":"address"}],"outputs":[{"name":"","type":"bool","internalType":"bool"}],"stateMutability":"view"},{"type":"function","name":"transferOwnership","inputs":[{"name":"newOwner","type":"address","internalType":"address"}],"outputs":[],"stateMutability":"nonpayable"},{"type":"function","name":"updateTokenWhiteListed","inputs":[{"name":"_tokens","type":"address[]","internalType":"address[]"},{"name":"_isWhiteListed","type":"bool","internalType":"bool"}],"outputs":[],"stateMutability":"nonpayable"},{"type":"function","name":"userTokenBalanceMap","inputs":[{"name":"","type":"address","internalType":"address"},{"name":"","type":"address","internalType":"address"},{"name":"","type":"uint8","internalType":"enum TokenBalanceType"}],"outputs":[{"name":"","type":"uint256","internalType":"uint256"}],"stateMutability":"view"},{"type":"function","name":"withdraw","inputs":[{"name":"_tokenAddress","type":"address","internalType":"address"},{"name":"_tokenBalanceType","type":"uint8","internalType":"enum TokenBalanceType"}],"outputs":[],"stateMutability":"nonpayable"},{"type":"function","name":"wrappedNativeToken","inputs":[],"outputs":[{"name":"","type":"address","internalType":"address"}],"stateMutability":"view"},{"type":"event","name":"AddTokenBalance","inputs":[{"name":"accountAddress","type":"address","indexed":true,"internalType":"address"},{"name":"tokenAddress","type":"address","indexed":true,"internalType":"address"},{"name":"tokenBalanceType","type":"uint8","indexed":true,"internalType":"enum TokenBalanceType"},{"name":"amount","type":"uint256","indexed":false,"internalType":"uint256"}],"anonymous":false},{"type":"event","name":"OwnershipTransferred","inputs":[{"name":"previousOwner","type":"address","indexed":true,"internalType":"address"},{"name":"newOwner","type":"address","indexed":true,"internalType":"address"}],"anonymous":false},{"type":"event","name":"Paused","inputs":[{"name":"account","type":"address","indexed":false,"internalType":"address"}],"anonymous":false},{"type":"event","name":"Rescue","inputs":[{"name":"to","type":"address","indexed":false,"internalType":"address"},{"name":"token","type":"address","indexed":false,"internalType":"address"},{"name":"amount","type":"uint256","indexed":false,"internalType":"uint256"}],"anonymous":false},{"type":"event","name":"SetPauseStatus","inputs":[{"name":"status","type":"bool","indexed":false,"internalType":"bool"}],"anonymous":false},{"type":"event","name":"TillIn","inputs":[{"name":"accountAddress","type":"address","indexed":true,"internalType":"address"},{"name":"tokenAddress","type":"address","indexed":true,"internalType":"address"},{"name":"amount","type":"uint256","indexed":false,"internalType":"uint256"},{"name":"isPointToken","type":"bool","indexed":false,"internalType":"bool"}],"anonymous":false},{"type":"event","name":"Unpaused","inputs":[{"name":"account","type":"address","indexed":false,"internalType":"address"}],"anonymous":false},{"type":"event","name":"UpdateTokenWhiteListed","inputs":[{"name":"tokenAddress","type":"address","indexed":true,"internalType":"address"},{"name":"isWhiteListed","type":"bool","indexed":false,"internalType":"bool"}],"anonymous":false},{"type":"event","name":"Withdraw","inputs":[{"name":"authority","type":"address","indexed":true,"internalType":"address"},{"name":"tokenAddress","type":"address","indexed":true,"internalType":"address"},{"name":"tokenBalanceType","type":"uint8","indexed":true,"internalType":"enum TokenBalanceType"},{"name":"amount","type":"uint256","indexed":false,"internalType":"uint256"}],"anonymous":false},{"type":"error","name":"AlreadyInitialized","inputs":[]},{"type":"error","name":"CallerIsNotDeliveryPlace","inputs":[]},{"type":"error","name":"CallerIsNotRelatedContracts","inputs":[{"name":"","type":"address","internalType":"address"}]},{"type":"error","name":"ContractIsNotDeployed","inputs":[]},{"type":"error","name":"EnforcedPause","inputs":[]},{"type":"error","name":"ExpectedPause","inputs":[]},{"type":"error","name":"NotEnoughMsgValue","inputs":[{"name":"_msgValue","type":"uint256","internalType":"uint256"},{"name":"_amount","type":"uint256","internalType":"uint256"}]},{"type":"error","name":"OwnableInvalidOwner","inputs":[{"name":"owner","type":"address","internalType":"address"}]},{"type":"error","name":"OwnableUnauthorizedAccount","inputs":[{"name":"account","type":"address","internalType":"address"}]},{"type":"error","name":"TokenIsNotWhiteListed","inputs":[{"name":"tokenAddress","type":"address","internalType":"address"}]},{"type":"error","name":"TransferFailed","inputs":[]}],"bytecode":{"object":"0x6080604052348015600f57600080fd5b503380603557604051631e4fbdf760e01b81526000600482015260240160405180910390fd5b603c81604e565b506096805460ff60a01b1916905560a0565b609680546001600160a01b038381166001600160a01b0319831681179093556040519116919082907f8be0079c531659141344cd1fd0a4f28419497f9722a3daafe3b4186f6b6457e090600090a35050565b611725806100af6000396000f3fe6080604052600436106100f35760003560e01c80638ef1d7b41161008a578063c4d66de811610059578063c4d66de814610298578063cc5a02cb146102b8578063f2fde38b146102d8578063fab3fef5146102f857600080fd5b80638ef1d7b41461020857806394e73d4114610228578063c00dc40214610248578063c38bb5371461027857600080fd5b80635cd9205f116100c65780635cd9205f146101a2578063715018a6146101c25780638da5cb5b146101d75780638e506349146101f557600080fd5b806317fcb39b146100f857806320ff430b14610135578063431b4c07146101575780635c975abb14610177575b600080fd5b34801561010457600080fd5b50603254610118906001600160a01b031681565b6040516001600160a01b0390911681526020015b60405180910390f35b34801561014157600080fd5b506101556101503660046113bc565b610344565b005b34801561016357600080fd5b50610155610172366004611412565b6103f1565b34801561018357600080fd5b50609654600160a01b900460ff165b604051901515815260200161012c565b3480156101ae57600080fd5b506101556101bd366004611496565b610444565b3480156101ce57600080fd5b5061015561048a565b3480156101e357600080fd5b506096546001600160a01b0316610118565b6101556102033660046114ba565b61049e565b34801561021457600080fd5b50600054610118906001600160a01b031681565b34801561023457600080fd5b5061015561024336600461151a565b610804565b34801561025457600080fd5b50610192610263366004611496565b60346020526000908152604090205460ff1681565b34801561028457600080fd5b50610155610293366004611569565b610a23565b3480156102a457600080fd5b506101556102b3366004611496565b610a7e565b3480156102c457600080fd5b506101556102d3366004611584565b610aa8565b3480156102e457600080fd5b506101556102f3366004611496565b610ca9565b34801561030457600080fd5b506103366103133660046115b9565b603360209081526000938452604080852082529284528284209052825290205481565b60405190815260200161012c565b61034c610cdb565b6001600160a01b038216610396576040516001600160a01b0384169082156108fc029083906000818181858888f19350505050158015610390573d6000803e3d6000fd5b506103a1565b6103a1828483610d08565b604080516001600160a01b038086168252841660208201529081018290527fe01920728668d89f092ef9cb92036bad90964bb622eec508d2c3ffe1d582efb29060600160405180910390a1505050565b6103f9610cdb565b8160005b8181101561043d5761043585858381811061041a5761041a6115f7565b905060200201602081019061042f9190611496565b84610dfc565b6001016103fd565b5050505050565b60006104586096546001600160a01b031690565b6001600160a01b03161461047e5760405162dc149f60e41b815260040160405180910390fd5b61048781610e5b565b50565b610492610cdb565b61049c6000610e5b565b565b6000546001600160a01b03163360405163224c50cb60e21b8152600260048201526000906001600160a01b03841690638931432c90602401602060405180830381865afa1580156104f3573d6000803e3d6000fd5b505050506040513d601f19601f82011682018060405250810190610517919061160d565b60405163224c50cb60e21b8152600360048201529091506000906001600160a01b03851690638931432c90602401602060405180830381865afa158015610562573d6000803e3d6000fd5b505050506040513d601f19601f82011682018060405250810190610586919061160d565b9050816001600160a01b0316836001600160a01b0316141580156105bc5750806001600160a01b0316836001600160a01b031614155b156105ea576040516345e6355360e11b81526001600160a01b03841660048201526024015b60405180910390fd5b84878115801561061357506001600160a01b03811660009081526034602052604090205460ff16155b1561063c576040516310e3dbf360e21b81526001600160a01b03821660048201526024016105e1565b87156107f8576000805460405163224c50cb60e21b81526004808201526001600160a01b0390911690638931432c90602401602060405180830381865afa15801561068b573d6000803e3d6000fd5b505050506040513d601f19601f820116820180604052508101906106af919061160d565b90506001600160a01b0381166106d857604051636fd7e48d60e01b815260040160405180910390fd5b6032546001600160a01b03908116908b160361079f578834101561071857604051633c3b81c960e11b8152346004820152602481018a90526044016105e1565b603260009054906101000a90046001600160a01b03166001600160a01b031663d0e30db08a6040518263ffffffff1660e01b81526004016000604051808303818588803b15801561076857600080fd5b505af115801561077c573d6000803e3d6000fd5b505060325461079a93506001600160a01b031691508390508b610d08565b6107ac565b6107ac8a8c838c85610ead565b604080518a815289151560208201526001600160a01b03808d1692908e16917f9c5154feffbed690ee60b433bbf358c37ba2983e206ca5543421069ef1a2d9b9910160405180910390a3505b50505050505050505050565b6000546001600160a01b03163360405163224c50cb60e21b8152600260048201526000906001600160a01b03841690638931432c90602401602060405180830381865afa158015610859573d6000803e3d6000fd5b505050506040513d601f19601f8201168201806040525081019061087d919061160d565b60405163224c50cb60e21b8152600360048201529091506000906001600160a01b03851690638931432c90602401602060405180830381865afa1580156108c8573d6000803e3d6000fd5b505050506040513d601f19601f820116820180604052508101906108ec919061160d565b9050816001600160a01b0316836001600160a01b0316141580156109225750806001600160a01b0316836001600160a01b031614155b1561094b576040516345e6355360e11b81526001600160a01b03841660048201526024016105e1565b6001600160a01b038088166000908152603360209081526040808320938a16835292905290812086918a60058111156109865761098661162a565b60058111156109975761099761162a565b815260200190815260200160002060008282546109b49190611656565b9091555088905060058111156109cc576109cc61162a565b866001600160a01b0316886001600160a01b03167fe9ea61194900d9e2eabbd914abeb3aea15d4b8ca90014093a70de3d60c84b74d88604051610a1191815260200190565b60405180910390a45050505050505050565b610a2b610cdb565b8015610a3e57610a396111c3565b610a46565b610a46611223565b60405181151581527f6c82eb8f861cdde5f2fdbdc7c547ba478de85dd25a1697ec176cec341e5158979060200160405180910390a150565b610a86610cdb565b603280546001600160a01b0319166001600160a01b0392909216919091179055565b610ab061125f565b3360009081526033602090815260408083206001600160a01b0386168452909152812081836005811115610ae657610ae661162a565b6005811115610af757610af761162a565b815260200190815260200160002054905080600003610b1557505050565b6000805460405163224c50cb60e21b81526004808201526001600160a01b0390911690638931432c90602401602060405180830381865afa158015610b5e573d6000803e3d6000fd5b505050506040513d601f19601f82011682018060405250810190610b82919061160d565b6032549091506001600160a01b0390811690851603610c4557603254610bb4906001600160a01b031682308582610ead565b603254604051632e1a7d4d60e01b8152600481018490526001600160a01b0390911690632e1a7d4d90602401600060405180830381600087803b158015610bfa57600080fd5b505af1158015610c0e573d6000803e3d6000fd5b505060405133925084156108fc02915084906000818181858888f19350505050158015610c3f573d6000803e3d6000fd5b50610c51565b610c518482338561128a565b826005811115610c6357610c6361162a565b6040518381526001600160a01b0386169033907fc8c2568a84dc78b4d28cb1be681ed0ee606f40b7c45dc349df83d5dad805890a9060200160405180910390a450505050565b610cb1610cdb565b6001600160a01b03811661047e57604051631e4fbdf760e01b8152600060048201526024016105e1565b6096546001600160a01b0316331461049c5760405163118cdaa760e01b81523360048201526024016105e1565b604080518082018252601981527f7472616e7366657228616464726573732c75696e74323536290000000000000060209182015281516001600160a01b0385811660248301526044808301869052845180840390910181526064909201845291810180516001600160e01b031663a9059cbb60e01b179052915160009291861691610d929161166f565b6000604051808303816000865af19150503d8060008114610dcf576040519150601f19603f3d011682016040523d82523d6000602084013e610dd4565b606091505b5050905080610df6576040516312171d8360e31b815260040160405180910390fd5b50505050565b6001600160a01b038216600081815260346020908152604091829020805460ff191685151590811790915591519182527f91efc419893c42233cb7cf5644b9cfb8157ea246b2d46fbe4cdcdad596200f27910160405180910390a25050565b609680546001600160a01b038381166001600160a01b0319831681179093556040519116919082907f8be0079c531659141344cd1fd0a4f28419497f9722a3daafe3b4186f6b6457e090600090a35050565b6040516370a0823160e01b81526001600160a01b038581166004830152600091908716906370a0823190602401602060405180830381865afa158015610ef7573d6000803e3d6000fd5b505050506040513d601f19601f82011682018060405250810190610f1b919061169e565b6040516370a0823160e01b81526001600160a01b0386811660048301529192506000918816906370a0823190602401602060405180830381865afa158015610f67573d6000803e3d6000fd5b505050506040513d601f19601f82011682018060405250810190610f8b919061169e565b9050826001600160a01b0316866001600160a01b031614801561101b5750604051636eb1769f60e11b81526001600160a01b03878116600483015230602483015288169063dd62ed3e90604401602060405180830381865afa158015610ff5573d6000803e3d6000fd5b505050506040513d601f19601f82011682018060405250810190611019919061169e565b155b1561107a5760405163daea85c560e01b81523060048201526001600160a01b0384169063daea85c590602401600060405180830381600087803b15801561106157600080fd5b505af1158015611075573d6000803e3d6000fd5b505050505b6110868787878761128a565b6040516370a0823160e01b81526001600160a01b038781166004830152600091908916906370a0823190602401602060405180830381865afa1580156110d0573d6000803e3d6000fd5b505050506040513d601f19601f820116820180604052508101906110f4919061169e565b6040516370a0823160e01b81526001600160a01b0388811660048301529192506000918a16906370a0823190602401602060405180830381865afa158015611140573d6000803e3d6000fd5b505050506040513d601f19601f82011682018060405250810190611164919061169e565b905061117086856116b7565b821461118f576040516312171d8360e31b815260040160405180910390fd5b6111998684611656565b81146111b8576040516312171d8360e31b815260040160405180910390fd5b505050505050505050565b6111cb61125f565b6096805460ff60a01b1916600160a01b1790557f62e78cea01bee320cd4e420270b5ea74000d11b0c9f74754ebdbfc544b05a2586112063390565b6040516001600160a01b03909116815260200160405180910390a1565b61122b61137d565b6096805460ff60a01b191690557f5db9ee0a495bf2e6ff9c91a7834c1ba4fdd244a5e8aa4e537bd38aeae4b073aa33611206565b609654600160a01b900460ff161561049c5760405163d93c066560e01b815260040160405180910390fd5b6000846001600160a01b03166040518060600160405280602581526020016116cb6025913980516020909101206040516001600160a01b038088166024830152861660448201526064810185905260840160408051601f198184030181529181526020820180516001600160e01b03166001600160e01b0319909416939093179092529051611319919061166f565b6000604051808303816000865af19150503d8060008114611356576040519150601f19603f3d011682016040523d82523d6000602084013e61135b565b606091505b505090508061043d576040516312171d8360e31b815260040160405180910390fd5b609654600160a01b900460ff1661049c57604051638dfc202b60e01b815260040160405180910390fd5b6001600160a01b038116811461048757600080fd5b6000806000606084860312156113d157600080fd5b83356113dc816113a7565b925060208401356113ec816113a7565b929592945050506040919091013590565b8035801515811461140d57600080fd5b919050565b60008060006040848603121561142757600080fd5b833567ffffffffffffffff8082111561143f57600080fd5b818601915086601f83011261145357600080fd5b81358181111561146257600080fd5b8760208260051b850101111561147757600080fd5b60209283019550935061148d91860190506113fd565b90509250925092565b6000602082840312156114a857600080fd5b81356114b3816113a7565b9392505050565b600080600080608085870312156114d057600080fd5b84356114db816113a7565b935060208501356114eb816113a7565b925060408501359150611500606086016113fd565b905092959194509250565b80356006811061140d57600080fd5b6000806000806080858703121561153057600080fd5b6115398561150b565b93506020850135611549816113a7565b92506040850135611559816113a7565b9396929550929360600135925050565b60006020828403121561157b57600080fd5b6114b3826113fd565b6000806040838503121561159757600080fd5b82356115a2816113a7565b91506115b06020840161150b565b90509250929050565b6000806000606084860312156115ce57600080fd5b83356115d9816113a7565b925060208401356115e9816113a7565b915061148d6040850161150b565b634e487b7160e01b600052603260045260246000fd5b60006020828403121561161f57600080fd5b81516114b3816113a7565b634e487b7160e01b600052602160045260246000fd5b634e487b7160e01b600052601160045260246000fd5b8082018082111561166957611669611640565b92915050565b6000825160005b818110156116905760208186018101518583015201611676565b506000920191825250919050565b6000602082840312156116b057600080fd5b5051919050565b818103818111156116695761166961164056fe7472616e7366657246726f6d28616464726573732c616464726573732c75696e7432353629a264697066735822122029eb5fbb7c2bea14c0cb048b0dc2e336ad9ac56726e95b80752297ce9d0edf0464736f6c63430008190033","linkReferences":{}},"methodIdentifiers":{"addTokenBalance(uint8,address,address,uint256)":"94e73d41","initialize(address)":"c4d66de8","initializeOwnership(address)":"5cd9205f","owner()":"8da5cb5b","paused()":"5c975abb","renounceOwnership()":"715018a6","rescue(address,address,uint256)":"20ff430b","setPauseStatus(bool)":"c38bb537","tadleFactory()":"8ef1d7b4","tillIn(address,address,uint256,bool)":"8e506349","tokenWhiteListed(address)":"c00dc402","transferOwnership(address)":"f2fde38b","updateTokenWhiteListed(address[],bool)":"431b4c07","userTokenBalanceMap(address,address,uint8)":"fab3fef5","withdraw(address,uint8)":"cc5a02cb","wrappedNativeToken()":"17fcb39b"},"id":35}