{"abi":[{"type":"constructor","inputs":[],"stateMutability":"nonpayable"},{"type":"function","name":"approve","inputs":[{"name":"tokenAddr","type":"address","internalType":"address"}],"outputs":[],"stateMutability":"nonpayable"},{"type":"function","name":"initializeOwnership","inputs":[{"name":"_newOwner","type":"address","internalType":"address"}],"outputs":[],"stateMutability":"nonpayable"},{"type":"function","name":"owner","inputs":[],"outputs":[{"name":"","type":"address","internalType":"address"}],"stateMutability":"view"},{"type":"function","name":"paused","inputs":[],"outputs":[{"name":"","type":"bool","internalType":"bool"}],"stateMutability":"view"},{"type":"function","name":"renounceOwnership","inputs":[],"outputs":[],"stateMutability":"nonpayable"},{"type":"function","name":"rescue","inputs":[{"name":"to","type":"address","internalType":"address"},{"name":"token","type":"address","internalType":"address"},{"name":"amount","type":"uint256","internalType":"uint256"}],"outputs":[],"stateMutability":"nonpayable"},{"type":"function","name":"setPauseStatus","inputs":[{"name":"pauseSatus","type":"bool","internalType":"bool"}],"outputs":[],"stateMutability":"nonpayable"},{"type":"function","name":"tadleFactory","inputs":[],"outputs":[{"name":"","type":"address","internalType":"contract ITadleFactory"}],"stateMutability":"view"},{"type":"function","name":"transferOwnership","inputs":[{"name":"newOwner","type":"address","internalType":"address"}],"outputs":[],"stateMutability":"nonpayable"},{"type":"event","name":"OwnershipTransferred","inputs":[{"name":"previousOwner","type":"address","indexed":true,"internalType":"address"},{"name":"newOwner","type":"address","indexed":true,"internalType":"address"}],"anonymous":false},{"type":"event","name":"Paused","inputs":[{"name":"account","type":"address","indexed":false,"internalType":"address"}],"anonymous":false},{"type":"event","name":"Rescue","inputs":[{"name":"to","type":"address","indexed":false,"internalType":"address"},{"name":"token","type":"address","indexed":false,"internalType":"address"},{"name":"amount","type":"uint256","indexed":false,"internalType":"uint256"}],"anonymous":false},{"type":"event","name":"SetPauseStatus","inputs":[{"name":"status","type":"bool","indexed":false,"internalType":"bool"}],"anonymous":false},{"type":"event","name":"Unpaused","inputs":[{"name":"account","type":"address","indexed":false,"internalType":"address"}],"anonymous":false},{"type":"error","name":"AlreadyInitialized","inputs":[]},{"type":"error","name":"ApproveFailed","inputs":[]},{"type":"error","name":"EnforcedPause","inputs":[]},{"type":"error","name":"ExpectedPause","inputs":[]},{"type":"error","name":"OwnableInvalidOwner","inputs":[{"name":"owner","type":"address","internalType":"address"}]},{"type":"error","name":"OwnableUnauthorizedAccount","inputs":[{"name":"account","type":"address","internalType":"address"}]},{"type":"error","name":"TransferFailed","inputs":[]}],"bytecode":{"object":"0x6080604052348015600f57600080fd5b503380603557604051631e4fbdf760e01b81526000600482015260240160405180910390fd5b603c81604e565b506096805460ff60a01b1916905560a0565b609680546001600160a01b038381166001600160a01b0319831681179093556040519116919082907f8be0079c531659141344cd1fd0a4f28419497f9722a3daafe3b4186f6b6457e090600090a35050565b6107de806100af6000396000f3fe608060405234801561001057600080fd5b50600436106100935760003560e01c80638da5cb5b116100665780638da5cb5b146100ea5780638ef1d7b41461010f578063c38bb53714610122578063daea85c514610135578063f2fde38b1461014857600080fd5b806320ff430b146100985780635c975abb146100ad5780635cd9205f146100cf578063715018a6146100e2575b600080fd5b6100ab6100a63660046106d5565b61015b565b005b609654600160a01b900460ff1660405190151581526020015b60405180910390f35b6100ab6100dd366004610716565b610208565b6100ab61024e565b6096546001600160a01b03165b6040516001600160a01b0390911681526020016100c6565b6000546100f7906001600160a01b031681565b6100ab61013036600461073a565b610262565b6100ab610143366004610716565b6102bd565b6100ab610156366004610716565b610425565b61016361045c565b6001600160a01b0382166101ad576040516001600160a01b0384169082156108fc029083906000818181858888f193505050501580156101a7573d6000803e3d6000fd5b506101b8565b6101b8828483610489565b604080516001600160a01b038086168252841660208201529081018290527fe01920728668d89f092ef9cb92036bad90964bb622eec508d2c3ffe1d582efb29060600160405180910390a1505050565b600061021c6096546001600160a01b031690565b6001600160a01b0316146102425760405162dc149f60e41b815260040160405180910390fd5b61024b8161057d565b50565b61025661045c565b610260600061057d565b565b61026a61045c565b801561027d576102786105cf565b610285565b61028561062f565b60405181151581527f6c82eb8f861cdde5f2fdbdc7c547ba478de85dd25a1697ec176cec341e5158979060200160405180910390a150565b6000805460405163224c50cb60e21b8152600560048201526001600160a01b0390911690638931432c90602401602060405180830381865afa158015610307573d6000803e3d6000fd5b505050506040513d601f19601f8201168201806040525081019061032b919061075c565b604080518082018252601881527f617070726f766528616464726573732c75696e7432353629000000000000000060209182015281516001600160a01b038481166024830152600019604480840191909152845180840390910181526064909201845291810180516001600160e01b031663095ea7b360e01b1790529151929350600092908516916103bc91610779565b6000604051808303816000865af19150503d80600081146103f9576040519150601f19603f3d011682016040523d82523d6000602084013e6103fe565b606091505b505090508061042057604051633e3f8f7360e01b815260040160405180910390fd5b505050565b61042d61045c565b6001600160a01b03811661024257604051631e4fbdf760e01b8152600060048201526024015b60405180910390fd5b6096546001600160a01b031633146102605760405163118cdaa760e01b8152336004820152602401610453565b604080518082018252601981527f7472616e7366657228616464726573732c75696e74323536290000000000000060209182015281516001600160a01b0385811660248301526044808301869052845180840390910181526064909201845291810180516001600160e01b031663a9059cbb60e01b17905291516000929186169161051391610779565b6000604051808303816000865af19150503d8060008114610550576040519150601f19603f3d011682016040523d82523d6000602084013e610555565b606091505b5050905080610577576040516312171d8360e31b815260040160405180910390fd5b50505050565b609680546001600160a01b038381166001600160a01b0319831681179093556040519116919082907f8be0079c531659141344cd1fd0a4f28419497f9722a3daafe3b4186f6b6457e090600090a35050565b6105d761066b565b6096805460ff60a01b1916600160a01b1790557f62e78cea01bee320cd4e420270b5ea74000d11b0c9f74754ebdbfc544b05a2586106123390565b6040516001600160a01b03909116815260200160405180910390a1565b610637610696565b6096805460ff60a01b191690557f5db9ee0a495bf2e6ff9c91a7834c1ba4fdd244a5e8aa4e537bd38aeae4b073aa33610612565b609654600160a01b900460ff16156102605760405163d93c066560e01b815260040160405180910390fd5b609654600160a01b900460ff1661026057604051638dfc202b60e01b815260040160405180910390fd5b6001600160a01b038116811461024b57600080fd5b6000806000606084860312156106ea57600080fd5b83356106f5816106c0565b92506020840135610705816106c0565b929592945050506040919091013590565b60006020828403121561072857600080fd5b8135610733816106c0565b9392505050565b60006020828403121561074c57600080fd5b8135801515811461073357600080fd5b60006020828403121561076e57600080fd5b8151610733816106c0565b6000825160005b8181101561079a5760208186018101518583015201610780565b50600092019182525091905056fea264697066735822122069b0c0d3013dfc1a19ea248d0b54a254a114fa915edc1068348656e719d4a1d164736f6c63430008190033","linkReferences":{}},"methodIdentifiers":{"approve(address)":"daea85c5","initializeOwnership(address)":"5cd9205f","owner()":"8da5cb5b","paused()":"5c975abb","renounceOwnership()":"715018a6","rescue(address,address,uint256)":"20ff430b","setPauseStatus(bool)":"c38bb537","tadleFactory()":"8ef1d7b4","transferOwnership(address)":"f2fde38b"},"id":47}