{"abi":[{"type":"function","name":"tadleFactory","inputs":[],"outputs":[{"name":"","type":"address","internalType":"contract ITadleFactory"}],"stateMutability":"view"}],"bytecode":{"object":"0x6080604052348015600f57600080fd5b50609180601d6000396000f3fe6080604052348015600f57600080fd5b506004361060285760003560e01c80638ef1d7b414602d575b600080fd5b600054603f906001600160a01b031681565b6040516001600160a01b03909116815260200160405180910390f3fea2646970667358221220e1d598439e79627a8a84789262996c7a3c9ed953d1e00414df617efedd2edebc64736f6c63430008190033","linkReferences":{}},"methodIdentifiers":{"tadleFactory()":"8ef1d7b4"},"id":67}